:100000000C9435010C9466010C9466010C94660105
:100010000C9466010C9466010C9466010C946601C4
:100020000C9466010C9466010C9466010C946601B4
:100030000C9466010C9466010C9466010C946601A4
:100040000C9466010C9466010C9466010C94660194
:100050000C9466010C9466010C9466010C940606DF
:100060000C9466010C9466010C9466010C94660174
:100070000C9466010C9466010C9466010C94660164
:100080000C9466010C9466010C9466010C94660154
:100090000C9466010C9466010C9466010C94500655
:1000A0000C9466010C9466010C9466010C94660134
:1000B0000C9466010C9466010C9466010C94660124
:1000C0000C9466010C9466010C9466010C94660114
:1000D0000C9466010C9466010C9466010C94660104
:1000E0000C9466010C94FB010C946F020C94580262
:1000F0000C947D020C944C020C9487020C947302B5
:100100000C9452030C9450020C9454020C945B0215
:100110000C943D050C9461020C946B020C946502E6
:100120000C9470070C9479020C94B8020C948B0216
:100130000C94E9020C9446020C94A4030C94290339
:100140000C9481020C9486020000210024002700F8
:100150002A002D00300033000101000004010701D6
:100160000A0100002200250028002B002E0031008B
:10017000340002010000050108010B01000020000D
:100180002300260029002C002F003200000100006F
:10019000030106010901050505050705080808080A
:1001A000020202020A0A080804040404010101010F
:1001B000010101010303030303030303040707070A
:1001C0000C0C0C0C0C0C0C0C0202020206060606AF
:1001D000060606060B0B0B0B0B0B0B0B010210207C
:1001E000200808102040102040800201020108046D
:1001F0000201010204081020408080402010080401
:100200000201800402018040201008040201080459
:10021000020101020408102040800102040810209D
:10022000408000000A0B02090C0D0E0807030401B0
:1002300000000000000000000000000000000000BE
:10024000000000000000000000000000000012118B
:10025000100000000000000000000000000000008E
:100260000000000000000000700711241FBECFEF47
:10027000D1E2DEBFCDBF00E00CBF23E0A0E4B2E0DE
:1002800001C01D92A534B207E1F712E0A0E0B2E090
:10029000E4E0F0E200E00BBF02C007900D92A03452
:1002A000B107D9F711E0C5E3D1E000E006C021971E
:1002B0000109802FFE010E94E20DC433D10780E0C6
:1002C0000807A9F70E94E7070C9400100C9400009F
:1002D00096E0899FD0011124A654BD4F90967C933F
:1002E0006E935F9791E091969C939197E09127038D
:1002F000F091280390912603992339F0309751F01B
:10030000811108C08091D6021994309719F05C963B
:100310008C91FACF0895CF92DF92EF92FF920F93D4
:100320001F9396E0899FF0011124E654FD4F11A21E
:10033000278D30A12130310551F178F0223031057F
:1003400009F451C02330310509F452C01F910F91B7
:10035000FF90EF90DF90CF9008956623B9F361E0AE
:1003600070E00E9468012FB7F8948091B6029091D6
:10037000B702A091B802B091B9022FBF80931203C7
:1003800090931303A0931403B0931503DFCF9FB78B
:10039000F894C090B602D090B702E090B802F09006
:1003A000B9029FBF0091120310911303209114030F
:1003B00030911503C01AD10AE20AF30A009124030E
:1003C0001091250330E020E00C151D052E053F059A
:1003D00050F462E070E01F910F91FF90EF90DF907A
:1003E000CF900C9468016111B1CF63E070E0F3CF5E
:1003F00070E060E0F0CFAF92BF92CF92DF92EF92C9
:10040000FF920F931F93CF93DF936C017B018B01BE
:10041000040F151FEB015E01AE18BF08C017D1070E
:1004200059F06991D601ED91FC910190F081E02D98
:10043000C6011995892B79F7C501DF91CF911F91DD
:100440000F91FF90EF90DF90CF90BF90AF90089505
:100450008150823108F05AC0E82FF0E08827EC5C28
:10046000FD4F8F4F0C94E20D5402580246024C028D
:10047000500286025B02610265026B026F02730228
:1004800079027D028602810287028B0280918000C0
:100490008F77809380000895809180008F7DF9CFC1
:1004A00080918000877FF5CF84B58F7784BD0895D4
:1004B00084B58F7DFBCF8091B0008F778093B000A3
:1004C00008958091B0008F7DF9CF809190008F7753
:1004D000809390000895809190008F7DF9CF809156
:1004E0009000877FF5CF8091A0008F778093A00048
:1004F00008958091A0008F7DF9CF8091A000877F23
:10050000F5CF809120018F7780932001089580910D
:1005100020018F7DF9CF80912001877FF5CFCF9388
:10052000DF93282F30E0F901EE5DFD4F8491F90152
:10053000E452FE4FD491F901EA56FE4FC491CC2308
:10054000A1F081110E942802EC2FF0E0EE0FFF1FB6
:10055000E458FE4FA591B491EC91ED2381E090E039
:1005600009F480E0DF91CF91089580E090E0FACF28
:10057000862F0C948F021F93CF93DF93282F30E0A8
:10058000F901EE5DFD4F8491F901E452FE4FD491E3
:10059000F901EA56FE4FC491CC23A9F0162F811120
:1005A0000E942802EC2FF0E0EE0FFF1FEE59FE4FE5
:1005B000A591B4918FB7F894EC91111108C0D09522
:1005C000DE23DC938FBFDF91CF911F910895DE2B47
:1005D000F8CF862F642F0C94BB02CF93DF9390E06B
:1005E000FC01E452FE4F24918A569E4FFC018491F7
:1005F0008823C9F090E0880F991FFC01E85BFE4F4B
:10060000A591B491FC01EE59FE4FC591D4916111B1
:100610000DC09FB7F8948C91209582238C9388818C
:10062000282328839FBFDF91CF910895623051F432
:100630009FB7F8943C91822F809583238C93E88117
:100640002E2BEFCF8FB7F894EC912E2B2C938FBFDE
:10065000EACF862F642F0C94ED023FB7F894809177
:10066000B2029091B302A091B402B091B50226B546
:10067000A89B05C02F3F19F00196A11DB11D3FBFDA
:10068000BA2FA92F982F8827BC01CD01620F711DA9
:10069000811D911D42E0660F771F881F991F4A95A3
:1006A000D1F70895089520916702260F3327331F4D
:1006B00021323105ECF420918B02FC0190E080E0C6
:1006C000243069F082E00895A09167022191AC0185
:1006D000495B5D4FA40FB52FB11D2C930196861772
:1006E00098F380916702680F6093670280E0089535
:1006F00081E0089508958FEF9FEF08958FEF9FEFAA
:1007000008958091400290E0919581959109089516
:10071000CF93DF93CB01EA01642F0E945303CE01F4
:10072000DF91CF910895CF93DF931F92CDB7DEB7BE
:10073000698361E0CE0101960E94530381E090E05D
:100740000F90DF91CF91089590E080E00895FC0133
:1007500001900020E9F73197AF01481B590BBC010C
:1007600089E293E00C94FB018F929F92AF92BF922B
:100770000F931F93CF93DF93CDB7DEB7A1970FB63B
:10078000F894DEBF0FBECDBF19A2423008F44AE094
:100790008E010F5D1F4F842E912CB12CA12CA50131
:1007A00094010E94C00DE62FB901CA01EA30F4F4A9
:1007B000E05DD801EE938D01232B242B252B79F7B7
:1007C00090E080E0109719F0CD010E94A703A19658
:1007D0000FB6F894DEBF0FBECDBFDF91CF911F9152
:1007E0000F91BF90AF909F908F900895E95CE1CFFB
:1007F000CF93DF93EC0160E08E810E94BB0261E049
:100800008E810E94BB0260E08E810E94BB028BE859
:1008100091E00197F1F7DF91CF910895CF92DF92A8
:10082000EF92FF920F931F93CF93DF936C017C01A4
:1008300087E0E80EF11CD0E0C0E0062F10E0B80120
:100840000C2E02C0759567950A94E2F76170F70166
:1008500081917F010E94BB022196C430D10579F7B6
:10086000C601DF91CF911F910F91FF90EF90DF9024
:10087000CF900C94F803CF92DF92EF92FF920F93F8
:100880001F93CF93DF93EC01F62E642F8C810E948F
:10089000BB028D818F3F19F060E00E94BB020F2DDB
:1008A00010E08F8584FF25C06E0187E0C80ED11C43
:1008B000F12CE12CB8010E2C02C0759567950A94B5
:1008C000E2F76170F60181916F010E94BB02FFEFB8
:1008D000EF1AFF0A88E0E816F10461F7CE01DF9114
:1008E000CF911F910F91FF90EF90DF90CF900C94DC
:1008F000F803B80184E0759567958A95E1F7CE0114
:100900000E940E046F2DCE01DF91CF911F910F91A8
:10091000FF90EF90DF90CF900C940E0440E0682F92
:1009200089E293E00C943B0481E00E948E048BE307
:100930009FE10197F1F70895CF93DF93823029F477
:100940009091380398609093380380933C03109201
:100950003D0380E480933E0380E180933F0380E584
:100960008093400361E080912D030E94ED0280910D
:100970002E038F3F19F061E00E94ED0261E080914B
:100980002F030E94ED02C9E2D3E09E0129523340B9
:100990008091380384FD0BC084E090E021962817F5
:1009A000390744F461E08E810E94ED02EECF88E0C9
:1009B00090E0F4CF8BE39DE00197F1F760E0809148
:1009C0002D030E94BB0260E080912F030E94BB02B6
:1009D00080912E038F3F19F060E00E94BB0280914E
:1009E000380384FD34C063E089E293E00E940E0482
:1009F000CBE4D6E4CE010197F1F763E089E293E01E
:100A00000E940E042197F1F763E089E293E00E94CF
:100A10000E0483E592E00197F1F762E089E293E04A
:100A20000E940E048091380380620E948E0484E04C
:100A3000809339038CE00E948E040E94940482E02B
:100A400080933A0386E0DF91CF910C948E0480620C
:100A50000E948E048BE496E40197F1F780913803AD
:100A600080620E948E0483E592E00197F1F7809105
:100A7000380380620E948E04D5CF41E00E943B047F
:100A800081E090E008950F931F93CF93DF93EC01E3
:100A900088819981009759F02A813B812617370771
:100AA00030F081E0DF91CF911F910F9108958B017C
:100AB0006F5F7F4F0E940F0F009759F099838883D3
:100AC0001B830A832C813D81232B59F7FC01108263
:100AD000E8CF80E0E7CF0F931F93CF93DF93EC0134
:100AE0008B010E94430528813981811112C0211593
:100AF000310519F0C9010E94860E198218821D82E3
:100B00001C821B821A82CE01DF91CF911F910F911F
:100B100008951D830C836BE372E0C9010E94F90FF5
:100B2000F2CF1F93CF93DF9385ED8093BC0080912C
:100B3000430290914402A0914502B091460207966B
:100B4000A11DB11D23E0B695A795979587952A9588
:100B5000D1F72091BC0024FD03C010928B0252C03B
:100B600040914302509144026091450270914602C7
:100B7000452B462B472B69F30097A105B10541F0A2
:100B800025E32A95F1F700000197A109B109E1CF0A
:100B900080914202C1E0C0934102882399F1D09133
:100BA000B8001091BA008091BC008A7B8093BC0091
:100BB00060E084E10E94BB0260E085E10E94BB022C
:100BC00010928B02C0938D0210928C0261E084E13E
:100BD0000E94BB0261E085E10E94BB028091B900E6
:100BE0008E7F8093B9008091B9008D7F8093B9008A
:100BF00088E48093B80085E48093BC001093BA0029
:100C0000D093B800DF91CF911F9108951F920F925A
:100C10000FB60F9211242F933F938F939F93AF930F
:100C2000BF938091B6029091B702A091B802B091A3
:100C3000B9023091B10223E0230F2D3758F5019608
:100C4000A11DB11D2093B1028093B6029093B7020B
:100C5000A093B802B093B9028091B2029091B3020E
:100C6000A091B402B091B5020196A11DB11D80936F
:100C7000B2029093B302A093B402B093B502BF91B5
:100C8000AF919F918F913F912F910F900FBE0F9039
:100C90001F90189526E8230F0296A11DB11DD2CFF3
:100CA0001F920F920FB60F9211240BB60F922F9333
:100CB0003F934F935F936F937F938F939F93AF93E4
:100CC000BF93EF93FF938091B900887F803609F43A
:100CD0004DC008F040C0883209F4A7C028F5803123
:100CE00009F49BC0C8F4882309F4F7C0883009F4DC
:100CF00094C0FF91EF91BF91AF919F918F917F91A0
:100D00006F915F914F913F912F910F900BBE0F907C
:100D10000FBE0F901F901895883109F486C080325D
:100D200041F780938A0214C0803409F49BC040F4D8
:100D30008033B9F38833E9F680938A0285ECAEC03C
:100D4000803509F483C0883509F494C0883489F665
:100D50000E949105CECF883909F48AC038F58837CA
:100D600029F050F4883611F0803719F683E080932B
:100D70008B021092890255C0883809F479C08039F5
:100D800019F0803809F0B5CF80918902803208F0DF
:100D90006FC0E091890281E08E0F8093890280917B
:100DA000BB00F0E0E759FD4F80833BC0803B39F04A
:100DB000D0F4803A09F477C0883A09F09ACF84E0F9
:100DC00080938B021092680210926702F0E0E0E0DC
:100DD00019958091670281110FC081E080936702AD
:100DE0001092470209C0803C09F4A8CF883C09F45E
:100DF000A5CF883B09F07DCFE091680281E08E0F9E
:100E000080936802F0E0E95BFD4F80818093BB0036
:100E1000909168028091670229C08091B00280930E
:100E2000BB0085EC8093BC0064CF9091AF028091B1
:100E3000AE02981758F5E091AF0281E08E0F8093D3
:100E4000AF02F0E0E257FD4F8081E9CFE091AF02C1
:100E500081E08E0F8093AF028091BB00F0E0E257FB
:100E6000FD4F80839091AF028091AE029817C8F237
:100E700085E8D8CFE091AF0281E08E0F8093AF027A
:100E80008091BB00F0E0E257FD4F808380918D029E
:100E900081115ECF81E080938C0284EA8093BC0054
:100EA00010928B0226CF85EC8093BC0010928B02AF
:100EB00080918902803230F4E0918902F0E0E759B4
:100EC000FD4F10826091890270E089E692E0F0E0C7
:100ED000E0E01995109289020CCF10928A0238CF67
:100EE00010922C0310922B038CE292E090932A0331
:100EF0008093290380E280932D038FEF80932E034C
:100F000081E280932F0382E28093300383E2809317
:100F1000310384E28093320385E28093330310929D
:100F20003403109235031092360310923703109257
:100F3000380381E00E949C041092BC021092C0020F
:100F40001092BF021092C10282E292E09093BB0223
:100F50008093BA02E6EDF2E01082148213821582C9
:100F6000369683E0E231F807B9F784E092E0909397
:100F70001D0380931C0380E092E090931F038093F5
:100F80001E0384E0809320038093210388E092E095
:100F900090931B0380931A038AE090E090932303BD
:100FA0008093220384EF91E09093250380932403A0
:100FB0001092280310922703109216031092170321
:100FC0001092180310921903109226030895CF93DC
:100FD000DF93CDB7DEB766970FB6F894DEBF0FBECE
:100FE000CDBF789484B5826084BD84B5816084BDB2
:100FF00085B5826085BD85B5816085BD80916E00B7
:10100000816080936E0010928100809181008260E7
:101010008093810080918100816080938100809124
:1010200080008160809380008091B1008460809313
:10103000B1008091B00081608093B00080919100F8
:1010400082608093910080919100816080939100F3
:10105000809190008160809390008091A1008260D7
:101060008093A1008091A10081608093A100809174
:10107000A00081608093A000809121018260809314
:1010800021018091210181608093210180912001C3
:1010900081608093200180917A00846080937A003F
:1010A00080917A00826080937A0080917A008160DA
:1010B00080937A0080917A00806880937A00109201
:1010C000C10082E00E949C040E94940456E0252EF8
:1010D0000E9494041E861D86188A1F861A8A198A01
:1010E00070E060E0CE010D960E946B051A821982B5
:1010F0001C821B821E821D8270E060E0CE01019680
:101100000E946B0518861F821A8619861C861B860C
:1011100070E060E0CE0107960E946B05912C812C57
:1011200021E0209326038FB7F8944091B6025091A6
:10113000B7026091B8027091B9028FBF8091160317
:1011400090911703A0911803B0911903481B590BF4
:101150006A0B7B0B8091220390912303B0E0A0E007
:1011600084179507A607B707D8F610E080912003EB
:10117000181760F4E0911C03F0911D03E10FF11DBD
:1011800062E080810E94ED021F5FF0CF712C8091A0
:101190002103781608F069C0072D10E0E0911E03C6
:1011A000F0911F03E00FF11F61E080810E94ED02CA
:1011B000E0911E03F0911F03E00FF11F60E08081BA
:1011C0000E94BB0281E090E0A0E0B0E0072C04C0E8
:1011D000880F991FAA1FBB1F0A94D2F79E8B8D8B75
:1011E0002C0140945094612C80912003681630F5B6
:1011F000A62CB12CE0911C03F0911D03EA0DFB1D00
:1012000080810E948F02F5013496892B71F4EE0FD4
:10121000FF1FE654FD4F808191812D893E89822BED
:10122000932B918380836394DFCFEE0FFF1FE654EF
:10123000FD4F8081918184219521F3CFE0911E03A0
:10124000F0911F03E00FF11F61E080810E94BB025B
:1012500080911E0390911F03080F191F60E0F80191
:1012600080810E94ED02739492CF0AEB12E0F801A4
:10127000878D90A1892B31F4148E2FEF3FEF368F9D
:10128000258F11A2369632E0E63FF30789F7B12C9D
:1012900080912003B81608F052C0A12C6B2C712C41
:1012A000660C771CC3018E539D4F3C012091210396
:1012B000A21608F042C0F301608171810A2C02C0BD
:1012C000769567950A94E2F7B29E900111242A0D53
:1012D000311DEAEBF2E080E0458D568D241735078D
:1012E00009F4D4C18F5F36968A30B1F760FF23C00E
:1012F000EAEBF2E090E080E0448D411117C0E0910C
:101300001A03F0911B03E20FF31F4081289EF001A6
:10131000299EF00D1124E654FD4F448F368F258F02
:1013200010A2178E61E00E948B0105C001963696CF
:101330008A30910509F7A394B9CFB394A9CF80E07F
:10134000F80191A19111892F0A5F1F4FF2E0063F2A
:101350001F07B1F79FB7F8944091B6025091B702BA
:101360006091B8027091B9029FBF409316035093E9
:1013700017036093180370931903882309F4D0CEE0
:101380008091DB02882309F4CBCE8091D902909121
:10139000DA02019709F0C4CE1091D602112309F4A4
:1013A000BFCE1D3309F035C1E0913C03E23008F0B7
:1013B00072C0E150F0E0E75DFC4F848980680E94D4
:1013C0008E048F819885009709F467C00E94480BAE
:1013D0000E948B0B4B015C0189819A81009709F473
:1013E00060C00E94480B0E948B0B2BE2321609F45E
:1013F00067C023150CF459C03AE2331609F469C0EA
:10140000A7019601C701B6010E94BB0D882309F40C
:101410006CC084E392E00E94A7030E942D032B017D
:101420003C019CED892E95E0992EA12CB12C0E94B7
:101430002D036419750986099709683E7340810573
:101440009105A8F321E0821A9108A108B10838EEAD
:10145000430E33E0531E611C711C81149104A104DE
:10146000B10429F78F819885009711F00E94860EAC
:1014700089819A81009711F00E94860E8D859E8544
:10148000009709F000C180E090E0892B09F420CE9C
:101490000E9400001DCEE1E08DCF60E070E0CB0146
:1014A00097CF60E070E0CB019ECFEDE23E16C1F039
:1014B000FFE23F12A5CFA50194010E94150D06C0C1
:1014C0009B01AC01C501B4010E94A90C6B017C0118
:1014D00097CF9B01AC01C501B4010E94EA0BF6CF86
:1014E000A50194010E94A80CF1CF46015701E89490
:1014F000B7F82FEF3FEF4FE75FE7C501B4010E9458
:10150000BB0D81110DC02FEF3FEF4FE75FE7C50126
:10151000B4010E94840B18161CF488E392E07BCF80
:101520002FEF3FEF4FE75FE4C701B6010E94B60D12
:1015300018161CF48CE392E06ECF2FEF3FEF4FE7CD
:101540005FECC701B6010E94840B87FDF3CF20E05A
:1015500030E0A901C701B6010E94840B87FF56C085
:1015600041E06DE289E293E00E943B04C701B601CD
:1015700090582AE037ED43EA5BE30E94A90C2B0167
:101580003C010E94870D4B015C010E94890B9B016D
:10159000AC01C301B2010E94A80C2B013C014AE03E
:1015A000C501B4010E94B40341E06EE289E293E018
:1015B0000E943B0420E030E040E251E4C301B2016C
:1015C0000E94EA0B2B013C010E94870D4B01B12CBC
:1015D000A12C4AE0C501B4010E94B403C501B401C5
:1015E0000E94890B9B01AC01C301B2010E94A80CAF
:1015F00020E030E040E251E40E94EA0B0E94870DB7
:1016000090E080E04AE00E94B40307CFC701B60132
:10161000B0CF712E80ED810F8A3088F51B8B1C8A2C
:10162000289C8001299C100D112421E030E02C0F12
:101630003D1F020F131FF801A480B580FFEFAF1A02
:10164000BF0AB501C8010E944305882379F0F8015B
:101650002081318184819581BE016D5E7F4F820F33
:10166000931F0E94F90FF801B582A482132D41E067
:10167000672D89E293E00E943B04312E51CD8824EE
:101680008394912CF4CF0E94860EFDCE61704BCED8
:101690001F93FC0199278827BC01E894119110320F
:1016A000E9F3193010F01E30C8F31B3251F01D322F
:1016B00049F4689406C00E946F0B610F711D811D73
:1016C000911D119110531A30B0F33EF4909580950E
:1016D000709561957F4F8F4F9F4F1F910895592FA0
:1016E000482F372F262F660F771F881F991F660FE9
:1016F000771F881F991F620F731F841F951F660F26
:10170000771F881F991F08950E94C60B08F481E077
:101710000895E89409C097FB3EF4909580957095E4
:1017200061957F4F8F4F9F4F9923A9F0F92F96E92D
:10173000BB279395F695879577956795B795F111A2
:10174000F8CFFAF4BB0F11F460FF1BC06F5F7F4F3F
:101750008F4F9F4F16C0882311F096E911C0772351
:1017600021F09EE8872F762F05C0662371F096E85A
:10177000862F70E060E02AF09A95660F771F881F29
:10178000DAF7880F9695879597F90895990F0008CD
:10179000550FAA0BE0E8FEEF16161706E807F90743
:1017A000C0F012161306E407F50798F0621B730BDE
:1017B000840B950B39F40A2661F0232B242B252B5F
:1017C00021F408950A2609F4A140A6958FEF811D02
:1017D000811D08950E94FD0B0C946E0C0E94600CFC
:1017E00038F00E94670C20F0952311F00C94570CF0
:1017F0000C945D0C11240C94A20C0E947F0C70F3CD
:10180000959FC1F3950F50E0551F629FF001729FA5
:10181000BB27F00DB11D639FAA27F00DB11DAA1FB4
:10182000649F6627B00DA11D661F829F2227B00D01
:10183000A11D621F739FB00DA11D621F839FA00D8C
:10184000611D221F749F3327A00D611D231F849FDC
:10185000600D211D822F762F6A2F11249F57504033
:101860009AF0F1F088234AF0EE0FFF1FBB1F661FAE
:10187000771F881F91505040A9F79E3F510580F077
:101880000C94570C0C94A20C5F3FE4F3983ED4F3F5
:10189000869577956795B795F795E7959F5FC1F71B
:1018A000FE2B880F911D9695879597F9089597F9C6
:1018B0009F6780E870E060E008959FEF80EC0895F6
:1018C00000240A941616170618060906089500241F
:1018D0000A9412161306140605060895092E039499
:1018E000000C11F4882352F0BB0F40F4BF2B11F40D
:1018F00060FF04C06F5F7F4F8F4F9F4F089557FD6C
:101900009058440F551F59F05F3F71F04795880F6D
:1019100097FB991F61F09F3F79F087950895121604
:1019200013061406551FF2CF4695F1DF08C01616B0
:1019300017061806991FF1CF869571056105089461
:101940000895E894BB2766277727CB0197F9089578
:101950005058BB27AA270E94C00C0C946E0C0E9402
:10196000600C38F00E94670C20F039F49F3F19F4A6
:1019700026F40C945D0C0EF4E095E7FB0C94570CE8
:10198000E92F0E947F0C58F3BA1762077307840788
:10199000950720F079F4A6F50C94A10C0EF4E095CF
:1019A0000B2EBA2FA02D0B01B90190010C01CA0119
:1019B000A0011124FF27591B99F0593F50F4503EC4
:1019C00068F11A16F040A22F232F342F4427585FB6
:1019D000F3CF469537952795A795F0405395C9F7CE
:1019E0007EF41F16BA0B620B730B840BBAF0915086
:1019F000A1F0FF0FBB1F661F771F881FC2F70EC025
:101A0000BA0F621F731F841F48F4879577956795F7
:101A1000B795F7959E3F08F0B0CF9395880F08F0E3
:101A20009927EE0F9795879508950E94290D0C949C
:101A30006E0C0E94670C58F00E94600C40F029F474
:101A40005F3F29F00C94570C51110C94A20C0C948C
:101A50005D0C0E947F0C68F39923B1F3552391F339
:101A6000951B550BBB27AA2762177307840738F00D
:101A70009F5F5F4F220F331F441FAA1FA9F335D06A
:101A80000E2E3AF0E0E832D091505040E695001C1E
:101A9000CAF72BD0FE2F29D0660F771F881FBB1FD8
:101AA000261737074807AB07B0E809F0BB0B802DB6
:101AB000BF01FF2793585F4F3AF09E3F510578F0E2
:101AC0000C94570C0C94A20C5F3FE4F3983ED4F3B3
:101AD000869577956795B795F7959F5FC9F7880FB6
:101AE000911D9695879597F90895E1E0660F771F08
:101AF000881FBB1F621773078407BA0720F0621B99
:101B0000730B840BBA0BEE1F88F7E09508950E94C3
:101B1000870C88F09F5798F0B92F9927B751B0F0EC
:101B2000E1F0660F771F881F991F1AF0BA95C9F761
:101B300014C0B13091F00E94A10CB1E008950C9452
:101B4000A10C672F782F8827B85F39F0B93FCCF305
:101B5000869577956795B395D9F73EF490958095DE
:101B6000709561957F4F8F4F9F4F08950E94C60BD0
:101B700008F48FEF08950E94C60B880B990B089507
:101B8000A1E21A2EAA1BBB1BFD010DC0AA1FBB1F81
:101B9000EE1FFF1FA217B307E407F50720F0A21BF3
:101BA000B30BE40BF50B661F771F881F991F1A9460
:101BB00069F760957095809590959B01AC01BD018A
:101BC000CF010895EE0FFF1F881F8BBF0790F6917E
:101BD000E02D19940F931F93CF93DF9382309105DB
:101BE00010F482E090E0E0914303F091440330E090
:101BF00020E0B0E0A0E0309799F42115310509F418
:101C00004AC0281B390B24303105D8F58A819B81C5
:101C10006115710589F1FB0193838283FE0111C077
:101C2000408151810281138148175907E0F048171C
:101C3000590799F4109761F012960C931297139626
:101C40001C933296CF01DF91CF911F910F91089590
:101C50000093430310934403F4CF2115310551F051
:101C60004217530738F0A901DB019A01BD01DF01DA
:101C7000F801C1CFEF01F9CF909344038093430360
:101C8000CDCFFE01E20FF31F8193919322503109D2
:101C900039832883D7CF2091410330914203232BEE
:101CA00041F420911A0230911B0230934203209399
:101CB000410320911802309119022115310541F498
:101CC0002DB73EB740911C0250911D02241B350BCD
:101CD000E0914103F0914203E217F307A0F42E1BB9
:101CE0003F0B2817390778F0AC014E5F5F4F241780
:101CF000350748F04E0F5F1F509342034093410356
:101D0000819391939FCFF0E0E0E09CCFCF93DF935E
:101D10000097E9F0FC01329713821282A0914303ED
:101D2000B0914403ED0130E020E01097A1F4208150
:101D30003181820F931F2091410330914203281774
:101D4000390709F061C0F0934203E0934103DF914A
:101D5000CF910895EA01CE17DF07E8F54A815B814C
:101D60009E0141155105B1F7E901FB83EA834991D1
:101D70005991C40FD51FEC17FD0761F48081918143
:101D80000296840F951FE90199838883828193814C
:101D90009B838A83F0E0E0E012968D919C911397EB
:101DA0000097B9F52D913C911197CD010296820FC4
:101DB000931F20914103309142032817390739F6C8
:101DC000309751F51092440310924303B0934203AD
:101DD000A0934103BCCFD383C28340815181840F40
:101DE000951FC817D90761F44E5F5F4F88819981AD
:101DF000480F591F518340838A819B81938382833B
:101E00002115310509F0B0CFF0934403E09343036B
:101E10009ECFFD01DC01C0CF13821282D7CF4F923B
:101E20005F926F927F928F929F92AF92BF92CF926A
:101E3000DF92EF92FF920F931F93CF93DF938C016A
:101E4000009799F4CB01DF91CF911F910F91FF90F3
:101E5000EF90DF90CF90BF90AF909F908F907F904A
:101E60006F905F904F900C94EA0DFC01E60FF71F06
:101E70009C0122503109E217F30708F4AEC0D901E2
:101E8000CD91DC911197C617D70720F1C530D10548
:101E900078F0CE0104978617970750F0C61BD70B32
:101EA0002297C193D1936D937C93CF010E94860EAC
:101EB000C801DF91CF911F910F91FF90EF90DF90BC
:101EC000CF90BF90AF909F908F907F906F905F90DA
:101ED0004F9008955B01AC1ABD0A4C018C0E9D1EFB
:101EE000A0914303B0914403512C412CF12CE12CDF
:101EF000109731F58091410390914203881599051F
:101F000009F05CC04616570608F058C080911802C8
:101F100090911902009741F48DB79EB740911C0231
:101F200050911D02841B950BE817F90708F055C066
:101F3000F0934203E0934103F90171836083B8CFCA
:101F40008D919C91119712966C90129713967C909C
:101F50001397A815B90559F56C0142E0C40ED11CC0
:101F6000CA14DB0420F1AC014A195B09DA011296AC
:101F7000159780F06282738251834083D9016D93FB
:101F80007C93E114F10471F0D7011396FC93EE9366
:101F900012978ECF22968C0F9D1FF901918380831B
:101FA000F301EFCFF0934403E093430381CF48164E
:101FB000590608F42C017D01D3019ACFCB010E9470
:101FC000EA0D7C01009749F0AE01B8010E94F00FC4
:101FD000C8010E94860E87016BCF10E000E068CF39
:101FE000FB01DC0102C001900D9241505040D8F736
:101FF0000895FB01DC0101900D920020E1F70895A6
:04200000F894FFCF82
:102004002B2C2D2E2728292A3738392F3435362AD8
:102014003132332D63303D2B000045038000000036
:1020240000002903E902B802000000003D05FB019D
:10203400A40352036E616E00696E66006F766600DB
:00000001FF
