:100000000C9441010C9472010C9472010C947201D5
:100010000C9472010C9472010C9472010C94720194
:100020000C9472010C9472010C9472010C94720184
:100030000C9472010C9472010C9472010C94720174
:100040000C9472010C9472010C9472010C94720164
:100050000C9472010C9472010C9472010C945E0762
:100060000C9472010C9428070C94FE060C947201F7
:100070000C9472010C9472010C9472010C94720134
:100080000C9472010C9472010C9472010C94720124
:100090000C9472010C9472010C9472010C94720114
:1000A0000C9472010C9472010C9472010C94720104
:1000B0000C9472010C9472010C9472010C947201F4
:1000C0000C9472010C9472010C9472010C947201E4
:1000D0000C9472010C9472010C9472010C947201D4
:1000E0000C9472010C9482030C9459030C949704A1
:1000F0000C948C030C94A8070C9490030C94740338
:100100000C9443020C9467030C9494030C947803AE
:100110000C946B030C94CB030C949A030C943C0446
:100120000C949E030C9457020C94EA020C94650202
:100130000C945F030C9498040C9499030C949D0206
:100140000C9407020C94FC030C9463030C947E0340
:100150000C9486030C94F8060C946E030C943402F1
:1001600000002100240027002A002D003000330069
:1001700001010000040107010A010000220025001E
:1001800028002B002E003100340002010000050180
:1001900008010B01000020002300260029002C008C
:1001A0002F003200000100000301060109010505CE
:1001B0000505070508080808020202020A0A0808DD
:1001C000040404040101010101010101030303030B
:1001D00003030303040707070C0C0C0C0C0C0C0C9A
:1001E0000202020206060606060606060B0B0B0BAB
:1001F0000B0B0B0B010210202008081020401020D0
:1002000040800201020108040201010204081020DA
:1002100040808040201008040201800402018040D8
:100220002010080402010804020101020408102041
:100230004080010204081020408000000A0B0209DF
:100240000C0D0E0807030401000000000000000070
:10025000000000000000000000000000000000009E
:10026000000000000000121110000000000000005B
:10027000000000000000000000000000000000007E
:10028000A80711241FBECFEFD1E2DEBFCDBF00E033
:100290000CBF23E0A2E9B2E001C01D92A73CB20767
:1002A000E1F712E0A0E0B2E0EAE1FBE100E00BBF21
:1002B00002C007900D92A239B107D9F711E0C1E44D
:1002C000D1E000E006C021970109802FFE010E94C5
:1002D0006D0BC034D10780E00807A9F70E946108C0
:1002E0000C948B0D0C94000096E0899FD001112492
:1002F000A45CBC4F90967C936E935F9791E091962F
:100300009C939197E091A903F091AA039091A8037F
:10031000992339F0309751F0811108C0809158032A
:100320001994309719F05C968C91FACF0895CF927A
:10033000DF92EF92FF920F931F9396E0899FF00157
:100340001124E45CFC4F11A2278D30A1213031052E
:1003500051F178F02230310509F451C023303105D4
:1003600009F452C01F910F91FF90EF90DF90CF9052
:1003700008956623B9F361E070E00E9474012FB71D
:10038000F89480919B0290919C02A0919D02B09163
:100390009E022FBF8093940390939503A09396039E
:1003A000B0939703DFCF9FB7F894C0909B02D09093
:1003B0009C02E0909D02F0909E029FBF00919403EA
:1003C000109195032091960330919703C01AD10A9A
:1003D000E20AF30A0091A6031091A70330E020E09F
:1003E0000C151D052E053F0550F462E070E01F91CD
:1003F0000F91FF90EF90DF90CF900C9474016111FA
:10040000B1CF63E070E0F3CF70E060E0F0CFAF9287
:10041000BF92CF92DF92EF92FF920F931F93CF93F1
:10042000DF936C017B018B01040F151FEB015E0153
:10043000AE18BF08C017D10759F06991D601ED91E8
:10044000FC910190F081E02DC6011995892B79F777
:10045000C501DF91CF911F910F91FF90EF90DF9039
:10046000CF90BF90AF900895FC01538D448D252F00
:1004700030E0842F90E0821B930B541710F0CF963E
:10048000089501970895FC01918D828D981761F070
:10049000A28DAE0FBF2FB11D5D968C91928D9F5F87
:1004A0009F73928F90E008958FEF9FEF0895FC0166
:1004B000918D828D981731F0828DE80FF11D858D19
:1004C00090E008958FEF9FEF0895FC01918D228DAC
:1004D000892F90E0805C9F4F821B91098F73992731
:1004E00008958FE992E00E94650221E0892B09F4CA
:1004F00020E0822F0895FC01A48DA80FB92FB11D13
:10050000A35ABF4F2C91848D90E001968F73992749
:10051000848FA689B7892C93A089B1898C91837027
:1005200080648C93938D848D981306C00288F38920
:10053000E02D80818F7D80830895EF92FF920F934D
:100540001F93CF93DF93EC0181E0888F9B8D8C8D7F
:1005500098131AC0E889F989808185FF15C09FB773
:10056000F894EE89FF896083E889F9898081837036
:10057000806480839FBF81E090E0DF91CF911F91E5
:100580000F91FF90EF900895F62E0B8D10E00F5F06
:100590001F4F0F731127E02E8C8D8E110CC00FB6DC
:1005A00007FCFACFE889F989808185FFF5CFCE0174
:1005B0000E947B02F1CFEB8DEC0FFD2FF11DE35A72
:1005C000FF4FF0829FB7F8940B8FEA89FB898081F7
:1005D0008062CFCFCF93DF93EC01888D8823B9F071
:1005E000AA89BB89E889F9898C9185FD03C080813E
:1005F00086FD0DC00FB607FCF7CF8C9185FFF2CFBB
:10060000808185FFEDCFCE010E947B02E9CFDF9193
:10061000CF91089580E090E0892B29F00E9471022B
:1006200081110E94000080E090E0892B49F080E079
:1006300090E0892B29F00E94000081110E940000A7
:1006400080E090E0892B49F080E090E0892B29F050
:100650000E94000081110E94000080E090E0892B40
:1006600049F080E090E0892B29F00E940000811180
:100670000C94000008958150823108F05AC0E82F90
:10068000F0E08827E95BFC4F8F4F0C946D0B6703FC
:100690006B0359035F03630399036E0374037803C9
:1006A0007E03820386038C039003990394039A03C9
:1006B0009E03809180008F778093800008958091C1
:1006C00080008F7DF9CF80918000877FF5CF84B542
:1006D0008F7784BD089584B58F7DFBCF8091B00066
:1006E0008F778093B00008958091B0008F7DF9CF0F
:1006F000809190008F778093900008958091900072
:100700008F7DF9CF80919000877FF5CF8091A000F9
:100710008F778093A00008958091A0008F7DF9CFFE
:100720008091A000877FF5CF809120018F77809303
:1007300020010895809120018F7DF9CF80912001C3
:10074000877FF5CFCF93DF93282F30E0F901E65C68
:10075000FD4F8491F901EC50FE4FD491F901E2551F
:10076000FE4FC491CC23A1F081110E943B03EC2FDA
:10077000F0E0EE0FFF1FEC56FE4FA591B491EC9107
:10078000ED2381E090E009F480E0DF91CF910895BE
:1007900080E090E0FACF862F0C94A2031F93CF93B2
:1007A000DF93282F30E0F901E65CFD4F8491F901D9
:1007B000EC50FE4FD491F901E255FE4FC491CC2389
:1007C000A9F0162F81110E943B03EC2FF0E0EE0FF1
:1007D000FF1FE658FE4FA591B4918FB7F894EC91A6
:1007E000111108C0D095DE23DC938FBFDF91CF912C
:1007F0001F910895DE2BF8CF862F642F0C94CE0323
:10080000CF93DF9390E0FC01EC50FE4F2491825592
:100810009E4FFC0184918823C9F090E0880F991FB6
:10082000FC01E05AFE4FA591B491FC01E658FE4F41
:10083000C591D49161110DC09FB7F8948C9120950A
:1008400082238C938881282328839FBFDF91CF91B7
:100850000895623051F49FB7F8943C91822F8095AF
:1008600083238C93E8812E2BEFCF8FB7F894EC91F4
:100870002E2B2C938FBFEACF862F642F0C9400046D
:100880003FB7F8948091930290919402A0919502C1
:10089000B091960226B5A89B05C02F3F19F001968E
:1008A000A11DB11D3FBFBA2FA92F982F8827BC01CA
:1008B000CD01620F711D811D911D42E0660F771FF2
:1008C000881F991F4A95D1F708958F929F92AF92F2
:1008D000BF92CF92DF92EF92FF924B015C010E9498
:1008E00040046B017C010E9440046C197D098E0953
:1008F0009F09683E734081059105A8F321E0821AA3
:100900009108A108B10888EEC80E83E0D81EE11C4A
:10091000F11C81149104A104B10429F7FF90EF9018
:10092000DF90CF90BF90AF909F908F9008950895E3
:1009300090E080E00895062E000C770B605371095B
:1009400067307105E9F06830710571F16930710542
:1009500071F16430710571F16530710581F16630B6
:10096000710581F16130710581F16230710591F19C
:1009700022E030E06330710551F18FEF9FEF089571
:1009800030E020E070E060E0FB01EE0FFF1FE60FBB
:10099000F71FE050FE4FE20FF31F90819D32E9F404
:1009A000808390E080E0089521E030E0EBCF22E00A
:1009B00030E0E8CF30E020E061E070E0E5CF21E01A
:1009C00030E0FACF22E030E0F7CF30E020E062E024
:1009D00070E0DACF21E030E0D7CF8EEF9FEF0895BF
:1009E000282F9091000280910102981307C0309146
:1009F0000202931303C0921709F440C050910302FE
:100A000030910402531306C040910502541302C0F2
:100A10005217A1F14091060260910702461306C0E9
:100A200070910802471302C0421741F1951304C0A8
:100A3000941302C0921711F1831304C0861302C0ED
:100A40008217E1F08091020240910502841306C0F2
:100A500040910802841302C0821781F0931306C0EC
:100A600040910802941302C0921741F0361304C05B
:100A7000381302C081E0321380E0089581E00895C8
:100A8000FC0101900020E9F73197AF01481B590B99
:100A9000BC018BEA93E00C940702EF92FF920F9354
:100AA0001F93CF93DF93EC017B018A0188819981A9
:100AB000009729F02A813B812417350788F4B80173
:100AC0006F5F7F4F0E949A0C009791F09983888303
:100AD0001B830A832C813D81232B11F4FC0110829E
:100AE0001D830C83B701888199810E94840D0CC0FD
:100AF00088819981009711F00E94110C1982188247
:100B00001D821C821B821A82CE01DF91CF911F9120
:100B10000F91FF90EF900895CF93DF93EC0160E089
:100B20008E810E94CE0361E08E810E94CE0360E040
:100B30008E810E94CE038BE891E00197F1F7DF915F
:100B4000CF910895CF92DF92EF92FF920F931F9370
:100B5000CF93DF936C017C0187E0E80EF11CD0E0BD
:100B6000C0E0062F10E0B8010C2E02C07595679505
:100B70000A94E2F76170F70181917F010E94CE0330
:100B80002196C430D10579F7C601DF91CF911F912D
:100B90000F91FF90EF90DF90CF900C948C05CF9247
:100BA000DF92EF92FF920F931F93CF93DF93EC01AD
:100BB000F62E642F8C810E94CE038D818F3F19F019
:100BC00060E00E94CE030F2D10E08F8584FF25C0CA
:100BD0006E0187E0C80ED11CF12CE12CB8010E2C5F
:100BE00002C0759567950A94E2F76170F6018191EC
:100BF0006F010E94CE03FFEFEF1AFF0A88E0E816AC
:100C0000F10461F7CE01DF91CF911F910F91FF9019
:100C1000EF90DF90CF900C948C05B80184E075952F
:100C200067958A95E1F7CE010E94A2056F2DCE014E
:100C3000DF91CF911F910F91FF90EF90DF90CF90B8
:100C40000C94A20540E0682F8BEA93E00C94CF054A
:100C500081E00E9422068BE39FE10197F1F708955E
:100C6000CF93DF93813029F09091BA0398609093ED
:100C7000BA038093BE031092BF0380E48093C00345
:100C800080E18093C10380E58093C20361E080919D
:100C9000AF030E9400048091B0038F3F19F061E020
:100CA0000E94000461E08091B1030E940004CBEA3D
:100CB000D3E09E012B5A33408091BA0384FD0BC0D0
:100CC00084E090E021962817390744F461E08E8192
:100CD0000E940004EECF88E090E0F4CF8BE39DE02B
:100CE0000197F1F760E08091AF030E94CE0360E0CE
:100CF0008091B1030E94CE038091B0038F3F19F021
:100D000060E00E94CE038091BA0384FD34C063E0AA
:100D10008BEA93E00E94A205CBE4D6E4CE010197D2
:100D2000F1F763E08BEA93E00E94A2052197F1F7C7
:100D300063E08BEA93E00E94A20583E592E00197CD
:100D4000F1F762E08BEA93E00E94A2058091BA037A
:100D500080620E94220684E08093BB038CE00E94A4
:100D600022060E94280682E08093BC0386E0DF9181
:100D7000CF910C94220680620E9422068BE496E4B6
:100D80000197F1F78091BA0380620E94220683E501
:100D900092E00197F1F78091BA0380620E942206E7
:100DA000D5CF643009F463E09091BE03691710F069
:100DB0006FEF690FE62FF0E0E555FC4F9489890F3E
:100DC00080680C942206CF93DF93EC0164E082E00C
:100DD0000E94D10664E082E00E94D1064C815D81D0
:100DE000688179818BEA93E0DF91CF910C940702BF
:100DF00041E00E94CF0581E090E008951F920F929C
:100E00000FB60F9211240BB60F922F933F934F936F
:100E10005F936F937F938F939F93AF93BF93EF9362
:100E2000FF938FE992E00E947B02FF91EF91BF91C7
:100E3000AF919F918F917F916F915F914F913F9172
:100E40002F910F900BBE0F900FBE0F901F90189513
:100E50001F920F920FB60F9211240BB60F922F9381
:100E60008F939F93EF93FF93E091AF02F091B002C5
:100E70008081E091B502F091B60282FD1DC09081A3
:100E80008091B8028F5F8F732091B902821741F071
:100E9000E091B802F0E0E156FD4F958F8093B802E3
:100EA000FF91EF919F918F912F910F900BBE0F901B
:100EB0000FBE0F901F9018958081F2CF1F920F9256
:100EC0000FB60F9211242F933F938F939F93AF935D
:100ED000BF9380919B0290919C02A0919D02B09142
:100EE0009E023091920223E0230F2D3758F5019690
:100EF000A11DB11D2093920280939B0290939C02AE
:100F0000A0939D02B0939E028091930290919402CF
:100F1000A0919502B09196020196A11DB11D8093FA
:100F2000930290939402A0939502B0939602BF917E
:100F3000AF919F918F913F912F910F900FBE0F9086
:100F40001F90189526E8230F0296A11DB11DD2CF40
:100F50001092A2021092A10288EE93E0A0E0B0E00D
:100F60008093A3029093A402A093A502B093A6023B
:100F70008BE292E09093A00280939F0285EC90E038
:100F80009093AC028093AB0284EC90E09093AE021D
:100F90008093AD0280EC90E09093B0028093AF021A
:100FA00081EC90E09093B2028093B10282EC90E0E9
:100FB0009093B4028093B30286EC90E09093B602D3
:100FC0008093B5021092B8021092B9021092BA0240
:100FD0001092BB021092AE031092AD0387E492E030
:100FE0009093AC038093AB0380E28093AF038FEFC9
:100FF0008093B00381E28093B10382E28093B203D5
:1010000083E28093B30384E28093B40385E2809308
:10101000B5031092B6031092B7031092B803109262
:10102000B9031092BA0381E00E94300610923E0389
:101030001092420310924103109243038DE392E019
:1010400090933D0380933C03E8E5F3E01082148223
:1010500013821582369683E0E439F807B9F78DE0FC
:1010600092E090939F0380939E0389E092E0909397
:10107000A1038093A00384E08093A2038093A30341
:1010800081E192E090939D0380939C038AE090E03D
:101090009093A5038093A40384EF91E09093A7031A
:1010A0008093A6031092AA031092A90310929803AA
:1010B0001092990310929A0310929B031092A80326
:1010C0000895CF93DF9300D000D0CDB7DEB77894EA
:1010D00084B5826084BD84B5816084BD85B582603D
:1010E00085BD85B5816085BD80916E0081608093EE
:1010F0006E00109281008091810082608093810057
:101100008091810081608093810080918000816066
:10111000809380008091B10084608093B1008091C1
:10112000B00081608093B0008091910082608093D4
:101130009100809191008160809391008091900056
:101140008160809390008091A10082608093A100D3
:101150008091A10081608093A1008091A0008160B6
:101160008093A00080912101826080932101809171
:101170002101816080932101809120018160809311
:10118000200180917A00846080937A0080917A00B7
:10119000826080937A0080917A00816080937A00E7
:1011A00080917A00806880937A001092C10084E078
:1011B0000E9430060E94280661E085E00E9400043B
:1011C00061E084E00E94000461E083E00E9400048A
:1011D000E091AF02F091B00282E08083E091AB0237
:1011E000F091AC021082E091AD02F091AE028FEC72
:1011F00080831092B702E091B302F091B40286E0CE
:101200008083E091B102F091B2028081806180839D
:10121000E091B102F091B202808188608083E09118
:10122000B102F091B202808180688083E091B102C6
:10123000F091B20280818F7D8083812C912C5401AA
:10124000839446E0442E50909A025110ABC1009115
:1012500098021091990200FD0AC261E083E00E94A9
:10126000CE0381E08093A8038FB7F89440919B024E
:1012700050919C0260919D0270919E028FBF80915F
:10128000980390919903A0919A03B0919B03481BF6
:10129000590B6A0B7B0B8091A4039091A503B0E0DE
:1012A000A0E084179507A607B70708F07EC110E0F5
:1012B0008091A203181760F4E0919E03F0919F03C0
:1012C000E10FF11D62E080810E9400041F5FF0CFFA
:1012D000312C8091A303381608F062C0032D10E072
:1012E000E091A003F091A103E00FF11F61E0808184
:1012F0000E940004E091A003F091A103E00FF11F10
:1013000060E080810E94CE03D501C401032C04C09B
:10131000880F991FAA1FBB1F0A94D2F73C017C01BA
:10132000E094F094212C8091A203281610F5C22C91
:10133000D12CE0919E03F0919F03EC0DFD1D808167
:101340000E94A20396012C5F3F4FF901EE0FFF1F91
:10135000E45CFC4F892B41F4808191818629972997
:10136000918380832394DFCF808191818E219F217F
:10137000F7CFE091A003F091A103E00FF11F61E02E
:1013800080810E94CE038091A0039091A103080F59
:10139000191F60E0F80180810E940004339499CF06
:1013A0000CE313E07801F701878D90A1892B31F4CC
:1013B000148E2FEF3FEF368F258F11A236E0E30E0C
:1013C000F11C88E7E81683E0F80669F7712C809134
:1013D000A203781608F052C0612CC72CD12CCC0C7B
:1013E000DD1CF601EC5BFC4F6F012091A30362163C
:1013F00008F042C0F60160817181062C02C076952A
:1014000067950A94E2F7729E90011124260D311D12
:10141000ECE3F3E080E0458D568D2417350709F4A1
:101420005AC18F5F36968A30B1F760FF23C0ECE374
:10143000F3E090E080E0448D411117C0E0919C03FF
:10144000F0919D03E20FF31F4081489EF001499EF9
:10145000F00D1124E45CFC4F448F368F258F10A2D1
:10146000178E61E00E94970105C0019636968A307A
:10147000910509F76394B9CF7394A9CFF80181A1BD
:101480008111582E0A5F1F4FE016F106B9F72FB7EA
:10149000F89480919B0290919C02A0919D02B09142
:1014A0009E022FBF8093980390939903A0939A0371
:1014B000B0939B03552009F478C080915D03882385
:1014C00009F473C080915B0390915C03019709F06C
:1014D0006CC01091580311116BC088E50E94F00494
:1014E000811116C08FE40E94F004811111C0E0E068
:1014F000F2E090819D3261F091819D3249F09281BC
:101500009D3231F0339632E0E930F30791F781E014
:1015100080939A0280919702811144C00E9428060C
:1015200080E0C82E82E0D82EF12CE12C10E000E003
:101530006E2D802F0E94D10641E0F601E00FF11FD1
:1015400060818BEA93E00E94CF05E114F10409F079
:10155000AAC00230110509F0AFC080919A02811132
:1015600008C08091980280FD9BC083E692E00E94B3
:1015700040059FEFE91AF90AE3E0CE0ED11CF3E033
:10158000EF16F10499F663E080E00E94D1068091A5
:101590009A02882321F086E892E00E94400581E0CB
:1015A000809397020E940A034ECE1092A80395CF13
:1015B000612F8FE40E949B04009719F5612F8FE93A
:1015C00092E00E949D02809198029091990201966A
:1015D00090939902809398021092970260E083E0C2
:1015E0000E94CE0361E084E00E94CE0364EF71E0CC
:1015F00080E090E00E94650460E084E00E94CE03F9
:101600006CCF8F3F980729F51A8219821C821B82A2
:101610001E821D8249E050E06FE472E0CE01019627
:101620000E944D05CE0101960E94E30689819A81B0
:10163000009711F00E94110C61E085E00E94CE033A
:1016400068EC70E080E090E00E94650460E085E076
:10165000D5CF029609F041CF1A8219821C821B82D3
:101660001E821D8249E050E069E572E0D7CF8FE924
:1016700092E00E946502181619060CF02ECF8FE931
:1016800092E00E944302682F88E50E949B040F5F4E
:101690001F4F1093990200939802109297021DCF4A
:1016A0008DE692E064CF81E0E816F10461F487E70B
:1016B00092E00230110561F00F5F1F4F03301105FA
:1016C00009F036CF56CF02301105B1F783E892E02A
:1016D0000E944005F1CF6170C5CEEE0FFF1F881F3D
:1016E0008BBF0790F691E02D19940F931F93CF9322
:1016F000DF938230910510F482E090E0E091C50321
:10170000F091C60330E020E0B0E0A0E0309799F41B
:101710002115310509F44AC0281B390B2430310545
:10172000D8F58A819B816115710589F1FB0193834D
:101730008283FE0111C040815181028113814817CB
:101740005907E0F04817590799F4109761F012967D
:101750000C93129713961C933296CF01DF91CF9181
:101760001F910F9108950093C5031093C603F4CF02
:101770002115310551F04217530738F0A901DB015B
:101780009A01BD01DF01F801C1CFEF01F9CF9093BC
:10179000C6038093C503CDCFFE01E20FF31F8193F3
:1017A00091932250310939832883D7CF2091C303E5
:1017B0003091C403232B41F4209123023091240261
:1017C0003093C4032093C30320912102309122025D
:1017D0002115310541F42DB73EB7409125025091B6
:1017E0002602241B350BE091C303F091C403E217DA
:1017F000F307A0F42E1B3F0B2817390778F0AC0134
:101800004E5F5F4F2417350748F04E0F5F1F509310
:10181000C4034093C303819391939FCFF0E0E0E032
:101820009CCFCF93DF930097E9F0FC0132971382AE
:101830001282A091C503B091C603ED0130E020E013
:101840001097A1F420813181820F931F2091C3034F
:101850003091C4032817390709F061C0F093C4031D
:10186000E093C303DF91CF910895EA01CE17DF071C
:10187000E8F54A815B819E0141155105B1F7E90107
:10188000FB83EA8349915991C40FD51FEC17FD07DB
:1018900061F4808191810296840F951FE9019983FB
:1018A0008883828193819B838A83F0E0E0E01296B3
:1018B0008D919C9113970097B9F52D913C911197BB
:1018C000CD010296820F931F2091C3033091C40370
:1018D0002817390739F6309751F51092C603109240
:1018E000C503B093C403A093C303BCCFD383C28307
:1018F00040815181840F951FC817D90761F44E5F4D
:101900005F4F88819981480F591F518340838A8195
:101910009B81938382832115310509F0B0CFF09329
:10192000C603E093C5039ECFFD01DC01C0CF138247
:101930001282D7CF4F925F926F927F928F929F9237
:10194000AF92BF92CF92DF92EF92FF920F931F93CD
:10195000CF93DF938C01009799F4CB01DF91CF9166
:101960001F910F91FF90EF90DF90CF90BF90AF90BD
:101970009F908F907F906F905F904F900C94750B1D
:10198000FC01E60FF71F9C0122503109E217F30713
:1019900008F4AEC0D901CD91DC911197C617D707D5
:1019A00020F1C530D10578F0CE010497861797074E
:1019B00050F0C61BD70B2297C193D1936D937C93A4
:1019C000CF010E94110CC801DF91CF911F910F919F
:1019D000FF90EF90DF90CF90BF90AF909F908F904F
:1019E0007F906F905F904F9008955B01AC1ABD0A95
:1019F0004C018C0E9D1EA091C503B091C603512CC5
:101A0000412CF12CE12C109731F58091C30390917A
:101A1000C4038815990509F05CC04616570608F0FE
:101A200058C08091210290912202009741F48DB715
:101A30009EB74091250250912602841B950BE81712
:101A4000F90708F055C0F093C403E093C303F9010C
:101A500071836083B8CF8D919C91119712966C9091
:101A6000129713967C901397A815B90559F56C0138
:101A700042E0C40ED11CCA14DB0420F1AC014A19A7
:101A80005B09DA011296159780F0628273825183A6
:101A90004083D9016D937C93E114F10471F0D70177
:101AA0001396FC93EE9312978ECF22968C0F9D1F68
:101AB000F90191838083F301EFCFF093C603E093A4
:101AC000C50381CF4816590608F42C017D01D301C6
:101AD0009ACFCB010E94750B7C01009749F0AE01B3
:101AE000B8010E947B0DC8010E94110C87016BCFC9
:101AF00010E000E068CFFB01DC0102C001900D9214
:101B000041505040D8F70895FB01DC0101900D923F
:0A1B10000020E1F70895F894FFCFDC
:101B1A002D2D2D2D2D2D2D2D2D090807060D0C0BE4
:101B2A000A3738392F343536783132332D2A302373
:101B3A002B0000C7038000000000009D020702344A
:101B4A0002EA02650243025702000000003C04FC5C
:101B5A0003CB0300000000F8060702980497044E1E
:101B6A006F742076616C6964004E6F7420656D70C5
:101B7A00747900207C5475726E3A204F00207C5490
:101B8A0075726E3A205800207C596F752061726513
:101B9A00204F00207C0047616D65206F76657221B9
:021BAA00000039
:00000001FF
