:100000000C9422010C9453010C9453010C94530151
:100010000C9453010C9453010C9453010C94530110
:100020000C9453010C9453010C9453010C94530100
:100030000C9453010C9453010C9453010C945301F0
:100040000C9453010C9453010C9453010C945301E0
:100050000C9453010C9453010C9453010C946304BD
:100060000C9453010C9453010C9453010C945301C0
:100070000C9453010C9453010C9453010C945301B0
:100080000C9453010C9453010C9453010C945301A0
:100090000C9453010C9453010C9453010C94AD0433
:1000A0000C9453010C9453010C9453010C94530180
:1000B0000C9453010C9453010C9453010C94530170
:1000C0000C9453010C9453010C9453010C94530160
:1000D0000C9453010C9453010C9453010C94530150
:1000E0000C9453010C941D020C94E8010C94E80349
:1000F0000C9401020C94F0010C9423020C94A402C1
:100100000C9419020C94D6010C9474010C94F40113
:100110000C9415020C94CD050C94FD010C94520224
:100120000C9407020C94D1010C940F020C94F7016B
:100130000C9427020C94EC010C940B0200000A0BA7
:1001400002090C0D0E080703040100000000000066
:10015000000000000000000000000000000000009F
:10016000000000000000000012111000000000005C
:10017000000000000000000000000000000000007F
:10018000000000002200250028002B002E00310076
:10019000340002010000050108010B0100002100EC
:1001A000240027002A002D00300033000101000048
:1001B000040107010A0105050505070508080808E7
:1001C000020202020A0A08080404040401010101EF
:1001D00001010101030303030303030304070707EA
:1001E0000C0C0C0C0C0C0C0C02020202060606068F
:1001F000060606060B0B0B0B0B0B0B0B010210205C
:10020000200808102040102040800201020108044C
:1002100002010102040810204080804020100804E0
:100220000201800402018040201008040201080439
:10023000020101020408102040800102040810207D
:100240004080CD0511241FBECFEFD1E2DEBFCDBF70
:1002500000E00CBF22E0AAE1B2E001C01D92A03B89
:10026000B207E1F712E0A0E0B2E0E6EEF1E100E073
:100270000BBF02C007900D92AA31B107D9F711E068
:10028000C2E2D1E000E006C021970109802FFE0103
:100290000E94D306C132D10780E00807A9F70E9467
:1002A000EB050C94F1080C94000090E0FC01E45084
:1002B000FE4F24918A549E4FFC018491882399F02B
:1002C00090E0880F991FFC01E456FE4FA591B49170
:1002D000FC01EE57FE4F859194918FB7F894EC9105
:1002E000E22BEC938FBF0895AF92BF92CF92DF9233
:1002F000EF92FF920F931F93CF93DF936C017B01DB
:100300008B01040F151FEB015E01AE18BF08C0176B
:10031000D10759F06991D601ED91FC910190F081DE
:10032000E02DC6011995892B79F7C501DF91CF9191
:100330001F910F91FF90EF90DF90CF90BF90AF9003
:100340000895282F30E0F901E45CFE4F9491F90103
:10035000E450FE4F44912A543E4FF9012491222348
:1003600009F435C0992311F191509231F8F4E92F35
:10037000F0E08827E154FE4F8F4F0C94D306F00134
:10038000F401D101E801EC01D601F701FD01010200
:1003900007020B020F0215021902D6011D022302E9
:1003A0002702809180008F7780938000E22FF0E019
:1003B000EE0FFF1FEE57FE4FA591B4918FB7F89443
:1003C000EC91611148C040954E234C938FBF089526
:1003D000809180008F7DE8CF80918000877FE4CF7F
:1003E00084B58F7784BDE2CF84B58F7DFBCF8091BC
:1003F000B0008F778093B000D9CF8091B0008F7D0F
:10040000F9CF809190008F7780939000CFCF80912B
:1004100090008F7DF9CF80919000877FF5CF8091FC
:10042000A0008F778093A000C1CF8091A0008F7D26
:10043000F9CF8091A000877FF5CF809120018F7741
:1004400080932001B3CF809120018F7DF9CF8091DF
:100450002001877FF5CF4E2BB8CF3FB7F89480911E
:10046000900290919102A0919202B091930226B5D0
:10047000A89B05C02F3F19F00196A11DB11D3FBFDC
:10048000BA2FA92F982F8827BC01CD01620F711DAB
:10049000811D911D42E0660F771F881F991F4A95A5
:1004A000D1F70895089520914102260F3327331F75
:1004B00021323105ECF420916502FC0190E080E0EE
:1004C000243069F082E00895A09141022191AC01AD
:1004D0004F5D5D4FA40FB52FB11D2C93019686176C
:1004E00098F380914102680F6093410280E0089583
:1004F00081E0089508958FEF9FEF08958FEF9FEFAC
:10050000089580911A0290E091958195910908953E
:10051000CF93DF93CB01EA01642F0E945302CE01F7
:10052000DF91CF910895CF93DF931F92CDB7DEB7C0
:10053000698361E0CE0101960E94530281E090E060
:100540000F90DF91CF91089590E080E00895CF93D0
:10055000DF93EC0160E08E810E94A10161E08E8159
:100560000E94A10160E08E810E94A1018BE891E0D0
:100570000197F1F7DF91CF910895CF92DF92EF923B
:10058000FF920F931F93CF93DF936C017C0187E061
:10059000E80EF11CD0E0C0E0062F10E0B8010C2EF0
:1005A00002C0759567950A94E2F76170F701819131
:1005B0007F010E94A1012196C430D10579F7C601BF
:1005C000DF91CF911F910F91FF90EF90DF90CF902F
:1005D0000C94A702CF92DF92EF92FF920F931F939A
:1005E000CF93DF93EC01F62E642F8C810E94A10142
:1005F0008D818F3F19F060E00E94A1010F2D10E066
:100600008F8584FF25C06E0187E0C80ED11CF12CB8
:10061000E12CB8010E2C02C0759567950A94E2F79B
:100620006170F60181916F010E94A101FFEFEF1A45
:10063000FF0A88E0E816F10461F7CE01DF91CF915F
:100640001F910F91FF90EF90DF90CF900C94A70235
:10065000B80184E0759567958A95E1F7CE010E940F
:10066000BD026F2DCE01DF91CF911F910F91FF90B1
:10067000EF90DF90CF900C94BD0240E0682F84E9AA
:1006800092E00C94EA0281E00E943D038BE39FE13B
:100690000197F1F70895CF93DF93823029F4909179
:1006A000A30298609093A3028093A7021092A802DD
:1006B00080E48093A90280E18093AA0280E5809380
:1006C000AB02809198020E945501809199028F3F60
:1006D00011F00E94550180919A020E945501C4E9CF
:1006E000D2E09E01245932408091A30284FD0AC0C9
:1006F00084E090E02196281739073CF48E810E940F
:100700005501EFCF88E090E0F5CF8BE39DE00197B6
:10071000F1F760E0809198020E94A10160E0809171
:100720009A020E94A101809199028F3F19F060E026
:100730000E94A1018091A30284FD34C063E084E99A
:1007400092E00E94BD02CBE4D6E4CE010197F1F71E
:1007500063E084E992E00E94BD022197F1F763E033
:1007600084E992E00E94BD0283E592E00197F1F7EF
:1007700062E084E992E00E94BD028091A30280625F
:100780000E943D0384E08093A4028CE00E943D031C
:100790000E94430382E08093A50286E0DF91CF911F
:1007A0000C943D0380620E943D038BE496E4019724
:1007B000F1F78091A30280620E943D0383E592E0FD
:1007C0000197F1F78091A30280620E943D03D5CF8B
:1007D00041E00E94EA0281E090E008951F93CF93E8
:1007E000DF9385ED8093BC0080911D0290911E02E5
:1007F000A0911F02B09120020796A11DB11D23E018
:10080000B695A795979587952A95D1F72091BC0025
:1008100024FD03C01092650252C040911D02509108
:100820001E0260911F0270912002452B462B472B20
:1008300069F30097A105B10541F025E32A95F1F789
:1008400000000197A109B109E1CF80911C02C1E02C
:10085000C0931B02882399F1D091B8001091BA007F
:100860008091BC008A7B8093BC0060E084E10E94A0
:10087000A10160E085E10E94A10110926502C09390
:1008800067021092660261E084E10E94A10161E0CA
:1008900085E10E94A1018091B9008E7F8093B9000B
:1008A0008091B9008D7F8093B90088E48093B8006F
:1008B00085E48093BC001093BA00D093B800DF9118
:1008C000CF911F9108951F920F920FB60F9211248E
:1008D0002F933F938F939F93AF93BF9380918C02FD
:1008E00090918D02A0918E02B0918F0230918B0277
:1008F00023E0230F2D3758F50196A11DB11D20933C
:100900008B0280938C0290938D02A0938E02B09301
:100910008F028091900290919102A0919202B091E9
:1009200093020196A11DB11D8093900290939102B4
:10093000A0939202B0939302BF91AF919F918F9138
:100940003F912F910F900FBE0F901F90189526E8A2
:10095000230F0296A11DB11DD2CF1F920F920FB689
:100960000F9211240BB60F922F933F934F935F93E7
:100970006F937F938F939F93AF93BF93EF93FF9367
:100980008091B900887F803609F44DC008F040C0DE
:10099000883209F4A7C028F5803109F49BC0C8F457
:1009A000882309F4F7C0883009F494C0FF91EF91CF
:1009B000BF91AF919F918F917F916F915F914F9177
:1009C0003F912F910F900BBE0F900FBE0F901F9075
:1009D0001895883109F486C0803241F7809364020B
:1009E00014C0803409F49BC040F48033B9F38833D9
:1009F000E9F68093640285ECAEC0803509F483C0CB
:100A0000883509F494C0883489F60E94EE03CECF6D
:100A1000883909F48AC038F5883729F050F48836C7
:100A200011F0803719F683E080936502109263021B
:100A300055C0883809F479C0803919F0803809F038
:100A4000B5CF80916302803208F06FC0E0916302FD
:100A500081E08E0F809363028091BB00F0E0ED5B3C
:100A6000FD4F80833BC0803B39F0D0F4803A09F4DD
:100A700077C0883A09F09ACF84E08093650210929B
:100A8000420210924102F0E0E0E0199580914102AB
:100A900081110FC081E0809341021092210209C0B0
:100AA000803C09F4A8CF883C09F4A5CF883B09F025
:100AB0007DCFE091420281E08E0F80934202F0E010
:100AC000EF5DFD4F80818093BB0090914202809149
:100AD000410229C080918A028093BB0085EC8093FB
:100AE000BC0064CF9091890280918802981758F5D4
:100AF000E091890281E08E0F80938902F0E0E8594D
:100B0000FD4F8081E9CFE091890281E08E0F8093D3
:100B100089028091BB00F0E0E859FD4F80839091FD
:100B20008902809188029817C8F285E8D8CFE091B1
:100B3000890281E08E0F809389028091BB00F0E0F2
:100B4000E859FD4F80838091670281115ECF81E07B
:100B50008093660284EA8093BC001092650226CFDF
:100B600085EC8093BC001092650280916302803214
:100B700030F4E0916302F0E0ED5BFD4F1082609194
:100B8000630270E083E492E0F0E0E0E019951092F7
:100B900063020CCF1092640238CFE4E9F2E01382D2
:100BA00012828AE092E09183808380E284838FEFD7
:100BB000858381E2868382E2878383E2808784E281
:100BC000818785E2828713861486158616861786A6
:100BD00081E00C944B03789484B5826084BD84B525
:100BE000816084BD85B5826085BD85B5816085BD28
:100BF00080916E00816080936E00109281008091E0
:100C00008100826080938100809181008160809367
:100C10008100809180008160809380008091B1008C
:100C200084608093B1008091B00081608093B000B7
:100C30008091910082608093910080919100816009
:100C400080939100809190008160809390008091CA
:100C5000A10082608093A1008091A10081608093B7
:100C6000A1008091A00081608093A000809121016B
:100C70008260809321018091210181608093210114
:100C80008091200181608093200180917A008460AE
:100C900080937A0080917A00826080937A008091BC
:100CA0007A00816080937A0080917A0080688093D6
:100CB0007A001092C10082E00E944B030E9443031D
:100CC00090E0C92E90E0D92E67E070E090E080E0DF
:100CD0000E940008EC0110E000E0009739F0188253
:100CE00062E172E00E94EA0806E010E0312C0E9406
:100CF0004303E091A7023E1608F453C0E150F0E030
:100D0000EC56FD4F848980680E943D03A801BE0116
:100D100084E992E00E947401780121E0E21AF1086E
:100D20000E942D022B013C0184EF882E992493947C
:100D3000A12CB12C0E942D0264197509860997090E
:100D4000683E734081059105A8F381E0881A9108F7
:100D5000A108B10828EE420E23E0521E611C711C4E
:100D600081149104A104B10429F78CE10E943D0390
:100D70008FEFE81AF80A20E1E216F1048CF281E024
:100D800038120CC0209719F0CE010E947707C114C9
:100D9000D10409F499CF0E94000096CF33243394F4
:100DA000A6CFE32DACCFEE0FFF1F881F8BBF0790A0
:100DB000F691E02D19940F931F93CF93DF93823018
:100DC000910510F482E090E0E091AE02F091AF0264
:100DD00030E020E0B0E0A0E0309799F42115310533
:100DE00009F44AC0281B390B24303105D8F58A8113
:100DF0009B816115710589F1FB0193838283FE015B
:100E000011C0408151810281138148175907E0F0D8
:100E10004817590799F4109761F012960C9312979E
:100E200013961C933296CF01DF91CF911F910F91B2
:100E300008950093AE021093AF02F4CF211531054F
:100E400051F04217530738F0A901DB019A01BD01A7
:100E5000DF01F801C1CFEF01F9CF9093AF0280938A
:100E6000AE02CDCFFE01E20FF31F8193919322508A
:100E7000310939832883D7CF2091AC023091AD025C
:100E8000232B41F420910202309103023093AD02F2
:100E90002093AC022091000230910102211531050E
:100EA00041F42DB73EB74091040250910502241B36
:100EB000350BE091AC02F091AD02E217F307A0F41C
:100EC0002E1B3F0B2817390778F0AC014E5F5F4FA0
:100ED0002417350748F04E0F5F1F5093AD02409323
:100EE000AC02819391939FCFF0E0E0E09CCFCF9351
:100EF000DF930097E9F0FC01329713821282A091F0
:100F0000AE02B091AF02ED0130E020E01097A1F405
:100F100020813181820F931F2091AC023091AD026C
:100F20002817390709F061C0F093AD02E093AC02D5
:100F3000DF91CF910895EA01CE17DF07E8F54A81E6
:100F40005B819E0141155105B1F7E901FB83EA83FD
:100F500049915991C40FD51FEC17FD0761F48081A9
:100F600091810296840F951FE9019983888382817C
:100F700093819B838A83F0E0E0E012968D919C91AF
:100F800013970097B9F52D913C911197CD010296D9
:100F9000820F931F2091AC023091AD0228173907C0
:100FA00039F6309751F51092AF021092AE02B0931D
:100FB000AD02A093AC02BCCFD383C28340815181E8
:100FC000840F951FC817D90761F44E5F5F4F888162
:100FD0009981480F591F518340838A819B81938354
:100FE00082832115310509F0B0CFF093AF02E09371
:100FF000AE029ECFFD01DC01C0CF13821282D7CF9B
:101000004F925F926F927F928F929F92AF92BF9218
:10101000CF92DF92EF92FF920F931F93CF93DF93C4
:101020008C01009799F4CB01DF91CF911F910F9123
:10103000FF90EF90DF90CF90BF90AF909F908F90F8
:101040007F906F905F904F900C94DB06FC01E60F51
:10105000F71F9C0122503109E217F30708F4AEC0D4
:10106000D901CD91DC911197C617D70720F1C53072
:10107000D10578F0CE0104978617970750F0C61B6C
:10108000D70B2297C193D1936D937C93CF010E948C
:101090007707C801DF91CF911F910F91FF90EF90DB
:1010A000DF90CF90BF90AF909F908F907F906F9088
:1010B0005F904F9008955B01AC1ABD0A4C018C0EF5
:1010C0009D1EA091AE02B091AF02512C412CF12C8B
:1010D000E12C109731F58091AC029091AD0288150A
:1010E000990509F05CC04616570608F058C0809173
:1010F000000290910102009741F48DB79EB7409194
:10110000040250910502841B950BE817F90708F0BB
:1011100055C0F093AD02E093AC02F9017183608396
:10112000B8CF8D919C91119712966C90129713964F
:101130007C901397A815B90559F56C0142E0C40ECF
:10114000D11CCA14DB0420F1AC014A195B09DA0195
:101150001296159780F06282738251834083D90181
:101160006D937C93E114F10471F0D7011396FC9315
:10117000EE9312978ECF22968C0F9D1FF9019183CB
:101180008083F301EFCFF093AF02E093AE0281CF03
:101190004816590608F42C017D01D3019ACFCB01E2
:1011A0000E94DB067C01009749F0AE01B8010E9465
:1011B000E108C8010E94770787016BCF10E000E0CB
:1011C00068CFFB01DC0102C001900D9241505040FC
:1011D000D8F70895FB01DC0101900D920020E1F7A2
:0611E0000895F894FFCF12
:1011E6000000B002800000000000E8037401A402C1
:0A11F60052026661727A6164000023
:00000001FF
