:100000000C942E010C945F010C945F010C945F0121
:100010000C945F010C945F010C945F010C945F01E0
:100020000C945F010C945F010C945F010C945F01D0
:100030000C945F010C945F010C945F010C945F01C0
:100040000C945F010C945F010C945F010C945F01B0
:100050000C945F010C945F010C945F010C94A80652
:100060000C945F010C9472060C9448060C945F018A
:100070000C945F010C945F010C945F010C945F0180
:100080000C945F010C945F010C945F010C945F0170
:100090000C945F010C945F010C945F010C94F206C8
:1000A0000C945F010C945F010C945F010C945F0150
:1000B0000C945F010C945F010C945F010C945F0140
:1000C0000C945F010C945F010C945F010C945F0130
:1000D0000C945F010C945F010C945F010C945F0120
:1000E0000C945F010C9416050C9447030C94540374
:1000F0000C9456020C9429030C94D2030C947003B4
:100100000C945E030C941E020C9410020C947A035F
:100110000C9424030C94AD010C9476030C945003BE
:100120000C94A3020C94BC010C9462030C944A033B
:100130000C9468030C943F030C943B030C948001D3
:100140000C9443030C9412080C9480030C945A03EF
:100150000C946C0300000A0B02090C0D0E08070337
:10016000040100000000000000000000000000008A
:10017000000000000000000000000000000000007F
:10018000121110000000000000000000000000003C
:100190000000000000000000000000002200250018
:1001A00028002B002E003100340002010000050160
:1001B00008010B0100002100240027002A002D0067
:1001C0003000330001010000040107010A010505A8
:1001D0000505070508080808020202020A0A0808BD
:1001E00004040404010101010101010103030303EB
:1001F00003030303040707070C0C0C0C0C0C0C0C7A
:100200000202020206060606060606060B0B0B0B8A
:100210000B0B0B0B010210202008081020401020AF
:1002200040800201020108040201010204081020BA
:1002300040808040201008040201800402018040B8
:100240002010080402010804020101020408102021
:1002500040800102040810204080120811241FBEB3
:10026000CFEFD1E2DEBFCDBF00E00CBF23E0AAE2BA
:10027000B2E001C01D92AD35B207E1F712E0A0E097
:10028000B2E0E2EAF8E100E00BBF02C007900D9295
:10029000AA32B107D9F711E0CEE2D1E000E006C002
:1002A00021970109802FFE010E94280ACD32D10733
:1002B00080E00807A9F70E945C080C944F0C0C948E
:1002C000000090E0FC01EC5EFD4F249182539E4FB4
:1002D000FC018491882399F090E0880F991FFC011C
:1002E000EC54FE4FA591B491FC01E656FE4F85916A
:1002F00094918FB7F894EC91E22BEC938FBF089513
:10030000AF92BF92CF92DF92EF92FF920F931F9323
:10031000CF93DF936C017B018B01040F151FEB0161
:100320005E01AE18BF08C017D10759F06991D60118
:10033000ED91FC910190F081E02DC6011995892B7A
:1003400079F7C501DF91CF911F910F91FF90EF9049
:10035000DF90CF90BF90AF900895FC01538D448DF6
:10036000252F30E0842F90E0821B930B541710F060
:10037000CF96089501970895FC01918D828D98176D
:1003800061F0A28DAE0FBF2FB11D5D968C91928D45
:100390009F5F9F73928F90E008958FEF9FEF089576
:1003A0002FB7F8948091A0029091A102A091A2028F
:1003B000B091A3022FBF8093AC029093AD02A093A3
:1003C000AE02B093AF0284EA92E00E94BC0197FFB4
:1003D00026C02FB7F8948091A0029091A102A0911D
:1003E000A202B091A3022FBF4091AC025091AD0286
:1003F0006091AE027091AF02841B950BA60BB70BF8
:100400004091A8025091A9026091AA027091AB029A
:1004100084179507A607B707B0F28FEF9FEF0895EF
:10042000FC01918D828D981731F0828DE80FF11DBE
:10043000858D90E008958FEF9FEF0895FC01918DD9
:10044000228D892F90E0805C9F4F821B91098F73D2
:100450009927089584EA92E00E941E0221E0892BE8
:1004600009F420E0822F0895FC01A48DA80FB92F74
:10047000B11DA35ABF4F2C91848D90E001968F73CC
:100480009927848FA689B7892C93A089B1898C91EB
:10049000837080648C93938D848D981306C002883A
:1004A000F389E02D80818F7D80830895EF92FF9204
:1004B0000F931F93CF93DF93EC0181E0888F9B8D87
:1004C0008C8D98131AC0E889F989808185FF15C041
:1004D0009FB7F894EE89FF896083E889F989808164
:1004E0008370806480839FBF81E090E0DF91CF9133
:1004F0001F910F91FF90EF900895F62E0B8D10E055
:100500000F5F1F4F0F731127E02E8C8D8E110CC0C3
:100510000FB607FCFACFE889F989808185FFF5CF0E
:10052000CE010E943402F1CFEB8DEC0FFD2FF11DB7
:10053000E35AFF4FF0829FB7F8940B8FEA89FB894B
:1005400080818062CFCFCF93DF93EC01888D8823A9
:10055000B9F0AA89BB89E889F9898C9185FD03C026
:10056000808186FD0DC00FB607FCF7CF8C9185FF0B
:10057000F2CF808185FFEDCFCE010E943402E9CF1A
:10058000DF91CF91089580E090E0892B29F00E94BF
:100590002A0281110E94000080E090E0892B49F03E
:1005A00080E090E0892B29F00E94000081110E94D8
:1005B000000080E090E0892B49F080E090E0892BFA
:1005C00029F00E94000081110E94000080E090E06C
:1005D000892B49F080E090E0892B29F00E940000EF
:1005E00081110C9400000895282F30E0F901EC5A95
:1005F000FE4F9491F901EC5EFD4F449122533E4F22
:10060000F9012491222309F435C0992311F1915065
:100610009231F8F4E92FF0E08827EE5EFC4F8F4F1F
:100620000C94280A4303470324033B033F03290395
:100630004A03500354035A035E03620368036C03C6
:100640002903700376037A03809180008F7780936B
:100650008000E22FF0E0EE0FFF1FE656FE4FA5915F
:10066000B4918FB7F894EC91611148C040954E2336
:100670004C938FBF0895809180008F7DE8CF80914B
:100680008000877FE4CF84B58F7784BDE2CF84B5C7
:100690008F7DFBCF8091B0008F778093B000D9CF52
:1006A0008091B0008F7DF9CF809190008F778093FB
:1006B0009000CFCF809190008F7DF9CF80919000F6
:1006C000877FF5CF8091A0008F778093A000C1CF66
:1006D0008091A0008F7DF9CF8091A000877FF5CF1A
:1006E000809120018F7780932001B3CF80912001EA
:1006F0008F7DF9CF80912001877FF5CF4E2BB8CF2A
:10070000089520915102260F3327331F21323105DE
:10071000ECF420917502FC0190E080E0243069F057
:1007200082E00895A09151022191AC014F5C5D4F90
:10073000A40FB52FB11D2C930196861798F38091C5
:100740005102680F6093510280E0089581E008959E
:1007500008958FEF9FEF08958FEF9FEF0895809199
:100760002A0290E09195819591090895CF93DF93A6
:10077000CB01EA01642F0E948103CE01DF91CF916A
:100780000895CF93DF931F92CDB7DEB7698361E001
:10079000CE0101960E94810381E090E00F90DF91ED
:1007A000CF91089590E080E00895CF93DF93EC011E
:1007B00060E08E810E94F40261E08E810E94F4026A
:1007C00060E08E810E94F4028BE891E00197F1F7DE
:1007D000DF91CF910895CF92DF92EF92FF920F9326
:1007E0001F93CF93DF936C017C0187E0E80EF11C2F
:1007F000D0E0C0E0062F10E0B8010C2E02C07595C5
:1008000067950A94E2F76170F70181917F010E9478
:10081000F4022196C430D10579F7C601DF91CF915A
:100820001F910F91FF90EF90DF90CF900C94D50324
:10083000CF92DF92EF92FF920F931F93CF93DF93AC
:10084000EC01F62E642F8C810E94F4028D818F3F83
:1008500019F060E00E94F4020F2D10E08F8584FFF4
:1008600025C06E0187E0C80ED11CF12CE12CB80127
:100870000E2C02C0759567950A94E2F76170F60137
:1008800081916F010E94F402FFEFEF1AFF0A88E0E6
:10089000E816F10461F7CE01DF91CF911F910F911E
:1008A000FF90EF90DF90CF900C94D503B80184E0D7
:1008B000759567958A95E1F7CE010E94EB036F2D40
:1008C000CE01DF91CF911F910F91FF90EF90DF90BC
:1008D000CF900C94EB0340E0682F81E493E00C94FC
:1008E000180481E00E946B048BE39FE10197F1F70C
:1008F0000895CF93DF93823029F49091500398604C
:1009000090935003809354031092550380E4809396
:10091000560380E18093570380E5809358038091CC
:1009200045030E946101809146038F3F11F00E94B0
:100930006101809147030E946101C1E4D3E09E01FF
:10094000215433408091500384FD0AC084E090E03C
:100950002196281739073CF48E810E946101EFCF60
:1009600088E090E0F5CF8BE39DE00197F1F760E040
:10097000809145030E94F40260E0809147030E9449
:10098000F402809146038F3F19F060E00E94F40268
:100990008091500384FD34C063E081E493E00E94C1
:1009A000EB03CBE4D6E4CE010197F1F763E081E4F9
:1009B00093E00E94EB032197F1F763E081E493E079
:1009C0000E94EB0383E592E00197F1F762E081E496
:1009D00093E00E94EB038091500380620E946B04BD
:1009E00084E0809351038CE00E946B040E947104A8
:1009F00082E08093520386E0DF91CF910C946B04E8
:100A000080620E946B048BE496E40197F1F7809179
:100A1000500380620E946B0483E592E00197F1F736
:100A20008091500380620E946B04D5CF41E00E9408
:100A3000180481E090E008958F929F92AF92BF9248
:100A4000EF92FF920F931F93CF93DF93CDB7DEB753
:100A5000A1970FB6F894DEBF0FBECDBF7C01FA019F
:100A6000CB0119A2223008F42AE08E010F5D1F4F3E
:100A7000822E912CB12CA12CBF01A50194010E94C2
:100A8000060AF901CA016A3074F5605DD8016E93F7
:100A90008D01232B242B252B79F790E080E01097F4
:100AA00089F0FD0101900020E9F73197AF014A1B61
:100AB0005B0BD701ED91FC910280F381E02DB80131
:100AC000C7011995A1960FB6F894DEBF0FBECDBF32
:100AD000DF91CF911F910F91FF90EF90BF90AF905A
:100AE0009F908F900895695CD1CFCF92DF92EF9263
:100AF000FF920F931F93CF93DF9377FF21C06A017B
:100B00007B01EC01E881F9810190F081E02D6DE23B
:100B100019958C0144275527BA014C195D096E09B6
:100B20007F092AE0CE010E941C05800F911FDF91F2
:100B3000CF911F910F91FF90EF90DF90CF9008958C
:100B40002AE0DF91CF911F910F91FF90EF90DF90FE
:100B5000CF900C941C050F931F93CF93DF93EC0160
:100B600088819981009759F02A813B8126173707A0
:100B700030F081E0DF91CF911F910F9108958B01AB
:100B80006F5F7F4F0E94550B009759F099838883C0
:100B90001B830A832C813D81232B59F7FC01108292
:100BA000E8CF80E0E7CF1F93CF93DF9385ED80936D
:100BB000BC0080912D0290912E02A0912F02B09145
:100BC00030020796A11DB11D23E0B695A795979514
:100BD00087952A95D1F72091BC0024FD03C010927F
:100BE000750252C040912D0250912E0260912F0249
:100BF00070913002452B462B472B69F30097A105D6
:100C0000B10541F025E32A95F1F700000197A1090C
:100C1000B109E1CF80912C02C1E0C0932B0288235F
:100C200099F1D091B8001091BA008091BC008A7BF4
:100C30008093BC0060E084E10E94F40260E085E102
:100C40000E94F40210927502C0937702109276020D
:100C500061E084E10E94F40261E085E10E94F40217
:100C60008091B9008E7F8093B9008091B9008D7F0B
:100C70008093B90088E48093B80085E48093BC0039
:100C80001093BA00D093B800DF91CF911F910895CF
:100C90001F920F920FB60F9211240BB60F922F9343
:100CA0003F934F935F936F937F938F939F93AF93F4
:100CB000BF93EF93FF9384EA92E00E943402FF9186
:100CC000EF91BF91AF919F918F917F916F915F91C4
:100CD0004F913F912F910F900BBE0F900FBE0F9031
:100CE0001F9018951F920F920FB60F9211240BB6FA
:100CF0000F922F938F939F93EF93FF93E091B40202
:100D0000F091B5028081E091BA02F091BB0282FDC0
:100D10001DC090818091BD028F5F8F732091BE02B4
:100D2000821741F0E091BD02F0E0EC55FD4F958F48
:100D30008093BD02FF91EF919F918F912F910F9022
:100D40000BBE0F900FBE0F901F9018958081F2CFB1
:100D50001F920F920FB60F9211242F933F938F93F0
:100D60009F93AF93BF938091A0029091A102A09115
:100D7000A202B091A30230919F0223E0230F2D37EE
:100D800058F50196A11DB11D20939F028093A002EA
:100D90009093A102A093A202B093A30280919B0220
:100DA00090919C02A0919D02B0919E020196A11D7E
:100DB000B11D80939B0290939C02A0939D02B093DF
:100DC0009E02BF91AF919F918F913F912F910F9074
:100DD0000FBE0F901F90189526E8230F0296A11DB5
:100DE000B11DD2CF1F920F920FB60F9211240BB6E6
:100DF0000F922F933F934F935F936F937F938F93B4
:100E00009F93AF93BF93EF93FF938091B900887F37
:100E1000803609F44DC008F040C0883209F4A7C0FC
:100E200028F5803109F49BC0C8F4882309F4F7C081
:100E3000883009F494C0FF91EF91BF91AF919F91D9
:100E40008F917F916F915F914F913F912F910F9073
:100E50000BBE0F900FBE0F901F901895883109F4AC
:100E600086C0803241F78093740214C0803409F444
:100E70009BC040F48033B9F38833E9F68093740261
:100E800085ECAEC0803509F483C0883509F494C080
:100E9000883489F60E94D305CECF883909F48AC0F8
:100EA00038F5883729F050F4883611F0803719F674
:100EB00083E0809375021092730255C0883809F45C
:100EC00079C0803919F0803809F0B5CF809173026C
:100ED000803208F06FC0E091730281E08E0F809342
:100EE00073028091BB00F0E0ED5AFD4F80833BC060
:100EF000803B39F0D0F4803A09F477C0883A09F0A1
:100F00009ACF84E08093750210925202109251029F
:100F1000F0E0E0E019958091510281110FC081E06D
:100F2000809351021092310209C0803C09F4A8CF8D
:100F3000883C09F4A5CF883B09F07DCFE0915202AF
:100F400081E08E0F80935202F0E0EF5CFD4F8081D4
:100F50008093BB00909152028091510229C08091F0
:100F60009A028093BB0085EC8093BC0064CF909183
:100F7000990280919802981758F5E091990281E0C2
:100F80008E0F80939902F0E0E858FD4F8081E9CF01
:100F9000E091990281E08E0F809399028091BB00CD
:100FA000F0E0E858FD4F808390919902809198027B
:100FB0009817C8F285E8D8CFE091990281E08E0FAA
:100FC000809399028091BB00F0E0E858FD4F808348
:100FD0008091770281115ECF81E08093760284EA6E
:100FE0008093BC001092750226CF85EC8093BC00E4
:100FF0001092750280917302803230F4E091730296
:10100000F0E0ED5AFD4F10826091730270E083E5CD
:1010100092E0F0E0E0E01995109273020CCF10928C
:10102000740238CFE4EAF2E01382128288EE93E091
:10103000A0E0B0E084839583A683B7838AE092E042
:101040009183808385EC90E09587848784EC90E0A1
:101050009787868780EC90E0918B808B81EC90E085
:10106000938B828B82EC90E0958B848B86EC90E066
:10107000978B868B118E128E138E148EE1E4F3E023
:10108000138212828CE192E09183808380E28483D8
:101090008FEF858381E2868382E2878383E2808784
:1010A00084E2818785E282871386148615861686F8
:1010B000178681E00C947904CF93DF9300D000D0A1
:1010C0001F921F92CDB7DEB7789484B5826084BD3D
:1010D00084B5816084BD85B5826085BD85B581603C
:1010E00085BD80916E00816080936E0010928100BA
:1010F0008091810082608093810080918100816075
:101100008093810080918000816080938000809135
:10111000B10084608093B1008091B00081608093C1
:10112000B000809191008260809391008091910045
:101130008160809391008091900081608093900005
:101140008091A10082608093A1008091A1008160C4
:101150008093A1008091A00081608093A000809185
:10116000210182608093210180912101816080931F
:1011700021018091200181608093200180917A007B
:10118000846080937A0080917A00826080937A00F4
:1011900080917A00816080937A0080917A008068E3
:1011A00080937A001092C100E091B402F091B502F0
:1011B00082E08083E091B002F091B1021082E09170
:1011C000B202F091B3028FEC80831092BC02E091E6
:1011D000B802F091B90286E08083E091B602F09106
:1011E000B702808180618083E091B602F091B702FE
:1011F000808188608083E091B602F091B70280819F
:1012000080688083E091B602F091B70280818F7D83
:10121000808382E00E9479040E94710484EA92E053
:101220000E941E0218161906CCF71A8219821C8217
:101230001B821E821D8270E060E0CE0101960E943A
:10124000AB0529813A8181112BC02115310519F097
:10125000C9010E94CC0A1A8219821E821D821C8238
:101260001B820E94D00197FD23C08F8318860D81B9
:101270001E810F5F1F4FB801CE0101960E94AB0582
:10128000882379F329813A818D819E81BE01695F2E
:101290007F4F820F931F0E94480C1E830D83E1CF66
:1012A0001E821D8268E272E0C9010E94480CD9CFFB
:1012B0000E947104E1E0809154038111E0E0E19526
:1012C000F0E0EF5BFC4F848980680E946B044D81E5
:1012D0005E8169817A8181E493E00E9480018D8141
:1012E0009E8109811A81892B41F064E272E0C80174
:1012F0000E943F0C892B09F444C060E070E0CB01F0
:101300000115110519F0C8010E94CA098B0141E0BD
:1013100050E060E070E00130110571F040E050E015
:10132000BA010115110541F03CF102501109A80163
:10133000012E000C660B770B84EA92E00E94750583
:10134000E0915403E230D8F4E150F0E0EF5BFC4F61
:10135000848980680E946B04A801110F660B770BCB
:1013600081E493E00E94750589819A81009709F4D0
:1013700055CF0E94CC0A52CF0E5F1F4FD8CFE1E06D
:10138000E4CF0115110519F0C8010E94CC0A0E9492
:10139000C30244CF1F93FC0199278827BC01E8941E
:1013A00011911032E9F3193010F01E30C8F31B32DE
:1013B00051F01D3249F4689406C00E94F109610F92
:1013C000711D811D911D119110531A30B0F33EF41F
:1013D00090958095709561957F4F8F4F9F4F1F918E
:1013E0000895592F482F372F262F660F771F881FF4
:1013F000991F660F771F881F991F620F731F841F25
:10140000951F660F771F881F991F0895A1E21A2E56
:10141000AA1BBB1BFD010DC0AA1FBB1FEE1FFF1F98
:10142000A217B307E407F50720F0A21BB30BE40BE8
:10143000F50B661F771F881F991F1A9469F760952F
:101440007095809590959B01AC01BD01CF010895E9
:10145000EE0FFF1F881F8BBF0790F691E02D1994A8
:101460000F931F93CF93DF938230910510F482E0A6
:1014700090E0E0915B03F0915C0330E020E0B0E0AD
:10148000A0E0309799F42115310509F44AC0281BD2
:10149000390B24303105D8F58A819B81611571059E
:1014A00089F1FB0193838283FE0111C04081518148
:1014B0000281138148175907E0F04817590799F43A
:1014C000109761F012960C93129713961C93329614
:1014D000CF01DF91CF911F910F91089500935B038E
:1014E00010935C03F4CF2115310551F042175307D7
:1014F00038F0A901DB019A01BD01DF01F801C1CF7C
:10150000EF01F9CF90935C0380935B03CDCFFE0195
:10151000E20FF31F8193919322503109398328837D
:10152000D7CF2091590330915A03232B41F42091B6
:1015300002023091030230935A0320935903209101
:101540000002309101022115310541F42DB73EB75B
:101550004091040250910502241B350BE091590380
:10156000F0915A03E217F307A0F42E1B3F0B281744
:10157000390778F0AC014E5F5F4F2417350748F00C
:101580004E0F5F1F50935A034093590381939193D9
:101590009FCFF0E0E0E09CCFCF93DF930097E9F09E
:1015A000FC01329713821282A0915B03B0915C031D
:1015B000ED0130E020E01097A1F420813181820F0D
:1015C000931F2091590330915A032817390709F0C6
:1015D00061C0F0935A03E0935903DF91CF910895CE
:1015E000EA01CE17DF07E8F54A815B819E014115CC
:1015F0005105B1F7E901FB83EA8349915991C40F81
:10160000D51FEC17FD0761F4808191810296840F4C
:10161000951FE90199838883828193819B838A83C3
:10162000F0E0E0E012968D919C9113970097B9F548
:101630002D913C911197CD010296820F931F20911D
:10164000590330915A032817390739F6309751F565
:1016500010925C0310925B03B0935A03A09359035A
:10166000BCCFD383C28340815181840F951FC8179B
:10167000D90761F44E5F5F4F88819981480F591FE8
:10168000518340838A819B81938382832115310515
:1016900009F0B0CFF0935C03E0935B039ECFFD01B4
:1016A000DC01C0CF13821282D7CF4F925F926F922C
:1016B0007F928F929F92AF92BF92CF92DF92EF92E2
:1016C000FF920F931F93CF93DF938C01009799F4B0
:1016D000CB01DF91CF911F910F91FF90EF90DF90A1
:1016E000CF90BF90AF909F908F907F906F905F90C2
:1016F0004F900C94300AFC01E60FF71F9C0122501A
:101700003109E217F30708F4AEC0D901CD91DC919D
:101710001197C617D70720F1C530D10578F0CE0153
:1017200004978617970750F0C61BD70B2297C193D3
:10173000D1936D937C93CF010E94CC0AC801DF91B5
:10174000CF911F910F91FF90EF90DF90CF90BF90BE
:10175000AF909F908F907F906F905F904F90089583
:101760005B01AC1ABD0A4C018C0E9D1EA0915B035F
:10177000B0915C03512C412CF12CE12C109731F5E8
:101780008091590390915A038815990509F05CC01E
:101790004616570608F058C0809100029091010249
:1017A000009741F48DB79EB7409104025091050215
:1017B000841B950BE817F90708F055C0F0935A03FE
:1017C000E0935903F90171836083B8CF8D919C91A7
:1017D000119712966C90129713967C901397A815F8
:1017E000B90559F56C0142E0C40ED11CCA14DB04E2
:1017F00020F1AC014A195B09DA011296159780F0C5
:101800006282738251834083D9016D937C93E1148A
:10181000F10471F0D7011396FC93EE9312978ECFDB
:1018200022968C0F9D1FF90191838083F301EFCFE6
:10183000F0935C03E0935B0381CF4816590608F4EC
:101840002C017D01D3019ACFCB010E94300A7C018B
:10185000009749F0AE01B8010E94360CC8010E9401
:10186000CC0A87016BCF10E000E068CFFB01DC0100
:1018700002C001900D9241505040D8F70895FB01ED
:10188000DC018D91019080190110D9F3990B089515
:10189000FB01DC0101900D920020E1F70895F8941E
:0218A000FFCF78
:1018A20000005D0380000000000056028001AD01CF
:1018B200A3021E02BC0110020000000016058001F6
:0A18C200D2038003444F4E4500009E
:00000001FF
