:100000000C9435010C9466010C9466010C94660105
:100010000C9466010C9466010C9466010C946601C4
:100020000C9466010C9466010C9466010C946601B4
:100030000C9466010C9466010C9466010C946601A4
:100040000C9466010C9466010C9466010C94660194
:100050000C9466010C9466010C9466010C94D00417
:100060000C9466010C9466010C9466010C94660174
:100070000C9466010C9466010C9466010C94660164
:100080000C9466010C9466010C9466010C94660154
:100090000C9466010C9466010C9466010C941A058C
:1000A0000C9466010C9466010C9466010C94660134
:1000B0000C9466010C9466010C9466010C94660124
:1000C0000C9466010C9466010C9466010C94660114
:1000D0000C9466010C9466010C9466010C94660104
:1000E0000C9466010C94B9010C94C1010C94680144
:1000F0000C94BD010C94C8010C94B3020C94D8016B
:100100000C948B020C94B7020C94BB020C94DC018F
:100110000C94EA010C940D030C94F4010C94CE01A0
:100120000C94F8010C9455040C94F3010C94E60122
:100130000C94B3010C94C5010C94D2010C94EE0103
:100140000C943A060C94E0010000200023002600E5
:1001500029002C002F0032000001000003010601DD
:10016000090100002100240027002A002D00300092
:10017000330001010000040107010A010000220010
:10018000250028002B002E00310034000201000061
:10019000050108010B010505050507050808080804
:1001A000020202020A0A080804040404010101010F
:1001B000010101010303030303030303040707070A
:1001C0000C0C0C0C0C0C0C0C0202020206060606AF
:1001D000060606060B0B0B0B0B0B0B0B010210207C
:1001E000200808102040102040800201020108046D
:1001F0000201010204081020408080402010080401
:100200000201800402018040201008040201080459
:10021000020101020408102040800102040810209D
:10022000408000000A0B02090C0D0E0807030401B0
:1002300000000000000000000000000000000000BE
:10024000000000000000000000000000000012118B
:10025000100000000000000000000000000000008E
:1002600000000000000000003A0611241FBECFEF7E
:10027000D1E2DEBFCDBF00E00CBF12E0A0E0B2E0F3
:10028000E8EEFEE000E00BBF02C007900D92AE3238
:10029000B107D9F723E0AEE2B2E001C01D92AF3260
:1002A000B207E1F711E0C5E3D1E000E006C0219715
:1002B0000109802FFE010E946A07C433D10780E044
:1002C0000807A9F70E94B1060C9472070C9400006D
:1002D000AF92BF92CF92DF92EF92FF920F931F9354
:1002E000CF93DF936C017B018B01040F151FEB0192
:1002F0005E01AE18BF08C017D10759F06991D60149
:10030000ED91FC910190F081E02DC6011995892BAA
:1003100079F7C501DF91CF911F910F91FF90EF9079
:10032000DF90CF90BF90AF9008958150823108F058
:100330005AC0E82FF0E08827EF55FE4F8F4F0C94FE
:100340006A07C101C501B301B901BD01F301C801CB
:10035000CE01D201D801DC01E001E601EA01F3019E
:10036000EE01F401F801809180008F778093800086
:100370000895809180008F7DF9CF80918000877FE4
:10038000F5CF84B58F7784BD089584B58F7DFBCF7D
:100390008091B0008F778093B00008958091B00075
:1003A0008F7DF9CF809190008F7780939000089592
:1003B000809190008F7DF9CF80919000877FF5CF5D
:1003C0008091A0008F778093A00008958091A00075
:1003D0008F7DF9CF8091A000877FF5CF809120019C
:1003E0008F77809320010895809120018F7DF9CF30
:1003F00080912001877FF5CF1F93CF93DF93282F24
:1004000030E0F901EE5DFD4F8491F901E452FE4FB9
:10041000D491F901EA56FE4FC491CC23A9F0162FCE
:1004200081110E949501EC2FF0E0EE0FFF1FE458C0
:10043000FE4FA591B4918FB7F894EC91111108C0BB
:10044000D095DE23DC938FBFDF91CF911F9108956C
:10045000DE2BF8CFCF93DF9390E0FC01E452FE4F08
:1004600024918A569E4FFC0184918823C9F090E024
:10047000880F991FFC01EE59FE4FA591B491FC0124
:10048000E458FE4FC591D49161110DC09FB7F89407
:100490008C91209582238C938881282328839FBF69
:1004A000DF91CF910895623051F49FB7F8943C9159
:1004B000822F809583238C93E8812E2BEFCF8FB7EB
:1004C000F894EC912E2B2C938FBFEACF3FB7F89482
:1004D0008091A4029091A502A091A602B091A702DA
:1004E00026B5A89B05C02F3F19F00196A11DB11D8F
:1004F0003FBFBA2FA92F982F8827BC01CD01620FCB
:10050000711D811D911D42E0660F771F881F991F85
:100510004A95D1F70895CF93DF9370E0FB01EE5D2C
:10052000FD4F8491FB01E452FE4FD4916A567E4FF9
:10053000FB01C491CC23A1F081110E949501EC2F05
:10054000F0E0EE0FFF1FE85BFE4FA591B491EC9138
:10055000ED2381E090E009F480E0DF91CF910895F0
:1005600080E090E0FACF862F642F0C94FC01862F58
:10057000642F0C942A02089520915502260F3327E8
:10058000331F21323105ECF420917902FC0190E017
:1005900080E0243069F082E00895A0915502219115
:1005A000AC014B5C5D4FA40FB52FB11D2C93019690
:1005B000861798F380915502680F6093550280E08A
:1005C000089581E0089508958FEF9FEF08958FEFCC
:1005D0009FEF089580912E0290E091958195910969
:1005E0000895CF93DF93CB01EA01642F0E94BC02F0
:1005F000CE01DF91CF910895CF93DF931F92CDB7B6
:10060000DEB7698361E0CE0101960E94BC0281E001
:1006100090E00F90DF91CF91089590E080E00895F1
:10062000CF93DF93EC0160E08E810E94FC0161E0DA
:100630008E810E94FC0160E08E810E94FC018BE8AB
:1006400091E00197F1F7DF91CF910895CF92DF927A
:10065000EF92FF920F931F93CF93DF936C017C0176
:1006600087E0E80EF11CD0E0C0E0062F10E0B801F2
:100670000C2E02C0759567950A94E2F76170F70138
:1006800081917F010E94FC012196C430D10579F748
:10069000C601DF91CF911F910F91FF90EF90DF90F6
:1006A000CF900C941003CF92DF92EF92FF920F93B2
:1006B0001F93CF93DF93EC01F62E642F8C810E9461
:1006C000FC018D818F3F19F060E00E94FC010F2D2D
:1006D00010E08F8584FF25C06E0187E0C80ED11C15
:1006E000F12CE12CB8010E2C02C0759567950A9487
:1006F000E2F76170F60181916F010E94FC01FFEF4A
:10070000EF1AFF0A88E0E816F10461F7CE01DF91E5
:10071000CF911F910F91FF90EF90DF90CF900C94AD
:100720001003B80184E0759567958A95E1F7CE01CD
:100730000E9426036F2DCE01DF91CF911F910F9163
:10074000FF90EF90DF90CF900C94260340E0682F4D
:1007500087E193E00C94530381E00E94A6038BE3AE
:100760009FE10197F1F70895CF93DF93823029F449
:100770009091260398609093260380932A03109209
:100780002B0380E480932C0380E180932D0380E58C
:1007900080932E0361E080911B030E942A028091C6
:1007A0001C038F3F19F061E00E942A0261E08091F2
:1007B0001D030E942A02C7E1D3E09E012751334066
:1007C0008091260384FD0BC084E090E021962817D9
:1007D000390744F461E08E810E942A02EECF88E05E
:1007E00090E0F4CF8BE39DE00197F1F760E080911A
:1007F0001B030E94FC0160E080911D030E94FC012C
:1008000080911C038F3F19F060E00E94FC018091F1
:10081000260384FD34C063E087E193E00E94260351
:10082000CBE4D6E4CE010197F1F763E087E193E0F2
:100830000E9426032197F1F763E087E193E00E948D
:10084000260383E592E00197F1F762E087E193E008
:100850000E9426038091260380620E94A60384E002
:10086000809327038CE00E94A6030E94AC0382E0E1
:100870008093280386E0DF91CF910C94A6038062D9
:100880000E94A6038BE496E40197F1F7809126037A
:1008900080620E94A60383E592E00197F1F78091C0
:1008A000260380620E94A603D5CF41E00E94530335
:1008B00081E090E008951F93CF93DF9385ED8093BF
:1008C000BC008091310290913202A0913302B0912C
:1008D00034020796A11DB11D23E0B695A795979503
:1008E00087952A95D1F72091BC0024FD03C0109272
:1008F000790252C04091310250913202609133022C
:1009000070913402452B462B472B69F30097A105C4
:10091000B10541F025E32A95F1F700000197A109FF
:10092000B109E1CF80913002C1E0C0932F0288234A
:1009300099F1D091B8001091BA008091BC008A7BE7
:100940008093BC0060E084E10E94FC0160E085E1EE
:100950000E94FC0110927902C0937B0210927A02ED
:1009600061E084E10E94FC0161E085E10E94FC01FC
:100970008091B9008E7F8093B9008091B9008D7FFE
:100980008093B90088E48093B80085E48093BC002C
:100990001093BA00D093B800DF91CF911F910895C2
:1009A0001F920F920FB60F9211242F933F938F93A4
:1009B0009F93AF93BF938091A0029091A102A091C9
:1009C000A202B091A30230919F0223E0230F2D37A2
:1009D00058F50196A11DB11D20939F028093A0029E
:1009E0009093A102A093A202B093A3028091A402CB
:1009F0009091A502A091A602B091A7020196A11D17
:100A0000B11D8093A4029093A502A093A602B09377
:100A1000A702BF91AF919F918F913F912F910F901E
:100A20000FBE0F901F90189526E8230F0296A11D68
:100A3000B11DD2CF1F920F920FB60F9211240BB699
:100A40000F922F933F934F935F936F937F938F9367
:100A50009F93AF93BF93EF93FF938091B900887FEB
:100A6000803609F44DC008F040C0883209F4A7C0B0
:100A700028F5803109F49BC0C8F4882309F4F7C035
:100A8000883009F494C0FF91EF91BF91AF919F918D
:100A90008F917F916F915F914F913F912F910F9027
:100AA0000BBE0F900FBE0F901F901895883109F460
:100AB00086C0803241F78093780214C0803409F4F4
:100AC0009BC040F48033B9F38833E9F68093780211
:100AD00085ECAEC0803509F483C0883509F494C034
:100AE000883489F60E945B04CECF883909F48AC025
:100AF00038F5883729F050F4883611F0803719F628
:100B000083E0809379021092770255C0883809F407
:100B100079C0803919F0803809F0B5CF809177021B
:100B2000803208F06FC0E091770281E08E0F8093F1
:100B300077028091BB00F0E0E95AFD4F80833BC013
:100B4000803B39F0D0F4803A09F477C0883A09F054
:100B50009ACF84E080937902109256021092550247
:100B6000F0E0E0E019958091550281110FC081E01D
:100B7000809355021092350209C0803C09F4A8CF39
:100B8000883C09F4A5CF883B09F07DCFE09156025F
:100B900081E08E0F80935602F0E0EB5CFD4F808188
:100BA0008093BB00909156028091550229C080919C
:100BB0009E028093BB0085EC8093BC0064CF909133
:100BC0009D0280919C02981758F5E0919D0281E06A
:100BD0008E0F80939D02F0E0E458FD4F8081E9CFB5
:100BE000E0919D0281E08E0F80939D028091BB0079
:100BF000F0E0E458FD4F808390919D0280919C022B
:100C00009817C8F285E8D8CFE0919D0281E08E0F59
:100C100080939D028091BB00F0E0E458FD4F8083FB
:100C200080917B0281115ECF81E080937A0284EA19
:100C30008093BC001092790226CF85EC8093BC0093
:100C40001092790280917702803230F4E09177023D
:100C5000F0E0E95AFD4F10826091770270E087E57D
:100C600092E0F0E0E0E01995109277020CCF10923C
:100C7000780238CF10921A031092190386E292E09C
:100C8000909318038093170380E280931B038FEFE8
:100C900080931C0381E280931D0382E280931E03F4
:100CA00083E280931F0384E28093200385E2809394
:100CB0002103109222031092230310922403109216
:100CC00025031092260381E00E94B4031092AA0229
:100CD0001092AE021092AD021092AF028CE192E03F
:100CE0009093A9028093A802E4ECF2E010821482AF
:100CF00013821582369683E0E030F807B9F784E076
:100D000092E090930B0380930A0380E092E090932B
:100D10000D0380930C0384E080930E0380930F03F4
:100D200088E092E090930903809308038AE090E0C2
:100D3000909311038093100384EF91E09093130339
:100D4000809312031092160310921503109204035D
:100D500010920503109206031092070310921403D9
:100D60000895789484B5826084BD84B5816084BD23
:100D700085B5826085BD85B5816085BD80916E0039
:100D8000816080936E00109281008091810082606A
:100D900080938100809181008160809381008091A7
:100DA00080008160809380008091B1008460809396
:100DB000B1008091B00081608093B000809191007B
:100DC0008260809391008091910081608093910076
:100DD000809190008160809390008091A10082605A
:100DE0008093A1008091A10081608093A1008091F7
:100DF000A00081608093A000809121018260809397
:100E00002101809121018160809321018091200145
:100E100081608093200180917A00846080937A00C1
:100E200080917A00826080937A0080917A0081605C
:100E300080937A0080917A00806880937A00109283
:100E4000C10082E00E94B4030E94AC03D0E0C0E085
:100E50000E94AC03EC2FE1709E012F70332790911C
:100E60002A03E91710F0EFEFE90FF0E0E95EFC4F1D
:100E70008489820F80680E94A60341E06AE787E1C7
:100E800093E00E94530321960E9466024B015C018D
:100E900084EFC82EDD24D394E12CF12C0E9466024D
:100EA000681979098A099B09683E73408105910593
:100EB000A8F321E0C21AD108E108F10888EE880EF3
:100EC00083E0981EA11CB11CC114D104E104F104FB
:100ED00029F7BECFEE0FFF1F881F8BBF0790F6913B
:080EE000E02D1994F894FFCFF6
:100EE8002B2C2D2E2728292A3738392F3435362A06
:100EF8003132332D63303D2B00000000B702B302BE
:0E0F08008B0200000000550468010D03BB02BF
:00000001FF
