:100000000C9435010C9466010C9466010C94660105
:100010000C9466010C9466010C9466010C946601C4
:100020000C9466010C9466010C9466010C946601B4
:100030000C9466010C9466010C9466010C946601A4
:100040000C9466010C9466010C9466010C94660194
:100050000C9466010C9466010C9466010C948F0557
:100060000C9466010C9466010C9466010C94660174
:100070000C9466010C9466010C9466010C94660164
:100080000C9466010C9466010C9466010C94660154
:100090000C9466010C9466010C9466010C94D905CD
:1000A0000C9466010C9466010C9466010C94660134
:1000B0000C9466010C9466010C9466010C94660124
:1000C0000C9466010C9466010C9466010C94660114
:1000D0000C9466010C9466010C9466010C94660104
:1000E0000C9466010C945B020C9461020C94E9027E
:1000F0000C94F9060C9465020C9486020C9481020F
:100100000C946F020C9446020C9454020C944C0212
:100110000C946B020C94B8020C9458020C94790263
:100120000C947D020C94A4030C948B020C94140583
:100130000C9473020C9487020C9450020C942903C3
:100140000C94FB010C9452030000210024002700B2
:100150002A002D00300033000101000004010701D6
:100160000A0100002200250028002B002E0031008B
:10017000340002010000050108010B01000020000D
:100180002300260029002C002F003200000100006F
:10019000030106010901050505050705080808080A
:1001A000020202020A0A080804040404010101010F
:1001B000010101010303030303030303040707070A
:1001C0000C0C0C0C0C0C0C0C0202020206060606AF
:1001D000060606060B0B0B0B0B0B0B0B010210207C
:1001E000200808102040102040800201020108046D
:1001F0000201010204081020408080402010080401
:100200000201800402018040201008040201080459
:10021000020101020408102040800102040810209D
:10022000408000000A0B02090C0D0E0807030401B0
:1002300000000000000000000000000000000000BE
:10024000000000000000000000000000000012118B
:10025000100000000000000000000000000000008E
:100260000000000000000000F90611241FBECFEFBF
:10027000D1E2DEBFCDBF00E00CBF23E0AEE5B2E0CF
:1002800001C01D92A336B207E1F712E0A0E0B2E090
:10029000EAE8F8E100E00BBF02C007900D92AE352E
:1002A000B107D9F711E0C5E3D1E000E006C021971E
:1002B0000109802FFE010E941C0AC433D10780E08F
:1002C0000807A9F70E9470070C94430C0C940000D7
:1002D00096E0899FD0011124A852BD4F90967C933F
:1002E0006E935F9791E091969C939197E09145036F
:1002F000F091460390914403992339F0309751F0DF
:10030000811108C08091F4021994309719F05C961D
:100310008C91FACF0895CF92DF92EF92FF920F93D4
:100320001F9396E0899FF0011124E852FD4F11A21E
:10033000278D30A12130310551F178F0223031057F
:1003400009F451C02330310509F452C01F910F91B7
:10035000FF90EF90DF90CF9008956623B9F361E0AE
:1003600070E00E9468012FB7F8948091D4029091B8
:10037000D502A091D602B091D7022FBF809330034F
:1003800090933103A0933203B0933303DFCF9FB731
:10039000F894C090D402D090D502E090D602F090AC
:1003A000D7029FBF00913003109131032091320397
:1003B00030913303C01AD10AE20AF30A00914203D2
:1003C0001091430330E020E00C151D052E053F057C
:1003D00050F462E070E01F910F91FF90EF90DF907A
:1003E000CF900C9468016111B1CF63E070E0F3CF5E
:1003F00070E060E0F0CFAF92BF92CF92DF92EF92C9
:10040000FF920F931F93CF93DF936C017B018B01BE
:10041000040F151FEB015E01AE18BF08C017D1070E
:1004200059F06991D601ED91FC910190F081E02D98
:10043000C6011995892B79F7C501DF91CF911F91DD
:100440000F91FF90EF90DF90CF90BF90AF90089505
:100450008150823108F05AC0E82FF0E08827EC5C28
:10046000FD4F8F4F0C941C0A5402580246024C0256
:10047000500286025B02610265026B026F02730228
:1004800079027D028602810287028B0280918000C0
:100490008F77809380000895809180008F7DF9CFC1
:1004A00080918000877FF5CF84B58F7784BD0895D4
:1004B00084B58F7DFBCF8091B0008F778093B000A3
:1004C00008958091B0008F7DF9CF809190008F7753
:1004D000809390000895809190008F7DF9CF809156
:1004E0009000877FF5CF8091A0008F778093A00048
:1004F00008958091A0008F7DF9CF8091A000877F23
:10050000F5CF809120018F7780932001089580910D
:1005100020018F7DF9CF80912001877FF5CFCF9388
:10052000DF93282F30E0F901EE5DFD4F8491F90152
:10053000E452FE4FD491F901EA56FE4FC491CC2308
:10054000A1F081110E942802EC2FF0E0EE0FFF1FB6
:10055000E458FE4FA591B491EC91ED2381E090E039
:1005600009F480E0DF91CF91089580E090E0FACF28
:10057000862F0C948F021F93CF93DF93282F30E0A8
:10058000F901EE5DFD4F8491F901E452FE4FD491E3
:10059000F901EA56FE4FC491CC23A9F0162F811120
:1005A0000E942802EC2FF0E0EE0FFF1FEE59FE4FE5
:1005B000A591B4918FB7F894EC91111108C0D09522
:1005C000DE23DC938FBFDF91CF911F910895DE2B47
:1005D000F8CF862F642F0C94BB02CF93DF9390E06B
:1005E000FC01E452FE4F24918A569E4FFC018491F7
:1005F0008823C9F090E0880F991FFC01E85BFE4F4B
:10060000A591B491FC01EE59FE4FC591D4916111B1
:100610000DC09FB7F8948C91209582238C9388818C
:10062000282328839FBFDF91CF910895623051F432
:100630009FB7F8943C91822F809583238C93E88117
:100640002E2BEFCF8FB7F894EC912E2B2C938FBFDE
:10065000EACF862F642F0C94ED023FB7F894809177
:10066000D0029091D102A091D202B091D30226B5CE
:10067000A89B05C02F3F19F00196A11DB11D3FBFDA
:10068000BA2FA92F982F8827BC01CD01620F711DA9
:10069000811D911D42E0660F771F881F991F4A95A3
:1006A000D1F70895089520918502260F3327331F2F
:1006B00021323105ECF42091A902FC0190E080E0A8
:1006C000243069F082E00895A09185022191AC0167
:1006D0004B595D4FA40FB52FB11D2C930196861772
:1006E00098F380918502680F6093850280E00895F9
:1006F00081E0089508958FEF9FEF08958FEF9FEFAA
:10070000089580915E0290E09195819591090895F8
:10071000CF93DF93CB01EA01642F0E945303CE01F4
:10072000DF91CF910895CF93DF931F92CDB7DEB7BE
:10073000698361E0CE0101960E94530381E090E05D
:100740000F90DF91CF91089590E080E008950F938E
:100750001F93CF93DF93EC0188819981009759F023
:100760002A813B812617370730F081E0DF91CF9156
:100770001F910F9108958B016F5F7F4F0E94490B6E
:10078000009759F0998388831B830A832C813D81CC
:10079000232B59F7FC011082E8CF80E0E7CFCF93FD
:1007A000DF93EC0160E08E810E94BB0261E08E81EC
:1007B0000E94BB0260E08E810E94BB028BE891E048
:1007C0000197F1F7DF91CF910895CF92DF92EF92E9
:1007D000FF920F931F93CF93DF936C017C0187E00F
:1007E000E80EF11CD0E0C0E0062F10E0B8010C2E9E
:1007F00002C0759567950A94E2F76170F7018191DF
:100800007F010E94BB022196C430D10579F7C60151
:10081000DF91CF911F910F91FF90EF90DF90CF90DC
:100820000C94CF03CF92DF92EF92FF920F931F931E
:10083000CF93DF93EC01F62E642F8C810E94BB02D4
:100840008D818F3F19F060E00E94BB020F2D10E0F8
:100850008F8584FF25C06E0187E0C80ED11CF12C66
:10086000E12CB8010E2C02C0759567950A94E2F749
:100870006170F60181916F010E94BB02FFEFEF1AD8
:10088000FF0A88E0E816F10461F7CE01DF91CF910D
:100890001F910F91FF90EF90DF90CF900C94CF03BA
:1008A000B80184E0759567958A95E1F7CE010E94BD
:1008B000E5036F2DCE01DF91CF911F910F91FF9036
:1008C000EF90DF90CF900C94E50340E0682F87E431
:1008D00093E00C94120481E00E9465048BE39FE195
:1008E0000197F1F70895CF93DF93823029F4909127
:1008F000560398609093560380935A0310925B03BB
:1009000080E480935C0380E180935D0380E58093C5
:100910005E0361E080914B030E94ED0280914C03E5
:100920008F3F19F061E00E94ED0261E080914D037C
:100930000E94ED02C7E4D3E09E012754334080912A
:10094000560384FD0BC084E090E0219628173907F8
:1009500044F461E08E810E94ED02EECF88E090E0E9
:10096000F4CF8BE39DE00197F1F760E080914B03BA
:100970000E94BB0260E080914D030E94BB02809107
:100980004C038F3F19F060E00E94BB028091560338
:1009900084FD34C063E087E493E00E94E503CBE488
:1009A000D6E4CE010197F1F763E087E493E00E947B
:1009B000E5032197F1F763E087E493E00E94E50304
:1009C00083E592E00197F1F762E087E493E00E940B
:1009D000E5038091560380620E94650484E0809361
:1009E00057038CE00E9465040E946B0482E08093B0
:1009F000580386E0DF91CF910C94650480620E94D9
:100A000065048BE496E40197F1F7809156038062C8
:100A10000E94650483E592E00197F1F78091560307
:100A200080620E946504D5CF41E00E94120481E0FB
:100A300090E008951F93CF93DF9385ED8093BC00E2
:100A40008091610290916202A0916302B091640270
:100A50000796A11DB11D23E0B695A795979587959B
:100A60002A95D1F72091BC0024FD03C01092A90261
:100A700052C0409161025091620260916302709194
:100A80006402452B462B472B69F30097A105B1055E
:100A900041F025E32A95F1F700000197A109B1097A
:100AA000E1CF80916002C1E0C0935F02882399F199
:100AB000D091B8001091BA008091BC008A7B8093DD
:100AC000BC0060E084E10E94BB0260E085E10E941E
:100AD000BB021092A902C093AB021092AA0261E07D
:100AE00084E10E94BB0261E085E10E94BB0280912B
:100AF000B9008E7F8093B9008091B9008D7F80937B
:100B0000B90088E48093B80085E48093BC0010931A
:100B1000BA00D093B800DF91CF911F9108951F9232
:100B20000F920FB60F9211242F933F938F939F93A1
:100B3000AF93BF938091D4029091D502A091D60239
:100B4000B091D7023091CF0223E0230F2D3758F513
:100B50000196A11DB11D2093CF028093D4029093E2
:100B6000D502A093D602B093D7028091D002909183
:100B7000D102A091D202B091D3020196A11DB11D64
:100B80008093D0029093D102A093D202B093D3026B
:100B9000BF91AF919F918F913F912F910F900FBE79
:100BA0000F901F90189526E8230F0296A11DB11DE6
:100BB000D2CF1F920F920FB60F9211240BB60F9245
:100BC0002F933F934F935F936F937F938F939F9355
:100BD000AF93BF93EF93FF938091B900887F8036E6
:100BE00009F44DC008F040C0883209F4A7C028F5C8
:100BF000803109F49BC0C8F4882309F4F7C0883019
:100C000009F494C0FF91EF91BF91AF919F918F91A3
:100C10007F916F915F914F913F912F910F900BBEFC
:100C20000F900FBE0F901F901895883109F486C061
:100C3000803241F78093A80214C0803409F49BC02D
:100C400040F48033B9F38833E9F68093A80285EC49
:100C5000AEC0803509F483C0883509F494C0883467
:100C600089F60E941A05CECF883909F48AC038F572
:100C7000883729F050F4883611F0803719F683E070
:100C80008093A9021092A70255C0883809F479C050
:100C9000803919F0803809F0B5CF8091A7028032F1
:100CA00008F06FC0E091A70281E08E0F8093A70249
:100CB0008091BB00F0E0E957FD4F80833BC0803B53
:100CC00039F0D0F4803A09F477C0883A09F09ACF25
:100CD00084E08093A9021092860210928502F0E0CF
:100CE000E0E019958091850281110FC081E0809329
:100CF00085021092650209C0803C09F4A8CF883CA7
:100D000009F4A5CF883B09F07DCFE091860281E010
:100D10008E0F80938602F0E0EB59FD4F8081809327
:100D2000BB00909186028091850229C08091CE02FD
:100D30008093BB0085EC8093BC0064CF9091CD0282
:100D40008091CC02981758F5E091CD0281E08E0F8A
:100D50008093CD02F0E0E455FD4F8081E9CFE09132
:100D6000CD0281E08E0F8093CD028091BB00F0E038
:100D7000E455FD4F80839091CD028091CC0298176D
:100D8000C8F285E8D8CFE091CD0281E08E0F809344
:100D9000CD028091BB00F0E0E455FD4F808380914F
:100DA000AB0281115ECF81E08093AA0284EA809336
:100DB000BC001092A90226CF85EC8093BC00109253
:100DC000A9028091A702803230F4E091A702F0E0FE
:100DD000E957FD4F10826091A70270E087E892E02A
:100DE000F0E0E0E019951092A7020CCF1092A80253
:100DF00038CF10924A03109249038CE292E090930C
:100E000048038093470380E280934B038FEF8093E6
:100E10004C0381E280934D0382E280934E0383E290
:100E200080934F0384E28093500385E280935103C3
:100E300010925203109253031092540310925503D0
:100E40001092560381E00E9473041092DA0210920D
:100E5000DE021092DD021092DF0282E292E09093B5
:100E6000D9028093D802E4EFF2E010821482138258
:100E70001582369683E0E033F807B9F784E092E014
:100E800090933B0380933A0380E092E090933D037C
:100E900080933C0384E080933E0380933F0388E08B
:100EA00092E090933903809338038AE090E0909326
:100EB00041038093400384EF91E090934303809338
:100EC000420310924603109245031092340310928D
:100ED000350310923603109237031092440308959D
:100EE000CF93DF93CDB7DEB72E970FB6F894DEBF62
:100EF0000FBECDBF789484B5826084BD84B5816017
:100F000084BD85B5826085BD85B5816085BD8091D4
:100F10006E00816080936E0010928100809181004C
:100F20008260809381008091810081608093810044
:100F3000809180008160809380008091B100846006
:100F40008093B1008091B00081608093B000809167
:100F500091008260809391008091910081608093E4
:100F60009100809190008160809390008091A10019
:100F700082608093A1008091A10081608093A10094
:100F80008091A00081608093A00080912101826007
:100F900080932101809121018160809321018091C2
:100FA000200181608093200180917A008460809389
:100FB0007A0080917A00826080937A0080917A0032
:100FC000816080937A0080917A00806880937A00B3
:100FD0001092C10082E00E9473040E946B04412CB5
:100FE000512C3201439418861F821A8619861C865A
:100FF0001B8667E070E0CE0107960E94A7032F8151
:101000003885811160C02115310519F0C9010E9490
:10101000C00A18861F821C861B861A8619860E94A3
:101020006B041A8219821C821B821E821D8270E050
:1010300060E0CE0101960E94A70329813A818111C7
:101040004CC02115310519F0C9010E94C00A1A824D
:1010500019821E821D821C821B8221E02093440380
:101060008FB7F8944091D4025091D5026091D60286
:101070007091D7028FBF8091340390913503A09176
:101080003603B0913703481B590B6A0B7B0B8091D9
:10109000400390914103B0E0A0E084179507A607B4
:1010A000B707D8F610E080913E031817F0F4E091EE
:1010B0003A03F0913B03E10FF11D62E080810E9451
:1010C000ED021F5FF0CF87E090E09C878B8764E3A1
:1010D00072E0C9010E943C0CA2CF1E821D826DE508
:1010E00072E0C9010E943C0CB8CF312C80913F03C3
:1010F000381608F061C0E32CF12CE0913C03F0912C
:101100003D03EE0DFF1D61E080810E94ED02E09144
:101110003C03F0913D03EE0DFF1D60E080810E94D5
:10112000BB02D301C201032C04C0880F991FAA1F60
:10113000BB1F0A94D2F74C016C01C094D094212CAF
:1011400080913E03281608F5022D10E0E0913A0345
:10115000F0913B03E00FF11F80810E948F020C5F32
:101160001F4F000F111FF801E852FD4F892B41F46A
:101170008081918188299929918380832394E0CF6C
:10118000808191818C219D21F7CFE0913C03F091EA
:101190003D03EE0DFF1D61E080810E94BB02809146
:1011A0003C0390913D03E80EF91E60E0F701808159
:1011B0000E94ED0233949ACF08ED12E07801F70116
:1011C000878D90A1892B31F4148E8FEF9FEF968F2E
:1011D000858F11A296E0E90EF11CE4E1EE16E3E042
:1011E000FE0669F7912C80913E03981608F053C0D3
:1011F000812CC92CD12CCC0CDD1CC60180529D4FFA
:101200006C0120913F03821608F043C0F601608113
:101210007181082C02C0769567950A94E2F7929E38
:1012200090011124280D311DE8EDF2E080E0458D9C
:10123000568D2417350709F4AFC08F5F36968A3074
:10124000B1F760FF24C0E8EDF2E090E080E0448D6B
:10125000411118C0E0913803F0913903E20FF31FF8
:10126000408156E0589FF001599FF00D1124E8523B
:10127000FD4F448F368F258F10A2178E61E00E949C
:101280008B0105C0019636968A30910501F783944B
:10129000B8CF9394A8CF80E0F80191A19111892F44
:1012A0000A5F1F4FE016F106B9F79FB7F894409117
:1012B000D4025091D5026091D6027091D7029FBF9F
:1012C0004093340350933503609336037093370390
:1012D000882309F4C2CE8091F902882309F4BDCE97
:1012E0008091F7029091F802019709F0B6CEF09044
:1012F000F402FF2009F4B1CEF3E6FF122CC0E09116
:101300005A03E230F0F4E150F0E0E95BFC4F8489ED
:1013100080680E9465042B853C858D819E812817FD
:101320003907A1F48F81988569817A810097B1F19D
:101330006115710541F4232BF1F1FC01808190E0EE
:1013400038C0E1E0E1CF0E94330C33C040E150E00F
:101350006DE472E034C0FD861E860D811E810F5F34
:101360001F4FB801CE0101960E94A703882369F0A0
:1013700029813A818D819E81BE01635F7F4F820FFB
:10138000931F0E943C0C1E830D8341E06F2D87E468
:1013900093E00E94120461CE617071CF61157105F6
:1013A00051F0232B41F0FB01808190E091958195D4
:1013B0009109892B59F640E150E06CE372E087E433
:1013C00093E00E94FB010E942D034B015C0180ED24
:1013D000C82E87E0D82EE12CF12C0E942D0368192D
:1013E00079098A099B09683E734081059105A8F334
:1013F000F1E0CF1AD108E108F10828EE820E23E0CF
:10140000921EA11CB11CC114D104E104F10429F7FE
:1014100089819A81009711F00E94C00A8F81988576
:10142000009711F00E94C00A80E090E0892B09F437
:10143000DACD0E940000D7CDEE0FFF1F881F8BBFB3
:101440000790F691E02D19940F931F93CF93DF939C
:101450008230910510F482E090E0E0916103F09118
:10146000620330E020E0B0E0A0E0309799F421156D
:10147000310509F44AC0281B390B24303105D8F551
:101480008A819B816115710589F1FB0193838283B8
:10149000FE0111C040815181028113814817590713
:1014A000E0F04817590799F4109761F012960C93E1
:1014B000129713961C933296CF01DF91CF911F9113
:1014C0000F9108950093610310936203F4CF2115E7
:1014D000310551F04217530738F0A901DB019A0199
:1014E000BD01DF01F801C1CFEF01F9CF9093620395
:1014F00080936103CDCFFE01E20FF31F819391939F
:101500002250310939832883D7CF20915F0330914E
:101510006003232B41F420911A0230911B02309377
:10152000600320935F032091180230911902211566
:10153000310541F42DB73EB740911C0250911D0278
:10154000241B350BE0915F03F0916003E217F30772
:10155000A0F42E1B3F0B2817390778F0AC014E5F23
:101560005F4F2417350748F04E0F5F1F50936003FD
:1015700040935F03819391939FCFF0E0E0E09CCF95
:10158000CF93DF930097E9F0FC0132971382128228
:10159000A0916103B0916203ED0130E020E010976B
:1015A000A1F420813181820F931F20915F0330913C
:1015B00060032817390709F061C0F0936003E093D6
:1015C0005F03DF91CF910895EA01CE17DF07E8F5B9
:1015D0004A815B819E0141155105B1F7E901FB8309
:1015E000EA8349915991C40FD51FEC17FD0761F4A7
:1015F000808191810296840F951FE90199838883E8
:10160000828193819B838A83F0E0E0E012968D9142
:101610009C9113970097B9F52D913C911197CD01AD
:101620000296820F931F20915F0330916003281769
:10163000390739F6309751F5109262031092610321
:10164000B0936003A0935F03BCCFD383C283408178
:101650005181840F951FC817D90761F44E5F5F4F02
:1016600088819981480F591F518340838A819B81CA
:10167000938382832115310509F0B0CFF093620383
:10168000E09361039ECFFD01DC01C0CF1382128283
:10169000D7CF4F925F926F927F928F929F92AF922D
:1016A000BF92CF92DF92EF92FF920F931F93CF934F
:1016B000DF938C01009799F4CB01DF91CF911F91BB
:1016C0000F91FF90EF90DF90CF90BF90AF909F90E1
:1016D0008F907F906F905F904F900C94240AFC0144
:1016E000E60FF71F9C0122503109E217F30708F4B7
:1016F000AEC0D901CD91DC911197C617D70720F163
:10170000C530D10578F0CE0104978617970750F0C1
:10171000C61BD70B2297C193D1936D937C93CF01B6
:101720000E94C00AC801DF91CF911F910F91FF90D5
:10173000EF90DF90CF90BF90AF909F908F907F9071
:101740006F905F904F9008955B01AC1ABD0A4C01F9
:101750008C0E9D1EA0916103B0916203512C412C0F
:10176000F12CE12C109731F580915F03909160038B
:101770008815990509F05CC04616570608F058C050
:101780008091180290911902009741F48DB79EB78D
:1017900040911C0250911D02841B950BE817F9071C
:1017A00008F055C0F0936003E0935F03F901718383
:1017B0006083B8CF8D919C91119712966C9012977F
:1017C00013967C901397A815B90559F56C0142E062
:1017D000C40ED11CCA14DB0420F1AC014A195B0908
:1017E000DA011296159780F06282738251834083EA
:1017F000D9016D937C93E114F10471F0D701139634
:10180000FC93EE9312978ECF22968C0F9D1FF901B9
:1018100091838083F301EFCFF0936203E093610340
:1018200081CF4816590608F42C017D01D3019ACFC7
:10183000CB010E94240A7C01009749F0AE01B80157
:101840000E942A0CC8010E94C00A87016BCF10E0D9
:1018500000E068CFFB01DC0102C001900D92415015
:101860005040D8F70895FB01DC018D91019080195B
:101870000110D9F3990B0895FB01DC0101900D9241
:0A1880000020E1F70895F894FFCF6F
:10188A002B2C2D2E2728292A3738392F3435362A5A
:10189A003132332D63303D2B00006303800000009A
:1018AA0000002903E902B802000000001405FB0148
:1018BA00A40352033938333130323400636F727201
:1018CA006563742070617373776F72640020777236
:0E18DA006F6E672070617373776F7264200009
:00000001FF
