:020000040000FA
:100000000C9451010C9482010C9482010C94820195
:100010000C9482010C9482010C9482010C94820154
:100020000C9482010C9482010C9482010C94820144
:100030000C9482010C9482010C9482010C94820134
:100040000C9482010C9482010C9482010C94820124
:100050000C9482010C9482010C9482010C949F09EF
:100060000C9482010C9482010C9482010C94820104
:100070000C9482010C9482010C9482010C948201F4
:100080000C9482010C9482010C9482010C948201E4
:100090000C9482010C9482010C9482010C94E90965
:1000A0000C9482010C9482010C9482010C948201C4
:1000B0000C9482010C9482010C9482010C948201B4
:1000C0000C9482010C9482010C9482010C948201A4
:1000D0000C9482010C9482010C9469090C943F09E0
:1000E0000C9482010C9472030C94F8050C94A303F5
:1000F0000C943F020C9407020C941A060C94F0071F
:100100000C9445030C9429030C9415030C943303AD
:100110000C9491020C94A9040C94E3030C94060330
:100120000C943B030C94F7050C940D0B0C947D067A
:100130000C9421060C941F030C9425030C941B03B0
:100140000C9407060C9440030C94A8010C944103F2
:100150000C94A7010C942D030C94F9010C94A901A3
:100160000C9400030C94E5010C944E060C940A03C5
:100170000C9412030C940E030C94D6010C943703C8
:1001800000002100240027002A002D003000330049
:1001900001010000040107010A01000022002500FE
:1001A00028002B002E003100340002010000050160
:1001B00008010B01000020002300260029002C006C
:1001C0002F003200000100000301060109010505AE
:1001D0000505070508080808020202020A0A0808BD
:1001E00004040404010101010101010103030303EB
:1001F00003030303040707070C0C0C0C0C0C0C0C7A
:100200000202020206060606060606060B0B0B0B8A
:100210000B0B0B0B010210202008081020401020AF
:1002200040800201020108040201010204081020BA
:1002300040808040201008040201800402018040B8
:100240002010080402010804020101020408102021
:100250004080010204081020408000000A0B0209BF
:100260000C0D0E0807030401000000000000000050
:10027000000000000000000000000000000000007E
:10028000000000000000121110000000000000003B
:10029000000000000000000000000000000000005E
:1002A0000D0B11241FBECFEFD1E2DEBFCDBF00E0AA
:1002B0000CBF25E0A6E4B3E001C01D92A334B20751
:1002C000E1F713E0A0E0B2E0E4EEF6E200E00BBFFD
:1002D00002C007900D92A634B107D9F711E0C1E52D
:1002E000D1E000E006C021970109802FFE010E94A5
:1002F0003E11C035D10780E00807A9F70E94D70B4F
:100300000C9470130C94000096E0899FD001112486
:10031000A053BB4F90967C936E935F9791E091961C
:100320009C939197E0913D05F0913E0590913C059D
:10033000992339F0309751F0811108C08091EC0475
:100340001994309719F05C968C91FACF089508951E
:100350000895AF92BF92CF92DF92EF92FF920F93E8
:100360001F93CF93DF936C017B018B01040F151F4B
:10037000EB015E01AE18BF08C017D10759F06991B3
:10038000D601ED91FC910190F081E02DC601199507
:10039000892B79F7C501DF91CF911F910F91FF90C4
:1003A000EF90DF90CF90BF90AF900895FC01538DF8
:1003B000448D252F30E0842F90E0821B930B54173F
:1003C00010F0CF96089501970895FC01918D828DCC
:1003D000981761F0A28DAE0FBF2FB11D5D968C9165
:1003E000928D9F5F9F73928F90E008958FEF9FEFA4
:1003F0000895FC01918D828D981731F0828DE80F60
:10040000F11D858D90E008958FEF9FEF0895FC0119
:10041000918D228D892F90E0805C9F4F821B9109E6
:100420008F73992708958FE094E00E94070221E0DE
:10043000892B09F420E0822F0895FC01A48DA80FD8
:10044000B92FB11DA35ABF4F2C91848D90E0019616
:100450008F739927848FA689B7892C93A089B18936
:100460008C91837080648C93938D848D981306C0D7
:100470000288F389E02D80818F7D80830895EF923B
:10048000FF920F931F93CF93DF93EC0181E0888F4E
:100490009B8D8C8D98131AC0E889F989808185FF1E
:1004A00015C09FB7F894EE89FF896083E889F989C0
:1004B00080818370806480839FBF81E090E0DF91C2
:1004C000CF911F910F91FF90EF900895F62E0B8D15
:1004D00010E00F5F1F4F0F731127E02E8C8D8E11D0
:1004E0000CC00FB607FCFACFE889F989808185FF37
:1004F000F5CFCE010E941D02F1CFEB8DEC0FFD2F49
:10050000F11DE35AFF4FF0829FB7F8940B8FEA89F1
:10051000FB8980818062CFCF682F8FE094E00C94BC
:100520003F02CF93DF93EC01888D8823B9F0AA892D
:10053000BB89E889F9898C9185FD03C0808186FD9E
:100540000DC00FB607FCF7CF8C9185FFF2CF8081ED
:1005500085FFEDCFCE010E941D02E9CFDF91CF9143
:10056000089580E090E0892B49F080E090E0892BAD
:1005700029F00E94000081110E94000080E090E0BC
:10058000892B49F080E090E0892B29F00E9400003F
:1005900081110E94000080E090E0892B49F080E00A
:1005A00090E0892B29F00E94000081110E94000038
:1005B00080E090E0892B29F00E94130281110C94B5
:1005C000000008958150823108F05AC0E82FF0E011
:1005D0008827E251FD4F8F4F0C943E110E031203FA
:1005E000000306030A03400315031B031F0325032F
:1005F00029032D033303370340033B034103450322
:10060000809180008F778093800008958091800092
:100610008F7DF9CF80918000877FF5CF84B58F776C
:1006200084BD089584B58F7DFBCF8091B0008F7716
:100630008093B00008958091B0008F7DF9CF8091B4
:1006400090008F77809390000895809190008F7D27
:10065000F9CF80919000877FF5CF8091A0008F77B0
:100660008093A00008958091A0008F7DF9CF8091A4
:10067000A000877FF5CF809120018F7780932001A4
:100680000895809120018F7DF9CF80912001877F8F
:10069000F5CFCF93DF93282F30E0F901E65AFD4FD5
:1006A0008491F901EC5EFD4FD491F901E253FE4FC4
:1006B000C491CC23A1F081110E94E202EC2FF0E062
:1006C000EE0FFF1FEC54FE4FA591B491EC91ED237A
:1006D00081E090E009F480E0DF91CF91089580E01F
:1006E00090E0FACF862F0C9449031F93CF93DF93AA
:1006F000282F30E0F901E65AFD4F8491F901EC5EB4
:10070000FD4FD491F901E253FE4FC491CC23A9F0DF
:10071000162F81110E94E202EC2FF0E0EE0FFF1F76
:10072000E656FE4FA591B4918FB7F894EC91111154
:1007300008C0D095DE23DC938FBFDF91CF911F914E
:100740000895DE2BF8CF862F642F0C947503CF937A
:10075000DF9390E0FC01EC5EFD4F249182539E4FAD
:10076000FC0184918823C9F090E0880F991FFC0157
:10077000E058FE4FA591B491FC01E656FE4FC5919D
:10078000D49161110DC09FB7F8948C91209582236C
:100790008C938881282328839FBFDF91CF91089570
:1007A000623051F49FB7F8943C91822F8095832357
:1007B0008C93E8812E2BEFCF8FB7F894EC912E2BF2
:1007C0002C938FBFEACF862F642F0C94A7033FB7DB
:1007D000F89480918F0390919003A0919103B09130
:1007E000920326B5A89B05C02F3F19F00196A11DC5
:1007F000B11D3FBFBA2FA92F982F8827BC01CD016B
:10080000620F711D811D911D42E0660F771F881FC9
:10081000991F4A95D1F708958F929F92AF92BF92F8
:10082000CF92DF92EF92FF920E94E7034B015C01AF
:1008300082E3C82ED12CE12CF12C0E94E703681929
:1008400079098A099B09683E734081059105A8F3DF
:1008500021E0C21AD108E108F10888EE880E83E091
:10086000981EA11CB11CC114D104E104F10429F7A4
:10087000FF90EF90DF90CF90BF90AF909F908F90C0
:1008800008952FB7F89460918B0370918C03809139
:100890008D0390918E032FBF08950F931F93CF93D5
:1008A000DF93C82FD62F86E0C89FF0011124E053B4
:1008B000FB4F11A2878D90A181309105F1F058F086
:1008C00082309105F1F1039709F440C0DF91CF9197
:1008D0001F910F9108956623C9F361E070E08C2F9A
:1008E0000E9484010E9441046093280570932905A9
:1008F00080932A0590932B05E9CF0E944104009133
:1009000028051091290520912A0530912B05AB016E
:10091000BC01401B510B620B730B80913A05909107
:100920003B05B0E0A0E084179507A607B70748F499
:1009300062E070E08C2FDF91CF911F910F910C94AA
:10094000840163E070E0D111C1CFF4CF70E060E0CA
:10095000F1CF089520916703260F3327331F2132EB
:100960003105ECF42091E503FC0190E080E02430B7
:1009700069F082E00895A09167032191AC01495B81
:100980005C4FA40FB52FB11D2C930196861798F3D9
:1009900080916703680F6093670380E0089581E0AA
:1009A00008951092E50381E08093E4031092BF0361
:1009B00061E084E10E94750361E085E10E947503B6
:1009C000E9EBF0E080818E7F808380818D7F808362
:1009D00088E48093B80085E48093BC000895CF93A9
:1009E000DF9391E0909346038823B9F0C091B8005B
:1009F000D091BA008091BC008A7B8093BC0060E0FB
:100A000084E10E94750360E085E10E9475030E9405
:100A1000D104D093BA00C093B800DF91CF9108956C
:100A2000CF92DF92EF92FF920F931F93CF93DF93BA
:100A3000D0910E0481E0D13208F09CC0C0910D0429
:100A40000E94E7036B017C018091E50381116CC07A
:100A500082E08093E50381E08093E4038FEF80934D
:100A6000E3031092E203D093E103ADEEB3E0E1ECD7
:100A7000F3E080E0D8138DC01092C0038091C003D2
:100A8000CC0FC82BC093C0038091BF03813009F005
:100A900084C01092BF030E94E7036B017C01809128
:100AA000C0038093BB008091E7039091E803A0917D
:100AB000E903B091EA03892B8A2B8B2BA1F00E94CA
:100AC000E7030091E7031091E8032091E9033091D7
:100AD000EA036C197D098E099F0906171707280775
:100AE000390708F442C08091BC0083FDD8CF85EC63
:100AF0008093BC000E94E7036B017C018091E503B9
:100B0000823009F44CC08091E3038F3F09F469C03F
:100B10008091E303803209F466C08091E30380335F
:100B200009F463C084E026C08091E7039091E80354
:100B3000A091E903B091EA03892B8A2B8B2B09F44E
:100B400083CF0E94E7030091E7031091E80320910F
:100B5000E9033091EA036C197D098E099F09061794
:100B600017072807390708F06FCF8091E6030E9426
:100B7000EF0485E01092EC0310920E041092EB0348
:100B8000DF91CF911F910F91FF90EF90DF90CF9069
:100B900008959D9191938F5F6DCF85EEA9CF809140
:100BA000E7039091E803A091E903B091EA03892B50
:100BB0008A2B8B2B09F4A2CF0E94E7030091E70355
:100BC0001091E8032091E9033091EA036C197D0943
:100BD0008E099F09061717072807390708F08ECFD7
:100BE000C4CF80E0C7CF82E0C5CF83E0C3CF0895F4
:100BF000E091980380919703E81730F4F0E0E7560E
:100C0000FC4F808190E008958FEF9FEF08959091C1
:100C10009803809197032FEF3FEF981748F4E92F3F
:100C2000F0E0E756FC4F208130E09F5F90939803FF
:100C3000C90108958091970390919803891B990B9E
:100C40000895CF92DF92EF92FF920F931F93CF936D
:100C5000DF937C01CB018A012091EB03222389F0F1
:100C6000EB016B01C40ED51ECC15DD0569F0699151
:100C7000D701ED91FC910190F081E02DC70119950C
:100C8000F3CF642F0E94AA04C801DF91CF911F9176
:100C90000F91FF90EF90DF90CF900895CF93DF9367
:100CA0001F92CDB7DEB769832091EB032223F9F0C1
:100CB00020910E04203258F021E030E0FC01338313
:100CC000228390E080E00F90DF91CF910895809192
:100CD000EC03E82FF0E0E351FC4F998190838F5FA4
:100CE0008093EC0380930E0481E090E0ECCF61E010
:100CF000CE0101960E94AA04F7CF90E080E008950B
:100D0000CF93DF93EC010497D1F060E080E10E9483
:100D1000750360E081E10E94750360E082E10E945A
:100D2000750360E083E10E947503CC0FDD1FCA5D8F
:100D3000DD4F61E08881DF91CF910C94750361E014
:100D400080E10E94750361E081E10E94750361E02A
:100D500082E10E94750361E083E1EDCFCF93DF93E1
:100D6000EC0160E08E810E94750361E08E810E943B
:100D7000750360E08E810E9475038BE891E0019716
:100D8000F1F7DF91CF910895CF92DF92EF92FF922A
:100D90000F931F93CF93DF936C017C0187E0E80EE4
:100DA000F11CD0E0C0E0062F10E0B8010C2E02C00C
:100DB000759567950A94E2F76170F70181917F015B
:100DC0000E9475032196C430D10579F7C601DF91E1
:100DD000CF911F910F91FF90EF90DF90CF900C94E7
:100DE000AE06CF92DF92EF92FF920F931F93CF93B5
:100DF000DF93EC01F62E642F8C810E9475038D81A8
:100E00008F3F19F060E00E9475030F2D10E08F8571
:100E100084FF25C06E0187E0C80ED11CF12CE12CA7
:100E2000B8010E2C02C0759567950A94E2F76170BF
:100E3000F60181916F010E947503FFEFEF1AFF0A1F
:100E400088E0E816F10461F7CE01DF91CF911F91A0
:100E50000F91FF90EF90DF90CF900C94AE06B80109
:100E600084E0759567958A95E1F7CE010E94C406E6
:100E70006F2DCE01DF91CF911F910F91FF90EF90D9
:100E8000DF90CF900C94C40640E0682F88EB94E08C
:100E90000C94F106CF93DF93823029F49091C7042C
:100EA00098609093C7048093CB041092CC0480E4A4
:100EB0008093CD0480E18093CE0480E58093CF04BD
:100EC00061E08091BC040E94A7038091BD048F3F24
:100ED00019F061E00E94A70361E08091BE040E94C6
:100EE000A703C8EBD4E09E01285B34408091C7047F
:100EF00084FD0BC084E090E021962817390744F464
:100F000061E08E810E94A703EECF88E090E0F4CFED
:100F10008BE39DE00197F1F760E08091BC040E94B3
:100F2000750360E08091BE040E9475038091BD044A
:100F30008F3F19F060E00E9475038091C70484FD23
:100F400039C063E088EB94E00E94C406CBE4D6E4A9
:100F5000CE010197F1F763E088EB94E00E94C406AC
:100F60002197F1F763E088EB94E00E94C40683E5E3
:100F700092E00197F1F762E088EB94E00E94C406EA
:100F80008091C70480620E94440784E08093C80473
:100F90008CE00E94440781E00E9444078BE39FE1BC
:100FA0000197F1F782E08093C90486E0DF91CF9149
:100FB0000C94440780620E9444078BE496E40197F6
:100FC000F1F78091C70480620E94440783E592E0B4
:100FD0000197F1F78091C70480620E944407D0CF47
:100FE00041E00E94F10681E090E00895FB0101904C
:100FF0000020E9F73197AF01461B570BDC01ED915B
:10100000FC910280F381E02D19948F929F92AF9210
:10101000BF92CF92DF92EF92FF920F931F93CF93E5
:10102000DF93CDB7DEB7A1970FB6F894DEBF0FBE42
:10103000CDBF6B017C01F7FE41C08DE20E948C02A6
:101040008C0122273327A9012C193D094E095F097C
:1010500019A2CE0181967C019AE0892E912CA12CB7
:10106000B12CCA01B901A50194010E941C11605D57
:10107000F70162937F01211531054105510589F77B
:1010800090E080E0309729F0BF018FE094E00E946B
:10109000F607800F911FA1960FB6F894DEBF0FBE22
:1010A000CDBFDF91CF911F910F91FF90EF90DF9017
:1010B000CF90BF90AF909F908F900895AC019B010F
:1010C00019A28E010F5D1F4F8AE0C82ED12CE12C92
:1010D000F12CCA01B901A70196010E941C11605DA3
:1010E000F80162938F01211531054105510589F7FA
:1010F00090E080E0309779F2BF018FE094E00E94A9
:10110000F607C9CFCF93DF93BC018FE094E00E9434
:10111000F607EC0168E672E08FE094E00E94F607C3
:101120008C0F9D1FDF91CF9108950C94F6070F93BC
:101130001F93CF93C82F8B0181E08093EB0380E551
:1011400080930D041092EC0310920E0460E08CEA80
:1011500094E00E944E066C2F8CEA94E00E944E06AA
:101160008BE692E00E948208F801C081C05360E0E3
:1011700070E0CB010E9405086FE772E08FE094E019
:101180000E949508F80180810E948C0268E872E054
:101190008FE094E00E9495086C2F8CEA94E00E9406
:1011A0004E060E940C040E941005CF911F910F91D2
:1011B0000C940C04CF93DF93EC0181E00E94440770
:1011C0008BE39FE10197F1F7C230D105D1F04CF4E8
:1011D0002097A1F067E972E0219751F0DF91CF915C
:1011E0000895C330D10581F06DEB72E02497B1F71B
:1011F00088EB94E0DF91CF910C9495086EE872E053
:10120000F7CF66EA72E0F4CF66EB72E0F1CF85EDDE
:101210008093BC008091E7039091E803A091E903DB
:10122000B091EA030796A11DB11D23E0B695A795DD
:10123000979587952A95D1F72091BC0024FD03C08E
:101240001092E50308954091E7035091E8036091FF
:10125000E9037091EA03452B462B472B69F300976E
:10126000A105B10541F025E32A95F1F700000197AA
:10127000A109B109E1CF8091E6030C94EF041F921C
:101280000F920FB60F9211240BB60F922F933F932C
:101290004F935F936F937F938F939F93AF93BF937E
:1012A000EF93FF938FE094E00E941D02FF91EF9176
:1012B000BF91AF919F918F917F916F915F914F916E
:1012C0003F912F910F900BBE0F900FBE0F901F906C
:1012D00018951F920F920FB60F9211240BB60F9212
:1012E0002F938F939F93EF93FF93E0911F04F091BF
:1012F00020048081E0912504F091260482FD1DC028
:101300009081809128048F5F8F7320912904821728
:1013100041F0E0912804F0E0E15FFB4F958F80936E
:101320002804FF91EF919F918F912F910F900BBE09
:101330000F900FBE0F901F9018958081F2CF1F92D3
:101340000F920FB60F9211242F933F938F939F9379
:10135000AF93BF9380918B0390918C03A0918D03E9
:10136000B0918E0330918A0323E0230F2D3758F577
:101370000196A11DB11D20938A0380938B03909346
:101380008C03A0938D03B0938E0380918F03909173
:101390009003A0919103B09192030196A11DB11DFC
:1013A00080938F0390939003A0939103B093920343
:1013B000BF91AF919F918F913F912F910F900FBE51
:1013C0000F901F90189526E8230F0296A11DB11DBE
:1013D000D2CF1F920F920FB60F9211240BB60F921D
:1013E0002F933F934F935F936F937F938F939F932D
:1013F000AF93BF93EF93FF938091B900887F8036BE
:1014000009F44DC008F040C0883209F4A9C028F59D
:10141000803109F49DC0C8F4882309F4FBC08830EA
:1014200009F496C0FF91EF91BF91AF919F918F9179
:101430007F916F915F914F913F912F910F900BBED4
:101440000F900FBE0F901F901895883109F488C037
:10145000803241F78093E30314C0803409F49DC0C7
:1014600040F48033B9F38833E9F68093E30385ECE5
:10147000B0C0803509F485C0883509F496C0883439
:1014800089F60E940709CECF883909F48CC038F557
:10149000883729F050F4883611F0803719F683E048
:1014A0008093E5031092890357C0883809F47BC004
:1014B000803919F0803809F0B5CF809189038032E6
:1014C00008F071C0E091890381E08E0F8093890359
:1014D0008091BB00F0E0E759FC4F80833DC0803B2A
:1014E00039F0E0F4803A09F479C0883A09F09ACFEB
:1014F00084E08093E5031092680310926703E09103
:101500009503F091960319958091670381110FC09F
:1015100081E0809367031092470309C0803C09F47F
:10152000A6CF883C09F4A3CF883B09F07BCFE0919C
:10153000680381E08E0F80936803F0E0E95BFC4F65
:1015400080818093BB00909168038091670329C0DC
:101550008091C0038093BB0085EC8093BC0062CF78
:101560009091E2038091E103981758F5E091E2032E
:1015700081E08E0F8093E203F0E0EF53FC4F808117
:10158000E9CFE091E20381E08E0F8093E203809146
:10159000BB00F0E0EF53FC4F80839091E203809119
:1015A000E1039817C8F285E8D8CFE091E20381E023
:1015B0008E0F8093E2038091BB00F0E0EF53FC4F6D
:1015C00080838091E40381115CCF81E08093BF032D
:1015D00084EA8093BC001092E50324CF85EC8093CD
:1015E000BC001092E50380918903803230F4E091D1
:1015F0008903F0E0E759FC4F10826091890370E0A5
:10160000E0919303F091940389E693E01995109289
:10161000890308CF1092E30334CF10921204109282
:10162000110488EE93E0A0E0B0E08093130490935F
:101630001404A0931504B093160422E332E030930F
:10164000100420930F0425E331E030931C04209311
:101650001B0424E331E030931E0420931D0420E397
:1016600031E03093200420931F0421E331E03093D4
:1016700022042093210422E331E0309324042093B8
:10168000230426E331E030932604209325041092AE
:1016900028041092290410922A0410922B0410920C
:1016A000AF041092AE048093B0049093B104A09361
:1016B000B204B093B30484E492E09093AD048093B9
:1016C000AC041092D2041092D6041092D504109259
:1016D000D70482E692E09093D1048093D004ECEE9C
:1016E000F4E01082148213821582369685E0E83287
:1016F000F807B9F78CE092E09093330580933205B8
:1017000088E092E0909335058093340584E08093DF
:1017100036058093370580E192E090933105809300
:1017200030058AE090E0909339058093380584EF86
:1017300091E090933B0580933A0510923E051092FC
:101740003D0510922C0510922D0510922E05109239
:101750002F0510923C051092BB041092BA0486E546
:1017600092E09093B9048093B80482E38093BC0420
:101770008FEF8093BD0483E38093BE048DE280935A
:10178000BF048EE28093C0048FE28093C10480E3A3
:101790008093C2041092C3041092C4041092C50432
:1017A0001092C6041092C70481E00C944A07CF93AC
:1017B000DF93CDB7DEB762970FB6F894DEBF0FBEEA
:1017C000CDBF789484B5826084BD84B5816084BDCA
:1017D00085B5826085BD85B5816085BD80916E00CF
:1017E000816080936E001092810080918100826000
:1017F000809381008091810081608093810080913D
:1018000080008160809380008091B100846080932B
:10181000B1008091B00081608093B0008091910010
:10182000826080939100809191008160809391000B
:10183000809190008160809390008091A1008260EF
:101840008093A1008091A10081608093A10080918C
:10185000A00081608093A00080912101826080932C
:1018600021018091210181608093210180912001DB
:1018700081608093200180917A00846080937A0057
:1018800080917A00826080937A0080917A008160F2
:1018900080937A0080917A00806880937A00109219
:1018A000C10061E080E10E94A70361E081E10E9444
:1018B000A70361E082E10E94A70361E083E10E9447
:1018C000A703E0911F04F091200482E08083E0915F
:1018D0001B04F0911C041082E0911D04F0911E0481
:1018E0008FEC808310922704E0912304F09124046C
:1018F00086E08083E0912104F09122048081806160
:101900008083E0912104F0912204808188608083AB
:10191000E0912104F0912204808180688083E0912D
:101920002104F091220480818F7D8083109298039E
:10193000109297031092EC0310920E040E94D104AF
:1019400087EA91E0909396038093950388EA91E06B
:10195000909394038093930382E00E944A0786EC5D
:1019600092E00E94820881E08093EB0380E58093FF
:101970000D041092EC0310920E0460E08CEA94E0E7
:101980000E944E0660E08CEA94E00E944E060E949F
:1019900010050E94E7036B017C018091E503811132
:1019A00065C081E08093E5038093E4039FEF90930B
:1019B000E3031092E20394E09093E1038093C00369
:1019C0008091C003806A8093C0038091BF038130FF
:1019D00009F019C11092BF030E94E7036B017C015B
:1019E0008091C0038093BB008091E7039091E8034E
:1019F000A091E903B091EA03892B8A2B8B2BA1F0EC
:101A00000E94E7030091E7031091E8032091E903A6
:101A10003091EA036C197D098E099F090617170793
:101A20002807390708F443C08091BC0083FDD8CF54
:101A300085EC8093BC000E94E7036B017C018091E0
:101A4000E503813009F4E1C08091E203853008F0BC
:101A5000FEC08091E203A1ECB3E0E9E9F3E090E09D
:101A6000981751F12D9121939F5FFACF8091E70351
:101A70009091E803A091E903B091EA03892B8A2BA6
:101A80008B2B09F48ACF0E94E7030091E7031091A2
:101A9000E8032091E9033091EA036C197D098E096E
:101AA0009F09061717072807390708F076CF809196
:101AB000E6030E94EF0480E010929803809397035E
:101AC00080ED92E00E9482089E012F5F3F4F7901D6
:101AD0006901812C912C54018CEA94E00E94070644
:101AE00010E3180FF60111936F01C501B4010E94B4
:101AF00005086FE772E08FE094E00E949508812F5F
:101B00000E948C0268E872E08FE094E00E949508E1
:101B1000FFEF8F1A9F0AAF0ABF0A25E082169104D1
:101B2000A104B104C9F668E672E08FE094E00E9477
:101B3000F6071981812F0E948C0268E672E08FE01F
:101B400094E00E94F60780ED810F853040F4812FEC
:101B5000110F990BC0979093BE038093BD03DE01D4
:101B60001296E2E0F2E097012B5F3F4F8D919FECE0
:101B7000980F993010F48053808331962A173B07D1
:101B8000A9F78091BD039091BE030E94DA0880916D
:101B9000BD039091BE030E94800638EE432E33E0D1
:101BA000532E612C712C31E030933C050E9441048E
:101BB00000912C0510912D0520912E0530912F05B7
:101BC000AB01BC01401B510B620B730B80913805BC
:101BD00090913905B0E0A0E084179507A607B707F4
:101BE00008F079C110E080913605181790F5E09162
:101BF0003205F0913305E10FF11D62E080810E9412
:101C0000A7031F5FF0CF85EE14CF8091E70390917B
:101C1000E803A091E903B091EA03892B8A2B8B2B6F
:101C200009F40DCF0E94E7030091E7031091E80348
:101C30002091E9033091EA036C197D098E099F090F
:101C4000061717072807390708F0F9CE30CF85E0C7
:101C500002CF312C80913705381608F063C0C32CB1
:101C6000D12CE0913405F0913505EC0DFD1D61E0BE
:101C700080810E94A703E0913405F0913505EC0DB9
:101C8000FD1D60E080810E94750381E090E0A0E08E
:101C9000B0E0032C04C0880F991FAA1FBB1F0A9431
:101CA000D2F74C015C01A094B094212C80913605B0
:101CB000281608F5022D10E0E0913205F091330569
:101CC000E00FF11F80810E9449030C5F1F4F000F3E
:101CD000111FF801E053FB4F892B41F48081918162
:101CE00088299929918380832394E0CF80819181F1
:101CF0008A219B21F7CFE0913405F0913505EC0D59
:101D0000FD1D61E080810E947503809134059091F2
:101D10003505C80ED91E60E0F60180810E94A70338
:101D2000339498CF90EDC92E94E0D92E8601F80116
:101D3000878D90A1892B31F4148E2FEF3FEF368FD2
:101D4000258F11A20A5F1F4F35E00C30130779F77A
:101D5000B12C80913605B81608F053C0A12C8B2CFD
:101D6000912C880C991CC40188529B4F4C012091E6
:101D70003705A21608F043C0F401608171810A2C76
:101D800002C0769567950A94E2F7B29E90011124FD
:101D90002A0D311DE0EDF4E080E0458D568D2417CD
:101DA000350709F4FEC18F5F36968A30B1F760FFC0
:101DB00024C0E0EDF4E090E080E0448D411118C0D3
:101DC000E0913005F0913105E20FF31F408156E0BC
:101DD000589FF001599FF00D1124E053FB4F448FA1
:101DE000368F258F10A2178E61E00E944D0405C02A
:101DF000019636968A30910501F7A394B8CFB39433
:101E0000A8CFB12CF60181A18111B82EF6E0CF0E3A
:101E1000D11C0C151D05B1F70E94410460932C05DF
:101E200070932D0580932E0590932F05BB2009F408
:101E300052C08091F104882309F44DC08091EF04D1
:101E40009091F004019709F046C01091EC04111133
:101E500045C08091BC03882309F4A5CE0091BD0341
:101E60001091BE030430110509F49DCE8091060245
:101E7000909107020817190709F4DFC010930702B1
:101E8000009306020E9441047093BA036093B90361
:101E900087E393E00E948208E091BD03F091BE03C6
:101EA000EE5FFD4F8081E8EEF3E08E9FB0018F9FE3
:101EB000700D11247093010260930002072E000C34
:101EC000880B990B0E94050868E672E08FE094E0A9
:101ED0000E94F60768CE10923C05BBCF1F32D9F4A2
:101EE0008091BD039091BE030497A9F41092BC03A6
:101EF0002FEF3FEF30930702209306021092BE03AC
:101F00001092BD0390E080E00E94800690E080E0A7
:101F10000E94DA089ECF80ED810F8A30D8F466EEF9
:101F200072E08FE094E00E9495086091BD0370918B
:101F3000BE036F5F7F4F072E000C880B990B0E942A
:101F4000050868E672E08FE094E00E94F6071093BF
:101F5000BB037FCF133219F58091BC03811179CF78
:101F60008091BB0390ED980F953008F072CF282F29
:101F7000082E000C330B205331093093BE032093FD
:101F8000BD038983B70180E00E9497080091BD03DB
:101F90001091BE03C8010E948006C801B9CF18374E
:101FA000B1F48EE193E00E9482082091BB038091FE
:101FB000BD039091BE03FC01EE5FFD4F90ED920FCB
:101FC00090832983B7018F5F0E94970842CF1B320D
:101FD00021F431E03093BC033CCF1D3209F039CFFE
:101FE0001092BC03809100029091010268EE73E0B0
:101FF0000E940811D62E0E9441040091BD03109149
:10200000BE030E5F1D4F8090B9039090BA03092C58
:10201000000CAA08BB08681979098A099B09A30161
:1020200092010E941C11D21AF801D0822FEF3FEFCB
:1020300030930702209306020CCF0E944104809047
:10204000B9039090BA03092C000CAA08BB086819C0
:1020500079098A099B09A30192010E941C1164510C
:102060007109613C734008F44EC00E944104681934
:1020700079098A099B09A30192010E941C11490157
:10208000C8010E94DA08E091CB04E23008F084C075
:10209000E150F0E0E854FB4F848980680E944407D7
:1020A000809100029091010268EE73E00E94081195
:1020B000CB01881999094AE0B7010E94D310F701B2
:1020C00001900020E9F731978F010E191F09B8011F
:1020D0006F5F7F4F90E080E00E947F126C0100975D
:1020E00009F45CC0FC011082B7010E946913A801C9
:1020F000B60188EB94E00E94A901C114D10419F043
:10210000C6010E94F611809100029091010268EED2
:1021100073E00E9408114B01770FAA08BB080E94C8
:1021200041040091B9031091BA03012E000C220B57
:10213000330B601B710B820B930BA30192010E9466
:102140001C1182169306A406B50609F02CCD8091C9
:10215000BD039091BE03019665E070E00E940811F6
:102160009093BE038093BD038430910511F41092C7
:10217000BC03805D8983B70180E00E94970880914D
:10218000BD039091BE030E94DA088091BD03909137
:10219000BE030E94800607CDE1E07BCF10E000E0A7
:1021A000A6CF617022CEBB274A3031F4992322F4A6
:1021B000BDE2909581959F4F0C94DF10BB27FB01EA
:1021C0005527AA27880F991FAA1FA41710F0A41B30
:1021D00083955051B9F7A05DAA3308F0A95DA1938A
:1021E000009779F7B111B1931192CB010C94F810CB
:1021F000DC01FC01672F71917723E1F7329704C06E
:102200007C916D9370836291AE17BF07C8F30895F8
:1022100097FB072E16F4009407D077FD09D00E9493
:10222000461107FC05D03EF4909581959F4F089587
:10223000709561957F4F0895A1E21A2EAA1BBB1BD2
:10224000FD010DC0AA1FBB1FEE1FFF1FA217B30782
:10225000E407F50720F0A21BB30BE40BF50B661F98
:10226000771F881F991F1A9469F76095709580955C
:1022700090959B01AC01BD01CF010895EE0FFF1FAA
:10228000881F8BBF0790F691E02D1994AA1BBB1BEA
:1022900051E107C0AA1FBB1FA617B70710F0A61B66
:1022A000B70B881F991F5A95A9F780959095BC0187
:1022B000CD0108950F931F93CF93DF938230910543
:1022C00010F482E090E0E0914105F091420530E0A9
:1022D00020E0B0E0A0E0309799F42115310509F431
:1022E0004AC0281B390B24303105D8F58A819B81DF
:1022F0006115710589F1FB0193838283FE0111C091
:10230000408151810281138148175907E0F0481735
:10231000590799F4109761F012960C93129713963F
:102320001C933296CF01DF91CF911F910F910895A9
:102330000093410510934205F4CF2115310551F06A
:102340004217530738F0A901DB019A01BD01DF01F3
:10235000F801C1CFEF01F9CF909342058093410579
:10236000CDCFFE01E20FF31F8193919322503109EB
:1023700039832883D7CF20913F0530914005232B07
:1023800041F42091220230912302309340052093A2
:102390003F0520912002309121022115310541F4A1
:1023A0002DB73EB74091240250912502241B350BD6
:1023B000E0913F05F0914005E217F307A0F42E1BD2
:1023C0003F0B2817390778F0AC014E5F5F4F241799
:1023D000350748F04E0F5F1F5093400540933F056F
:1023E000819391939FCFF0E0E0E09CCFCF93DF9378
:1023F0000097E9F0FC01329713821282A091410507
:10240000B0914205ED0130E020E01097A1F4208169
:102410003181820F931F20913F053091400528178D
:10242000390709F061C0F0934005E0933F05DF9163
:10243000CF910895EA01CE17DF07E8F54A815B8165
:102440009E0141155105B1F7E901FB83EA834991EA
:102450005991C40FD51FEC17FD0761F4808191815C
:102460000296840F951FE901998388838281938165
:102470009B838A83F0E0E0E012968D919C91139704
:102480000097B9F52D913C911197CD010296820FDD
:10249000931F20913F05309140052817390739F6E1
:1024A000309751F51092420510924105B0934005C6
:1024B000A0933F05BCCFD383C28340815181840F59
:1024C000951FC817D90761F44E5F5F4F88819981C6
:1024D000480F591F518340838A819B819383828354
:1024E0002115310509F0B0CFF0934205E093410585
:1024F0009ECFFD01DC01C0CF13821282D7CF4F9255
:102500005F926F927F928F929F92AF92BF92CF9283
:10251000DF92EF92FF920F931F93CF93DF938C0183
:10252000009799F4CB01DF91CF911F910F91FF900C
:10253000EF90DF90CF90BF90AF909F908F907F9063
:102540006F905F904F900C945A11FC01E60FF71FAB
:102550009C0122503109E217F30708F4AEC0D901FB
:10256000CD91DC911197C617D70720F1C530D10561
:1025700078F0CE0104978617970750F0C61BD70B4B
:102580002297C193D1936D937C93CF010E94F61152
:10259000C801DF91CF911F910F91FF90EF90DF90D5
:1025A000CF90BF90AF909F908F907F906F905F90F3
:1025B0004F9008955B01AC1ABD0A4C018C0E9D1E14
:1025C000A0914105B0914205512C412CF12CE12CF8
:1025D000109731F580913F05909140058815990538
:1025E00009F05CC04616570608F058C080912002DA
:1025F00090912102009741F48DB79EB7409124023B
:1026000050912502841B950BE817F90708F055C077
:10261000F0934005E0933F05F90171836083B8CFE3
:102620008D919C91119712966C90129713967C90B5
:102630001397A815B90559F56C0142E0C40ED11CD9
:10264000CA14DB0420F1AC014A195B09DA011296C5
:10265000159780F06282738251834083D9016D9314
:102660007C93E114F10471F0D7011396FC93EE937F
:1026700012978ECF22968C0F9D1FF9019183808334
:10268000F301EFCFF0934205E093410581CF481667
:10269000590608F42C017D01D3019ACFCB010E9489
:1026A0005A117C01009749F0AE01B8010E946013F5
:1026B000C8010E94F61187016BCF10E000E068CFDF
:1026C000FB01DC0102C001900D9241505040D8F74F
:1026D0000895FB01DC0101900D920020E1F70895BF
:1026E000F894FFCF050003060606FFFF0302010072
:1026F000070605043738392F343536783132332D13
:1027000023303D2B00004305800010001100120013
:102710001300000000003F02A901D6019102070248
:10272000E501F901000000004E0621067D06F705CF
:102730001A060706F80500000000F007A9017D064B
:10274000A90400000000E303A30372030D0A00774D
:10275000726974696E6720746F206D656D6F727930
:102760003A20002D44617461203D200020207C200F
:1027700020007072655F77617368006465746572CC
:1027800067656E742077617368007761736820777E
:1027900069746820776174657200647279696E6724
:1027A0000066696E697368656400726573746F7240
:1027B000696E670072656164696E6720666F726D2D
:1027C000206D656D6F72793A2000707265737320A9
:1027D0005820746F207361766520696E206375726E
:1027E00072656E74206D6F6465206F722043207473
:1027F0006F2073746172742074686973206D6F64E4
:10280000650074727920746F207361766520707230
:1028100065736564206B65793A2000737461727426
:0A282000206E6577206D6F640000E4
:020000040003F7
:10E000000D9489F10D94B2F10D94B2F10D94B2F129
:10E010000D94B2F10D94B2F10D94B2F10D94B2F1F0
:10E020000D94B2F10D94B2F10D94B2F10D94B2F1E0
:10E030000D94B2F10D94B2F10D94B2F10D94B2F1D0
:10E040000D94B2F10D94B2F10D94B2F10D94B2F1C0
:10E050000D94B2F10D94B2F10D94B2F10D94B2F1B0
:10E060000D94B2F10D94B2F10D94B2F10D94B2F1A0
:10E070000D94B2F10D94B2F10D94B2F10D94B2F190
:10E080000D94B2F10D94B2F10D94B2F10D94B2F180
:10E090000D94B2F10D94B2F10D94B2F10D94B2F170
:10E0A0000D94B2F10D94B2F10D94B2F10D94B2F160
:10E0B0000D94B2F10D94B2F10D94B2F10D94B2F150
:10E0C0000D94B2F10D94B2F10D94B2F10D94B2F140
:10E0D0000D94B2F10D94B2F10D94B2F10D94B2F130
:10E0E0000D94B2F141546D656761323536300041AF
:10E0F000726475696E6F206578706C6F72657220DE
:10E1000073746B3530305632206279204D4C530099
:10E11000426F6F746C6F616465723E004875683F52
:10E1200000436F6D70696C6564206F6E203D200048
:10E130004350552054797065202020203D20005FF9
:10E140005F4156525F415243485F5F3D2000415658
:10E1500052204C696243205665723D20004743437C
:10E160002056657273696F6E203D20004350552024
:10E1700049442020202020203D20004C6F7720663D
:10E18000757365202020203D20004869676820665F
:10E190007573652020203D200045787420667573D6
:10E1A00065202020203D20004C6F636B2066757336
:10E1B000652020203D20004D617220203720323024
:10E1C000313300312E362E3800342E332E350056A2
:10E1D00023202020414444522020206F7020636F70
:10E1E00064652020202020696E73747275637469E1
:10E1F0006F6E2061646472202020496E74657272B3
:10E20000757074006E6F20766563746F7200726A49
:10E210006D702020006A6D70200057686174207056
:10E220006F72743A00506F7274206E6F7420737541
:10E2300070706F72746564004D7573742062652030
:10E2400061206C6574746572002000577269747483
:10E25000696E672045450052656164696E672045B7
:10E26000450045452065727220636E743D00504F35
:10E27000525400303D5A65726F2061646472003FF1
:10E280003D43505520737461747300403D454550C3
:10E29000524F4D207465737400423D426C696E6B41
:10E2A000204C454400453D44756D70204545505215
:10E2B0004F4D00463D44756D7020464C415348001B
:10E2C000483D48656C70004C3D4C69737420492F83
:10E2D0004F20506F72747300513D51756974005234
:10E2E0003D44756D702052414D00563D73686F7707
:10E2F00020696E7465727275707420566563746FF0
:10E30000727300593D506F727420626C696E6B00BD
:10E310002A0011241FBECFEFD1E2DEBFCDBF01E046
:10E320000CBF12E0A0E0B2E0EEE1FDEF03E00BBFB6
:10E3300002C007900D92A030B107D9F712E0A0E01B
:10E34000B2E001C01D92AE30B107E1F70F9460F367
:10E350000D948DFE01E20EBF0FEF0DBF11241FBE05
:10E360000D9460F30D9400F020E030E040ED57E0B4
:10E3700005C0FA013197F1F72F5F3F4F2817390792
:10E38000C0F308959C01260F311DC901A0E0B0E043
:10E390002F5F3F4FABBFFC018791882361F08093D3
:10E3A000C6008091C00086FFFCCF8091C0008064D1
:10E3B0008093C000EACF08958DE08093C6008091DD
:10E3C000C00086FFFCCF8091C00080648093C000B5
:10E3D0008AE08093C6008091C00086FFFCCF8091C8
:10E3E000C00080648093C00008950F94C2F10F9420
:10E3F000DCF10895FC019081992359F09093C600B7
:10E400008091C00086FFFCCF8091C0008064809323
:10E41000C0003196992379F70895282F982F929567
:10E420009F70892F805D8A3308F0895F8093C600D2
:10E430008091C00086FFFCCF8091C00080648093F3
:10E44000C000822F8F70982F905D9A3308F0995FEB
:10E450009093C6008091C00086FFFCCF8091C000E1
:10E4600080648093C00008959C01FB01853691056E
:10E470001CF46330710594F0C90164E670E00F94F8
:10E480002EFE605D7F4F6093C6008091C00086FFC6
:10E49000FCCF8091C00080648093C0002B30310598
:10E4A00014F43297B4F0C90164E670E00F942EFEC4
:10E4B0006AE070E00F942EFE605D7F4F6093C600AF
:10E4C0008091C00086FFFCCF8091C0008064809363
:10E4D000C000C9016AE070E00F942EFEC0968093E0
:10E4E000C6008091C00086FFFCCF8091C000806490
:10E4F0008093C00008951F93182F8EE692EE60E07F
:10E500000F94C2F11093C6008091C00086FFFCCF2B
:10E510008091C00080648093C0000F94DCF11F9153
:10E5200008952F923F924F925F926F927F928F92B7
:10E530009F92AF92BF92CF92DF92EF92FF920F9392
:10E540001F93DF93CF93CDB7DEB762970FB6F894E2
:10E55000DEBF0FBECDBF382E622ECA01DB015C01CB
:10E560006D01772420E2222E2E010894411C511CBB
:10E570008BC081E0A81680E0B80681E0C80680E084
:10E58000D80628F0C601AA27BB270F940DF2BB2797
:10E59000AD2D9C2D8B2D0F940DF28A2D0F940DF225
:10E5A0002092C6008091C00086FFFCCF8091C00001
:10E5B00080648093C0009DE29093C6008091C0006B
:10E5C00086FFFCCF8091C00080648093C0002092C1
:10E5D000C6008091C00086FFFCCF8091C00080649F
:10E5E0008093C00019828601750188249924A1E0D6
:10E5F0003A1651F03A1620F0B2E03B1661F409C029
:10E600000BBFF701779007C0C7010F9477FE782EF4
:10E6100002C0F7017080872D0F940DF22092C60082
:10E620008091C00086FFFCCF8091C0008064809301
:10E63000C000872D8052F401EF70F0708F3520F408
:10E64000E40DF51D708204C0E40DF51D8EE280839B
:10E650000894E11CF11C011D111D0894811C911CE2
:10E6600090E18916910409F0C2CF80E190E0A0E02A
:10E67000B0E0A80EB91ECA1EDB1E198AC2010F9493
:10E68000FAF10F94DCF16A94662009F072CF629679
:10E690000FB6F894DEBF0FBECDBFCF91DF911F91B3
:10E6A0000F91FF90EF90DF90CF90BF90AF909F9031
:10E6B0008F907F906F905F904F903F902F90089534
:10E6C0002F923F924F925F926F927F928F929F9282
:10E6D000AF92BF92CF92DF92EF92FF920F931F9370
:10E6E000DF93CF93CDB7DEB7CD53D1400FB6F894BB
:10E6F000DEBF0FBECDBF01E20EBF0FEF0DBF94B75F
:10E70000F894A89514BE80916000886180936000A1
:10E7100010926000789493FF05C0E0910002F091A0
:10E7200001021995279A2F9A8091C00082608093E8
:10E73000C00080E18093C40088E18093C1000000A4
:10E74000EE24FF24870144E0A42EB12CCC24DD2448
:10E7500024C0C5010197F1F70894E11CF11C011DCB
:10E76000111D21E2E2162EE4F20620E0020720E06D
:10E77000120718F031E0C32ED12CC801B70127ECE5
:10E780003BE140E050E00F9441FE611571058105C9
:10E79000910519F485B1805885B98091C00087FD35
:10E7A00003C0C114D104A9F2A6014F5F5F4FC25E3E
:10E7B000DE4F59834883CE51D140C25EDE4F8881FF
:10E7C0009981CE51D140019711F00D9410FEC05D9A
:10E7D000DE4F19821882C053D14060E0C15DDE4F28
:10E7E0001882CF52D14088249924C35DDE4F19820C
:10E7F0001882CD52D140C05EDE4F188219821A8233
:10E800001B82C052D140CE5CDE4F188219821A8220
:10E810001B82C253D140EE24FF2487010BBFF701B6
:10E8200007911691C45CDE4F19830883CC53D14005
:10E830000D940BFEC25EDE4F28813981CE51D1404E
:10E840002130310509F52091C600C25EDE4F1982E4
:10E850001882CE51D14022C02F5F3F4F4F4F5F4FA4
:10E86000213082E138078AE7480780E0580780F0C6
:10E87000C45CDE4FE881F981CC53D140EF5FFF4F9C
:10E8800019F0EE27FF27099420E030E040E050E047
:10E890008091C00087FFE0CF2091C600C35DDE4FAE
:10E8A00048815981CD52D1404F5F5F4FC35DDE4FEC
:10E8B00059834883CD52D140213209F063C64A3092
:10E8C000510508F05FC60894811C911C53E0851621
:10E8D000910409F059C600E010E018C081E280936D
:10E8E000C6008091C00086FFFCCF8091C00080648C
:10E8F0008093C0002F5F3F4F2931310579F70F9486
:10E90000DCF10F5F1F4F0530110519F020E030E0FA
:10E91000E5CF10920A0210920B0210920C02109294
:10E920000D02109206021092070210920802109235
:10E930000902109202021092030210920402109235
:10E9400005028FEE90EE60E00F94F5F180E191EE1C
:10E9500060E00F94C2F18091C00087FFFCCF9091DE
:10E96000C600903608F09F759032B8F09093C600BC
:10E970008091C00086FFFCCF8091C00080648093AE
:10E98000C000A0E2A093C6008091C00086FFFCCF2B
:10E990008091C00080648093C000983409F4D7C18E
:10E9A0009934B8F4923409F459C1933458F490333B
:10E9B00019F1903308F4E3C59F33A1F1903409F0C5
:10E9C000DEC5BDC0953409F470C1963409F0D7C5D1
:10E9D00098C1923509F42BC2933538F49C3409F46C
:10E9E000F5C1913509F0CBC518C2963509F445C279
:10E9F000993509F0C4C567C483E792EE62E00F94CD
:10EA0000F5F110920602109207021092080210927D
:10EA1000090210920A0210920B0210920C0210923C
:10EA20000D0213C18FE792EE62E00F94F5F18FEEC5
:10EA300090EE60E00F94F5F181E291EE60E00F94CA
:10EA4000C2F187EB91EE60E00F94F5F180E391EE77
:10EA500060E00F94C2F184EE90EE60E00F94F5F167
:10EA60008FE391EE60E00F94C2F186E090E061E008
:10EA700070E00F9434F20F94DCF18DE591EE60E0DC
:10EA80000F94C2F189EC91EE60E00F94F5F18EE401
:10EA900091EE60E00F94C2F183EC91EE60E00F9490
:10EAA000F5F18CE691EE60E00F94C2F18EE10F94E7
:10EAB0000DF288E90F940DF281E00F940DF20F949E
:10EAC000DCF18BE791EE60E00F94C2F119E0E0E039
:10EAD000F0E010935700E4918E2F0F940DF20F94F5
:10EAE000DCF18AE891EE60E00F94C2F1E3E0F0E03F
:10EAF00010935700E4918E2F0F940DF20F94DCF1D8
:10EB000089E991EE60E00F94C2F1E2E0F0E0109349
:10EB10005700E4918E2F0F940DF20F94DCF188EAE8
:10EB200091EE60E00F94C2F1E1E0F0E01093570045
:10EB30001491812F0F940DF20F94DCF107CF8BE825
:10EB400092EE62E00F94F5F18BE492EE60E00F94A8
:10EB5000F5F10F94DCF100E010E019C0C8016F2D51
:10EB60000F947FFEFF2031F489E492EE60E00F9471
:10EB7000C2F10BC0F092C6008091C00086FFFCCFAE
:10EB80008091C00080648093C0000F5F1F4FC80158
:10EB900081519F41A0E0B0E0ABBFFC01F790BAE229
:10EBA000FB1621F0E2E000301E07C1F60F94DCF105
:10EBB0000F94DCF187E592EE60E00F94F5F10F948D
:10EBC000DCF1CC24DD2400E010E01EC0C8010F946D
:10EBD00077FEF82E882331F489E492EE60E00F94FA
:10EBE000C2F10BC08093C6008091C00086FFFCCFAD
:10EBF0008091C00080648093C000FE1419F00894D6
:10EC0000C11CD11C0F5F1F4FC80181519F41A0E063
:10EC1000B0E0ABBFFC01E790FAE2EF1621F022E092
:10EC20000030120799F60F94DCF10F94DCF182E6C4
:10EC300092EE60E00F94C2F1C60161E070E00F94C3
:10EC400034F20F94DCF10F94DCF110920202109276
:10EC50000302109204021092050278CE89E992EE26
:10EC600062E00F94F5F1279A2F9A16C02F9880E052
:10EC700090E0E0EDF7E03197F1F7019684369105E9
:10EC8000C1F72F9A80E090E0E0EDF7E03197F1F7DF
:10EC9000019684369105C1F78091C00087FFE6CFC9
:10ECA0008091C00087FFFCCF64C485EA92EE62E0E9
:10ECB0000F94F5F140910202509103026091040219
:10ECC0007091050281E020E10F9491F2809102029F
:10ECD00090910302A0910402B091050280509F4FD1
:10ECE000AF4FBF4F8093020290930302A0930402A0
:10ECF000B093050280509041A040B04008F426CE69
:10ED0000A4CF83EB92EE62E00F94F5F140910602FE
:10ED100050910702609108027091090280E020E1A1
:10ED20000F9491F28091060290910702A09108023F
:10ED3000B091090280509F4FAF4FBF4F80930602A2
:10ED400090930702A0930802B0930902FFCD80ECD4
:10ED500092EE62E00F94F5F183E792EE60E00F949B
:10ED6000F5F18FE792EE60E00F94F5F18BE892EE0B
:10ED700060E00F94F5F189E992EE60E00F94F5F10F
:10ED800085EA92EE60E00F94F5F183EB92EE60E09D
:10ED90000F94F5F180EC92EE60E00F94F5F187ECC2
:10EDA00092EE60E00F94F5F188ED92EE60E00F9442
:10EDB000F5F18FED92EE60E00F94F5F18AEE92EEB0
:10EDC00060E00F94F5F183E093EEBDCD87EC92EE19
:10EDD00062E00F94F5F181E40F947BF282E40F94EA
:10EDE0007BF283E40F947BF284E40F947BF285E45E
:10EDF0000F947BF286E40F947BF287E40F947BF20E
:10EE000088E40F947BF28AE40F947BF28BE40F94F6
:10EE10007BF28CE40F947BF299CD88ED92EE62E068
:10EE20000F94F5F1772473948824992409C48FED05
:10EE300092EE62E00F94F5F140910A0250910B02BC
:10EE400060910C0270910D0282E020E10F9491F22A
:10EE500080910A0290910B02A0910C02B0910D02D8
:10EE600080509F4FAF4FBF4F80930A0290930B0289
:10EE7000A0930C02B0930D0269CD8AEE92EE62E08F
:10EE80000F94F5F184EE90EE60E00F94F5F18FECC5
:10EE900091EE60E00F94F5F1662477244301CC5D98
:10EEA000DE4F19821882C452D140D401C301B695F5
:10EEB000A79597958795CA5DDE4F88839983AA8326
:10EEC000BB83C652D140CC5DDE4FA881B981C4520C
:10EED000D1401196CC5DDE4FB983A883C452D14096
:10EEE000CD0162E070E00F9434F2B0E2B093C6005E
:10EEF0008091C00086FFFCCF8091C0008064809329
:10EF0000C000EDE2E093C6008091C00086FFFCCF18
:10EF10008091C00080648093C000F0E2F093C6004E
:10EF20008091C00086FFFCCF8091C00080648093F8
:10EF3000C000CA5DDE4FE880F9800A811B81C6529D
:10EF4000D140BB27A12F902F8F2D0F940DF2CA5DBA
:10EF5000DE4F8881C652D1400F940DF2B0E2FB2EF5
:10EF6000F092C6008091C00086FFFCCF8091C00067
:10EF700080648093C0000DE30093C6008091C000C0
:10EF800086FFFCCF8091C00080648093C00010E2B7
:10EF90001093C6008091C00086FFFCCF8091C00016
:10EFA00080648093C0008BBEF3012791C65DDE4F65
:10EFB0002883CA52D140A22EBB24CC24DD2408943D
:10EFC000611C711C811C911C8BBEF3018791282E42
:10EFD0003324442455240894611C711C811C911C09
:10EFE0008BBEF3013791C55DDE4F3883CB52D140E4
:10EFF0000894611C711C811C911C8BBEF30147910C
:10F00000C45DDE4F4883CC52D140ADEFEA2EAFEF66
:10F01000FA2EAFEF0A2FAFEF1A2F6E0C7F1C801E57
:10F02000911E142D032DF22CEE24EA0CFB1C0C1D5A
:10F030001D1D0F940DF220E22093C6008091C000A8
:10F0400086FFFCCF8091C00080648093C000C65DC5
:10F05000DE4F8881CA52D1400F940DF230E23093D6
:10F06000C6008091C00086FFFCCF8091C000806404
:10F070008093C000C45DDE4F8881CC52D1400F9494
:10F080000DF240E24093C6008091C00086FFFCCFA5
:10F090008091C00080648093C000C55DDE4F888190
:10F0A000CB52D1400F940DF250E25093C6008091A4
:10F0B000C00086FFFCCF8091C00080648093C000B8
:10F0C0008FEFE8168FEFF80680E0080780E018075A
:10F0D00031F484E092EE60E00F94C2F1DFC0D80119
:10F0E000C7018070907CA070B0708050904CA040A0
:10F0F000B040D1F52FEF3FE340E050E0E222F322B1
:10F1000004231523CA5DDE4FA880B980CA80DB8046
:10F11000C652D140AE0CBF1CC01ED11EAA0CBB1CD7
:10F12000CC1CDD1C8EE092EE60E00F94C2F1BB2798
:10F13000A12F902F8F2D0F940DF28E2D0F940DF285
:10F1400030E23093C6008091C00086FFFCCF8091F2
:10F15000C00080648093C0004EE34093C60080915D
:10F16000C00086FFFCCF87C08EE09EEFA0E0B0E03D
:10F17000E822F9220A231B239CE0E91694E9F90608
:10F1800090E0090790E0190709F088C0C45DDE4FE0
:10F19000A881CC52D140EA2EFF2400E010E0102FCD
:10F1A0000F2DFE2CEE24C55DDE4FB881CB52D14031
:10F1B000EB0EF11C011D111DD601C501817090706F
:10F1C000A070B070DC0199278827E80EF91E0A1F8D
:10F1D0001B1F20EF30E040E050E0A222B322C42207
:10F1E000D52241E1AA0CBB1CCC1CDD1C4A95D1F7F1
:10F1F000EA0CFB1C0C1D1D1D81E090E0A0E0B0E0BE
:10F20000282239224A225B2235E1220C331C441C7D
:10F21000551C3A95D1F7E20CF31C041D151D57013E
:10F220006801AA0CBB1CCC1CDD1C85E192EE60E0E1
:10F230000F94C2F1C801AA27BB270F940DF2BB2778
:10F24000A12F902F8F2D0F940DF28E2D0F940DF274
:10F2500090E29093C6008091C00086FFFCCF809121
:10F26000C00080648093C000AEE3A093C60080918C
:10F27000C00086FFFCCF8091C00080648093C000F6
:10F28000C601AA27BB270F940DF2BB27AD2D9C2DDD
:10F290008B2D0F940DF28A2D0F940DF20F94DCF14B
:10F2A000CC5DDE4FE881F981C452D140F99709F471
:10F2B0004DCBF4E0EF2EF12C012D112D6E0C7F1CA7
:10F2C000801E911EF2CD83E093EE62E00F94F5F183
:10F2D0008AE192EE60E00F94C2F18091C00087FF56
:10F2E000FCCF1091C6001F751093C6008091C0001E
:10F2F00086FFFCCF8091C00080648093C0000F9493
:10F30000DCF1812F81548A3108F036C1163409F4BA
:10F3100095C0173490F4133409F44EC0143430F40B
:10F320001134F1F0123409F01DC130C0143409F465
:10F3300059C0153409F016C16BC01A3409F4C4C0A1
:10F340001B3438F4173409F48FC0183409F00AC19B
:10F35000A1C01B3409F4D2C01C3409F003C1E8C0B9
:10F360008FEF81B90DC082B1809582B980E090E0C5
:10F37000E0EDF7E03197F1F70196883C9105C1F790
:10F380008091C00087FFEFCF12B8EFC08FEF84B934
:10F390000DC085B1809585B980E090E0E0EDF7E0A3
:10F3A0003197F1F70196883C9105C1F78091C00033
:10F3B00087FFEFCF15B8D9C08FEF87B90DC088B1DF
:10F3C000809588B980E090E0E0EDF7E03197F1F7C3
:10F3D0000196883C9105C1F78091C00087FFEFCF6F
:10F3E00018B8C3C08FEF8AB90DC08BB180958BB9A7
:10F3F00080E090E0E0EDF7E03197F1F70196883C8E
:10F400009105C1F78091C00087FFEFCF1BB8ADC059
:10F410008FEF8DB90DC08EB180958EB980E090E0F0
:10F42000E0EDF7E03197F1F70196883C9105C1F7DF
:10F430008091C00087FFEFCF1EB897C08FEF80BBD1
:10F440000DC081B3809581BB80E090E0E0EDF7E0F6
:10F450003197F1F70196883C9105C1F78091C00082
:10F4600087FFEFCF11BA81C08FEF83BB0DC084B38C
:10F47000809584BB80E090E0E0EDF7E03197F1F714
:10F480000196883C9105C1F78091C00087FFEFCFBE
:10F4900014BA6BC08FEF809301010FC080910201FD
:10F4A00080958093020180E090E0E0EDF7E03197F5
:10F4B000F1F70196883C9105C1F78091C00087FF64
:10F4C000EDCF1092020151C08FEF809304010FC065
:10F4D0008091050180958093050180E090E0E0ED4A
:10F4E000F7E03197F1F70196883C9105C1F78091DB
:10F4F000C00087FFEDCF1092050137C08FEF8093DA
:10F5000007010FC08091080180958093080180E079
:10F5100090E0E0EDF7E03197F1F70196883C910536
:10F52000C1F78091C00087FFEDCF109208011DC088
:10F530008FEF80930A010FC080910B01809580931B
:10F540000B0180E090E0E0EDF7E03197F1F70196F4
:10F55000883C9105C1F78091C00087FFEDCF1092E4
:10F560000B0103C085E292EEEEC98091C00087FFD7
:10F57000FCCF8091C600EAC988E392EEE4C98CE131
:10F5800091EEE1C988249924933011F1943028F444
:10F59000913089F09230B8F408C0953061F195301F
:10F5A000F0F0963009F048C043C02B3109F042C951
:10F5B00091E06BE13FC96227C15DDE4F2883CF52E6
:10F5C000D14092E037C9B22FA0E0622793E032C960
:10F5D000822F90E0A82BB92B622794E02BC92E3004
:10F5E00009F039C3622795E0C05DDE4F19821882A9
:10F5F000C053D1401FC9E1E0F0E0EC0FFD1FC05D3A
:10F60000DE4F08811981C053D140E00FF11F2083E4
:10F610000F5F1F4FC05DDE4F19830883C053D14079
:10F6200062270A171B0709F005C9D80196E002C92D
:10F63000261709F010C303C0973009F0FBC87724E0
:10F640009981933109F412C19431C8F4963009F4C8
:10F65000D8C0973050F4923009F406C1933009F4C1
:10F660006DC0913009F059C253C0913109F477C08F
:10F67000923108F0BBC0903109F04FC2F5C098310B
:10F6800009F487C0993150F4953109F4EFC09531F0
:10F6900008F4C6C1963109F040C2C2C19A3109F4DA
:10F6A0006CC09A3108F491C09B3109F45BC09D3164
:10F6B00009F033C29D81903359F48F81882311F46E
:10F6C0009EE11CC0813011F091E018C098E916C08D
:10F6D000892F807591F0903539F4E0E0F0E089E011
:10F6E0008093570094910AC0983539F4E3E0F0E034
:10F6F00089E080935700949101C090E01A821B82A8
:10F700008D818C831D829E831F8227E030E009C299
:10F710001A8288E08B8381E48C8386E58D8382E581
:10F720008E8389E48F8383E5888780E589878FE5E9
:10F730008A8782E38B872BE030E0F3C18A818139AD
:10F7400041F0823941F0803911F48FE005C080E04A
:10F7500003C082E001C08AE01A828B8344C0772410
:10F76000739482C08D81882311F48EE12CC0813086
:10F7700011F081E028C088E926C01A82E1E0F0E0BB
:10F7800089E08093570084918B831C8224E030E0D1
:10F79000C8C18B81803589F48C81883039F4E2E0EE
:10F7A000F0E089E08093570084910DC0E0E0F0E044
:10F7B00089E080935700849106C0E3E0F0E089E09F
:10F7C0008093570084911A82DFCF8D81836C99E0FA
:10F7D000E1E0F0E0082E90935700E89507B600FCB2
:10F7E000FDCF1A821B8223E030E09BC180EC8A832C
:10F7F000CE5CDE4F188219821A821B82C253D1401E
:10F800008EC18A8190E0A0E0B0E0582F44273327D2
:10F8100022278B8190E0A0E0B0E0DC0199278827C7
:10F82000282B392B4A2B5B2B8D8190E0A0E0B0E098
:10F83000282B392B4A2B5B2B8C8190E0A0E0B0E089
:10F84000BA2FA92F982F8827282B392B4A2B5B2BCF
:10F85000220F331F441F551FC05EDE4F288339839C
:10F860004A835B83C052D1401A8259C13A81C95C34
:10F87000DE4F3883C753D140CA5CDE4F1882C6536F
:10F88000D1408B81C82EDD24CA5CDE4F488159816E
:10F89000C653D140C42AD52A933109F082C0CE5C28
:10F8A000DE4F88819981AA81BB81C253D1408050AB
:10F8B000904CA340B04030F583E0CE5CDE4FE88052
:10F8C000F9800A811B81C253D140F70100935B008C
:10F8D00080935700E89507B600FCFDCFCE5CDE4F65
:10F8E000088119812A813B81C253D14000501F4FAA
:10F8F0002F4F3F4FCE5CDE4F088319832A833B8313
:10F90000C253D140C05EDE4F488159816A817B81FC
:10F91000C052D140DE011B9631E08C9111962C91A2
:10F9200011971296C75CDE4F2883C953D140C85C3B
:10F93000DE4F1882C853D14090E0C85CDE4FE881AA
:10F94000F981C853D1408E2B9F2B0C01FA01609393
:10F950005B0030935700E89511244E5F5F4F6F4F67
:10F960007F4F0EEFE02E0FEFF02ECE0CDF1CC114F8
:10F97000D10499F685E0C05EDE4F088119812A81A5
:10F980003B81C052D140F80120935B008093570027
:10F99000E89507B600FCFDCF81E180935700E8951C
:10F9A00035C0C05EDE4F88819981AA81BB81C0527B
:10F9B000D140B695A795979587957C018601ABE0D8
:10F9C000AA2EB12CAC0EBD1E0BC0D5016D915D01F0
:10F9D000C7010F947FFE0894E11CF11C01501040F8
:10F9E0000115110591F7A60160E070E0440F551F65
:10F9F000661F771FC05EDE4FE880F9800A811B8199
:10FA0000C052D1404E0D5F1D601F711F1A82C05E33
:10FA1000DE4F488359836A837B83C052D1407FC0C5
:10FA2000FA80C55CDE4FF882CB53D140C65CDE4F16
:10FA30001882CA53D1408B81C82EDD24C65CDE4FAC
:10FA400008811981CA53D140C02AD12A1A828981DA
:10FA5000BE016D5F7F4F843121F59601C05EDE4FA0
:10FA6000E880F9800A811B81C052D1400BBFF701A9
:10FA700087919691DB018C9311969C936E5F7F4FDB
:10FA8000D801C7010296A11DB11DC05EDE4F88835B
:10FA90009983AA83BB83C052D14022503040F1F6F3
:10FAA00036C0C05EDE4F288139814A815B81C052F9
:10FAB000D1400894C108D108760100E010E0089414
:10FAC000C11CD11C0894E11CF11C011D111DE20E8A
:10FAD000F31E041F151F21BDBB27A52F942F832FB5
:10FAE00082BD2F5F3F4F4F4F5F4FF89A80B5DB01CC
:10FAF0008D93BD012E153F054007510761F7C05E8C
:10FB0000DE4F288339834A835B83C052D1409601FC
:10FB10002D5F3F4FFB01108204C080EC8A8322E0FE
:10FB200030E08BE18093C6008091C00086FFFCCF5F
:10FB30008091C00080648093C000C15DDE4FF88179
:10FB4000CF52D140F093C6008091C00086FFFCCF19
:10FB50008091C00080648093C000432F3093C60022
:10FB60008091C00086FFFCCF8091C00080648093AC
:10FB7000C000922F2093C6008091C00086FFFCCF6A
:10FB80008091C00080648093C0008EE08093C600A6
:10FB90008091C00086FFFCCF8091C000806480937C
:10FBA000C00065E1C15DDE4FE880CF52D1406E25D7
:10FBB00069276427FE01319610C090819093C6009A
:10FBC0008091C00086FFFCCF31968091C000806498
:10FBD0008093C0006927215030402115310569F715
:10FBE0006093C6008091C00086FFFCCF8091C0006A
:10FBF00080648093C00085B1805885B9772081F4F6
:10FC0000C15DDE4F0881CF52D1400F5FC15DDE4F35
:10FC10000883CF52D14090E0A0E0B0E00D941AF4F8
:10FC200027982F9880E090E020ED37E0F901319798
:10FC3000F1F7019684369105C9F700008091C00064
:10FC40008D7F8093C00081E180935700E895EE2777
:10FC5000FF270994FFCF90E00D941AF497FB092E2B
:10FC600007260AD077FD04D02ED006D000201AF443
:10FC7000709561957F4F0895F6F7909581959F4F08
:10FC80000895A1E21A2EAA1BBB1BFD010DC0AA1FDD
:10FC9000BB1FEE1FFF1FA217B307E407F50720F0F5
:10FCA000A21BB30BE40BF50B661F771F881F991F70
:10FCB0001A9469F760957095809590959B01AC01B9
:10FCC000BD01CF010895AA1BBB1B51E107C0AA1FAC
:10FCD000BB1FA617B70710F0A61BB70B881F991FED
:10FCE0005A95A9F780959095BC01CD010895F99991
:10FCF000FECF92BD81BDF89A992780B50895262F31
:10FD0000F999FECF1FBA92BD81BD20BD0FB6F89400
:0EFD1000FA9AF99A0FBE01960895F894FFCF63
:00000001FF
