:100000000C9441010C9472010C9472010C947201D5
:100010000C9472010C9472010C9472010C94720194
:100020000C9472010C9472010C9472010C94720184
:100030000C9472010C9472010C9472010C94720174
:100040000C9472010C9472010C9472010C94720164
:100050000C9472010C9472010C9472010C945F0761
:100060000C9472010C9429070C94FF060C947201F5
:100070000C9472010C9472010C9472010C94720134
:100080000C9472010C9472010C9472010C94720124
:100090000C9472010C9472010C9472010C94A907D7
:1000A0000C9472010C9472010C9472010C94720104
:1000B0000C9472010C9472010C9472010C947201F4
:1000C0000C9472010C9472010C9472010C947201E4
:1000D0000C9472010C9472010C9472010C947201D4
:1000E0000C9472010C94E9020C9416030C94E10434
:1000F0000C942E030C94FB020C948F040C94FE02BF
:100100000C948C030C94C9080C945B030C940803A6
:100110000C947A020C942A030C9429060C94F50191
:100120000C941C030C942D020C94D3010C94970195
:100130000C9412030C94EF020C9404030C94290306
:100140000C94F3020C940E030C9420030C94E7011E
:100150000C94CC030C94F7020C94C4010C9424036B
:1001600000002100240027002A002D003000330069
:1001700001010000040107010A010000220025001E
:1001800028002B002E003100340002010000050180
:1001900008010B01000020002300260029002C008C
:1001A0002F003200000100000301060109010505CE
:1001B0000505070508080808020202020A0A0808DD
:1001C000040404040101010101010101030303030B
:1001D00003030303040707070C0C0C0C0C0C0C0C9A
:1001E0000202020206060606060606060B0B0B0BAB
:1001F0000B0B0B0B010210202008081020401020D0
:1002000040800201020108040201010204081020DA
:1002100040808040201008040201800402018040D8
:100220002010080402010804020101020408102041
:100230004080010204081020408000000A0B0209DF
:100240000C0D0E0807030401000000000000000070
:10025000000000000000000000000000000000009E
:10026000000000000000121110000000000000005B
:10027000000000000000000000000000000000007E
:10028000C90811241FBECFEFD1E2DEBFCDBF00E011
:100290000CBF23E0AEE4B2E001C01D92AC3EB20759
:1002A000E1F712E0A0E0B2E0E2E3F9E100E00BBF29
:1002B00002C007900D92AE34B107D9F711E0C1E446
:1002C000D1E000E006C021970109802FFE010E94C5
:1002D0008F0CC034D10780E00807A9F70E9482097B
:1002E0000C94970C0C94000096E0899FD001112487
:1002F000AB59BC4F90967C936E935F9791E091962B
:100300009C939197E091D203F091D3039091D10304
:10031000992339F0309751F0811108C08091810301
:100320001994309719F05C968C91FACF0895AF929A
:10033000BF92CF92DF92EF92FF920F931F93CF93D2
:10034000DF936C017B018B01040F151FEB015E0134
:10035000AE18BF08C017D10759F06991D601ED91C9
:10036000FC910190F081E02DC6011995892B79F758
:10037000C501DF91CF911F910F91FF90EF90DF901A
:10038000CF90BF90AF900895FC01538D448D252FE1
:1003900030E0842F90E0821B930B541710F0CF961F
:1003A000089501970895FC01918D828D981761F051
:1003B000A28DAE0FBF2FB11D5D968C91928D9F5F68
:1003C0009F73928F90E008958FEF9FEF0895FC0147
:1003D000918D828D981731F0828DE80FF11D858DFA
:1003E00090E008958FEF9FEF0895FC01918D228D8D
:1003F000892F90E0805C9F4F821B91098F73992712
:10040000089588EC92E00E94F50121E0892B09F41F
:1004100020E0822F0895FC01A48DA80FB92FB11DF3
:10042000A35ABF4F2C91848D90E001968F7399272A
:10043000848FA689B7892C93A089B1898C91837008
:1004400080648C93938D848D981306C00288F38901
:10045000E02D80818F7D80830895EF92FF920F932E
:100460001F93CF93DF93EC0181E0888F9B8D8C8D60
:1004700098131AC0E889F989808185FF15C09FB754
:10048000F894EE89FF896083E889F9898081837017
:10049000806480839FBF81E090E0DF91CF911F91C6
:1004A0000F91FF90EF900895F62E0B8D10E00F5FE7
:1004B0001F4F0F731127E02E8C8D8E110CC00FB6BD
:1004C00007FCFACFE889F989808185FFF5CFCE0155
:1004D0000E940B02F1CFEB8DEC0FFD2FF11DE35AC3
:1004E000FF4FF0829FB7F8940B8FEA89FB898081D8
:1004F0008062CFCFCF93DF93EC01888D8823B9F052
:10050000AA89BB89E889F9898C9185FD03C080811E
:1005100086FD0DC00FB607FCF7CF8C9185FFF2CF9B
:10052000808185FFEDCFCE010E940B02E9CFDF91E4
:10053000CF91089580E090E0892B29F00E9401027C
:1005400081110E94000080E090E0892B49F080E05A
:1005500090E0892B29F00E94000081110E94000088
:1005600080E090E0892B49F080E090E0892B29F031
:100570000E94000081110E94000080E090E0892B21
:1005800049F080E090E0892B29F00E940000811161
:100590000C94000008958150823108F05AC0E82F71
:1005A000F0E08827E952FD4F8F4F0C948F0CF70233
:1005B000FB02E902EF02F3022903FE02040308032F
:1005C0000E03120316031C032003290324032A032A
:1005D0002E03809180008F77809380000895809112
:1005E00080008F7DF9CF80918000877FF5CF84B523
:1005F0008F7784BD089584B58F7DFBCF8091B00047
:100600008F778093B00008958091B0008F7DF9CFEF
:10061000809190008F778093900008958091900052
:100620008F7DF9CF80919000877FF5CF8091A000DA
:100630008F778093A00008958091A0008F7DF9CFDF
:100640008091A000877FF5CF809120018F778093E4
:1006500020010895809120018F7DF9CF80912001A4
:10066000877FF5CFCF93DF93282F30E0F901E65C49
:10067000FD4F8491F901EC50FE4FD491F901E25500
:10068000FE4FC491CC23A1F081110E94CB02EC2F2C
:10069000F0E0EE0FFF1FEC56FE4FA591B491EC91E8
:1006A000ED2381E090E009F480E0DF91CF9108959F
:1006B00080E090E0FACF862F0C9432031F93CF9303
:1006C000DF93282F30E0F901E65CFD4F8491F901BA
:1006D000EC50FE4FD491F901E255FE4FC491CC236A
:1006E000A9F0162F81110E94CB02EC2FF0E0EE0F43
:1006F000FF1FE658FE4FA591B4918FB7F894EC9187
:10070000111108C0D095DE23DC938FBFDF91CF910C
:100710001F910895DE2BF8CF862F642F0C945E0373
:10072000CF93DF9390E0FC01EC50FE4F2491825573
:100730009E4FFC0184918823C9F090E0880F991F97
:10074000FC01E05AFE4FA591B491FC01E658FE4F22
:10075000C591D49161110DC09FB7F8948C912095EB
:1007600082238C938881282328839FBFDF91CF9198
:100770000895623051F49FB7F8943C91822F809590
:1007800083238C93E8812E2BEFCF8FB7F894EC91D5
:100790002E2B2C938FBFEACF862F642F0C949003BF
:1007A0003FB7F8948091C4029091C502A091C6020F
:1007B000B091C70226B5A89B05C02F3F19F001963E
:1007C000A11DB11D3FBFBA2FA92F982F8827BC01AB
:1007D000CD01620F711D811D911D42E0660F771FD3
:1007E000881F991F4A95D1F708952FB7F894609103
:1007F000C0027091C1028091C2029091C3022FBFCA
:1008000008950F931F930E94F5036093D002709395
:10081000D1028093D2029093D30288EC92E00E949E
:10082000E70197FF1DC00E94F5030091D0021091CF
:10083000D1022091D2023091D302601B710B820B46
:10084000930B0091CC021091CD022091CE023091F9
:10085000CF026017710782079307F8F28FEF9FEFBF
:100860001F910F9108950F931F93CF93DF93C82F7C
:10087000D62F86E0C89FF0011124EB59FC4F11A23E
:10088000878D90A181309105F1F058F0823091056B
:10089000F1F1039709F440C0DF91CF911F910F91BF
:1008A00008956623C9F361E070E08C2F0E94740103
:1008B0000E94F5036093BD037093BE038093BF0352
:1008C0009093C003E9CF0E94F5030091BD031091FE
:1008D000BE032091BF033091C003AB01BC01401B9C
:1008E000510B620B730B8091CF039091D003B0E05A
:1008F000A0E084179507A607B70748F462E070E008
:100900008C2FDF91CF911F910F910C94740163E0B4
:1009100070E0D111C1CFF4CF70E060E0F1CF089565
:1009200020917502260F3327331F21323105ECF455
:1009300020919902FC0190E080E0243069F082E08F
:100940000895A09175022191AC014B5A5D4FA40FFF
:10095000B52FB11D2C930196861798F380917502DF
:10096000680F6093750280E0089581E0089508950E
:100970008FEF9FEF08958FEF9FEF089580914E02C4
:1009800090E09195819591090895CF93DF93CB01E4
:10099000EA01642F0E949004CE01DF91CF91089567
:1009A000CF93DF931F92CDB7DEB7698361E0CE01AD
:1009B00001960E94900481E090E00F90DF91CF912A
:1009C000089590E080E00895CF93DF93EC0160E01C
:1009D0008E810E945E0361E08E810E945E0360E072
:1009E0008E810E945E038BE891E00197F1F7DF9121
:1009F000CF910895CF92DF92EF92FF920F931F93C2
:100A0000CF93DF936C017C0187E0E80EF11CD0E00E
:100A1000C0E0062F10E0B8010C2E02C07595679556
:100A20000A94E2F76170F70181917F010E945E03F1
:100A30002196C430D10579F7C601DF91CF911F917E
:100A40000F91FF90EF90DF90CF900C94E404CF9241
:100A5000DF92EF92FF920F931F93CF93DF93EC01FE
:100A6000F62E642F8C810E945E038D818F3F19F0DA
:100A700060E00E945E030F2D10E08F8584FF25C08B
:100A80006E0187E0C80ED11CF12CE12CB8010E2CB0
:100A900002C0759567950A94E2F76170F60181913D
:100AA0006F010E945E03FFEFEF1AFF0A88E0E8166D
:100AB000F10461F7CE01DF91CF911F910F91FF906B
:100AC000EF90DF90CF900C94E404B80184E075952A
:100AD00067958A95E1F7CE010E94FA046F2DCE0149
:100AE000DF91CF911F910F91FF90EF90DF90CF900A
:100AF0000C94FA0440E0682F84ED93E00C942705F1
:100B000081E00E947A058BE39FE10197F1F7089558
:100B1000CF93DF93823029F49091E3039860909310
:100B2000E3038093E7031092E80380E48093E903F2
:100B300080E18093EA0380E58093EB0361E080919C
:100B4000D8030E9490038091D9038F3F19F061E090
:100B50000E94900361E08091DA030E949003C4ED4B
:100B6000D3E09E01245D33408091E30384FD0BC0FC
:100B700084E090E021962817390744F461E08E81E3
:100B80000E949003EECF88E090E0F4CF8BE39DE0ED
:100B90000197F1F760E08091D8030E945E0360E066
:100BA0008091DA030E945E038091D9038F3F19F090
:100BB00060E00E945E038091E30384FD34C063E043
:100BC00084ED93E00E94FA04CBE4D6E4CE010197D1
:100BD000F1F763E084ED93E00E94FA042197F1F7C6
:100BE00063E084ED93E00E94FA0483E592E00197CC
:100BF000F1F762E084ED93E00E94FA048091E30350
:100C000080620E947A0584E08093E4038CE00E9475
:100C10007A050E94800582E08093E50386E0DF91FB
:100C2000CF910C947A0580620E947A058BE496E459
:100C30000197F1F78091E30380620E947A0583E5D2
:100C400092E00197F1F78091E30380620E947A05B8
:100C5000D5CF41E00E94270581E090E00895FB0197
:100C600001900020E9F73197AF01461B570BDC01DB
:100C7000ED91FC910280F381E02D19948F929F9267
:100C8000AF92BF92EF92FF920F931F93CF93DF9398
:100C9000CDB7DEB7A1970FB6F894DEBF0FBECDBFBC
:100CA0007C01FA01CB0119A2223008F42AE08E015E
:100CB0000F5D1F4F822E912CB12CA12CBF01A501DD
:100CC00094010E946D0CF901CA016A300CF5605D57
:100CD000D8016E938D01232B242B252B79F790E0DF
:100CE00080E0109721F0BD01C7010E942F06A19658
:100CF0000FB6F894DEBF0FBECDBFDF91CF911F912D
:100D00000F91FF90EF90BF90AF909F908F900895BC
:100D1000695CDECF1F93CF93DF9385ED8093BC009A
:100D20008091510290915202A0915302B0915402CD
:100D30000796A11DB11D23E0B695A79597958795B8
:100D40002A95D1F72091BC0024FD03C0109299028E
:100D500052C04091510250915202609153027091E1
:100D60005402452B462B472B69F30097A105B1058B
:100D700041F025E32A95F1F700000197A109B10997
:100D8000E1CF80915002C1E0C0934F02882399F1D6
:100D9000D091B8001091BA008091BC008A7B8093FA
:100DA000BC0060E084E10E945E0360E085E10E9497
:100DB0005E0310929902C0939B0210929A0261E026
:100DC00084E10E945E0361E085E10E945E03809100
:100DD000B9008E7F8093B9008091B9008D7F809398
:100DE000B90088E48093B80085E48093BC00109338
:100DF000BA00D093B800DF91CF911F9108951F9250
:100E00000F920FB60F9211240BB60F922F933F93B0
:100E10004F935F936F937F938F939F93AF93BF9302
:100E2000EF93FF9388EC92E00E940B02FF91EF9109
:100E3000BF91AF919F918F917F916F915F914F91F2
:100E40003F912F910F900BBE0F900FBE0F901F90F0
:100E500018951F920F920FB60F9211240BB60F9296
:100E60002F938F939F93EF93FF93E091D802F0918C
:100E7000D9028081E091DE02F091DF0282FD1DC087
:100E800090818091E1028F5F8F732091E20282173F
:100E900041F0E091E102F0E0E853FD4F958F80933F
:100EA000E102FF91EF919F918F912F910F900BBED7
:100EB0000F900FBE0F901F9018958081F2CF1F9258
:100EC0000F920FB60F9211242F933F938F939F93FE
:100ED000AF93BF938091C0029091C102A091C202D2
:100EE000B091C3023091BF0223E0230F2D3758F594
:100EF0000196A11DB11D2093BF028093C002909363
:100F0000C102A093C202B093C3028091C402909127
:100F1000C502A091C602B091C7020196A11DB11DE4
:100F20008093C4029093C502A093C602B093C702F7
:100F3000BF91AF919F918F913F912F910F900FBED5
:100F40000F901F90189526E8230F0296A11DB11D42
:100F5000D2CF1F920F920FB60F9211240BB60F92A1
:100F60002F933F934F935F936F937F938F939F93B1
:100F7000AF93BF93EF93FF938091B900887F803642
:100F800009F44DC008F040C0883209F4A7C028F524
:100F9000803109F49BC0C8F4882309F4F7C0883075
:100FA00009F494C0FF91EF91BF91AF919F918F9100
:100FB0007F916F915F914F913F912F910F900BBE59
:100FC0000F900FBE0F901F901895883109F486C0BE
:100FD000803241F78093980214C0803409F49BC09A
:100FE00040F48033B9F38833E9F68093980285ECB6
:100FF000AEC0803509F483C0883509F494C08834C4
:1010000089F60E948A06CECF883909F48AC038F55D
:10101000883729F050F4883611F0803719F683E0CC
:10102000809399021092970255C0883809F479C0CC
:10103000803919F0803809F0B5CF8091970280325D
:1010400008F06FC0E091970281E08E0F80939702C5
:101050008091BB00F0E0E958FD4F80833BC0803BAE
:1010600039F0D0F4803A09F477C0883A09F09ACF81
:1010700084E0809399021092760210927502F0E05B
:10108000E0E019958091750281110FC081E0809395
:1010900075021092550209C0803C09F4A8CF883C23
:1010A00009F4A5CF883B09F07DCFE091760281E07D
:1010B0008E0F80937602F0E0EB5AFD4F8081809393
:1010C000BB00909176028091750229C08091BE028A
:1010D0008093BB0085EC8093BC0064CF9091BD02EF
:1010E0008091BC02981758F5E091BD0281E08E0F07
:1010F0008093BD02F0E0E456FD4F8081E9CFE0919E
:10110000BD0281E08E0F8093BD028091BB00F0E0B4
:10111000E456FD4F80839091BD028091BC029817E8
:10112000C8F285E8D8CFE091BD0281E08E0F8093B0
:10113000BD028091BB00F0E0E456FD4F80838091BA
:101140009B0281115ECF81E080939A0284EA8093B2
:10115000BC001092990226CF85EC8093BC001092BF
:10116000990280919702803230F4E0919702F0E08A
:10117000E958FD4F10826091970270E087E792E096
:10118000F0E0E0E01995109297020CCF10929802CF
:1011900038CF1092CB021092CA0288EE93E0A0E002
:1011A000B0E08093CC029093CD02A093CE02B09396
:1011B000CF028CE192E09093C9028093C80285EC43
:1011C00090E09093D5028093D40284EC90E09093C9
:1011D000D7028093D60280EC90E09093D90280935E
:1011E000D80281EC90E09093DB028093DA0282ECEB
:1011F00090E09093DD028093DC0286EC90E0909387
:10120000DF028093DE021092E1021092E20210925D
:10121000E3021092E4021092D7031092D60388E3FF
:1012200092E09093D5038093D40380E28093D80317
:101230008FEF8093D90381E28093DA0382E2809377
:10124000DB0383E28093DC0384E28093DD0385E2A9
:101250008093DE031092DF031092E0031092E1030B
:101260001092E2031092E30381E00E94880510923D
:10127000670310926B0310926A0310926C038EE264
:1012800092E09093660380936503E1E8F3E01082B7
:10129000148213821582369683E0ED3BF807B9F786
:1012A00084E092E09093C8038093C70380E092E0CB
:1012B0009093CA038093C90384E08093CB03809307
:1012C000CC0388E092E09093C6038093C5038AE044
:1012D00090E09093CE038093CD0384EF91E09093C0
:1012E000D0038093CF031092D3031092D2031092B5
:1012F000C1031092C2031092C3031092C403109250
:10130000D1030895789484B5826084BD84B58160EA
:1013100084BD85B5826085BD85B5816085BD8091C0
:101320006E00816080936E00109281008091810038
:101330008260809381008091810081608093810030
:10134000809180008160809380008091B1008460F2
:101350008093B1008091B00081608093B000809153
:1013600091008260809391008091910081608093D0
:101370009100809190008160809390008091A10005
:1013800082608093A1008091A10081608093A10080
:101390008091A00081608093A000809121018260F3
:1013A00080932101809121018160809321018091AE
:1013B000200181608093200180917A008460809375
:1013C0007A0080917A00826080937A0080917A001E
:1013D000816080937A0080917A00806880937A009F
:1013E0001092C100E091D802F091D90282E080838E
:1013F000E091D402F091D5021082E091D602F091F2
:10140000D7028FEC80831092E002E091DC02F09131
:10141000DD0286E08083E091DA02F091DB028081D8
:1014200080618083E091DA02F091DB028081886044
:101430008083E091DA02F091DB0280818068808312
:10144000E091DA02F091DB0280818F7D808382E07F
:101450000E9488050E948005412C512C3201439442
:1014600022242A94322C0E94800510E000E021E022
:101470002093D1030E94F503C090C103D090C20312
:10148000E090C303F090C403AB01BC014C195D09AB
:101490006E097F098091CD039091CE03B0E0A0E06A
:1014A00084179507A607B70708F0A5C1C0E080918B
:1014B000CB03C81760F4E091C703F091C803EC0FA9
:1014C000F11D62E080810E949003CF5FF0CF912CEC
:1014D0008091CC03981608F05FC0E92CF12CE091C4
:1014E000C903F091CA03EE0DFF1D61E080810E94E7
:1014F0009003E091C903F091CA03EE0DFF1D60E077
:1015000080810E945E03D301C201092C04C0880FB0
:10151000991FAA1FBB1F0A94D2F75C016C01C094EB
:10152000D094812C8091CB038816F8F4C82DD0E09C
:10153000E091C703F091C803EC0FFD1F80810E946A
:1015400032032496CC0FDD1FCB59DC4F892B41F49D
:10155000888199818A299B29998388838394E2CF02
:10156000888199818C219D21F7CFE091C903F09169
:10157000CA03EE0DFF1D61E080810E945E03809131
:10158000C9039091CA03E80EF91E60E0F70180815B
:101590000E94900393949CCF25E6E22E23E0F22E46
:1015A000E7018F8D98A1892B21F41C8E3E8E2D8E04
:1015B00019A22696F3E0C13ADF0799F7D12C809162
:1015C000CB03D81608F053C0C12CAD2CB12CAA0CFB
:1015D000BB1CC50183599C4F5C012091CC03C216F2
:1015E00008F043C0F501608171810C2C02C0769532
:1015F00067950A94E2F7D29E900111242C0D311DBB
:10160000E5E6F3E080E0458D568D2417350709F4B3
:1016100048C18F5F36968A30B1F760FF24C0E5E697
:10162000F3E090E080E0448D411118C0E091C503E3
:10163000F091C603E20FF31F408156E0589FF0017E
:10164000599FF00D1124EB59FC4F448F368F258F95
:1016500010A2178E61E00E94330405C001963696F1
:101660008A30910501F7C394B8CFD394A8CFD12C79
:10167000F70181A18111D82EF6E0EF0EF11CCE15F5
:10168000DF05B1F70E94F5036093C1037093C203B5
:101690008093C3039093C403DD2009F4ACC0C091D0
:1016A0008603CC2309F4A7C080918403909185031D
:1016B000019709F0A0C0409181034D3309F09EC00D
:1016C000E091E703E23008F0B8C0E150F0E0EC52FE
:1016D000FC4F848980680E947A05A801110F660B6F
:1016E000770B2AE088EC92E00E943E0688EC92E0BC
:1016F0000E94F50118161906CCF70E940104FC019E
:1017000097FDA4C08D32910521F0C0970A9708F08B
:1017100096C0C12CD12C7601D0E0E130F105D9F092
:10172000ED32F10509F490C0CF01C0970A9798F403
:10173000AAE0B0E0A70196010E94530C6F01FF0FD1
:10174000EE08FF08C60ED71EE81EF91E20E3C21AD7
:10175000D108E108F10888EC92E00E94D3010E94D0
:101760000104FC01C0970A97C0F2E130F105A9F22B
:10177000DD2341F0F094E094D094C094C11CD11CBE
:10178000E11CF11C51E0C516D10409F063C060E40E
:1017900072E084ED93E00E942F0664E472E088EC2E
:1017A00092E00E942F060E94D0034B015C0188EE5C
:1017B000C82E83E0D82EE12CF12C0E94D0036819AA
:1017C00079098A099B09683E734081059105A8F350
:1017D000E1E0CE1AD108E108F108F8EE8F0EF3E04F
:1017E0009F1EA11CB11CC114D104E104F10429F70E
:1017F0000E949A0238CE1092D10340E080ED840F0F
:101800008A3008F034CE5AE0509FC001519F900DAD
:101810001124042F440F110B00531109080F191F35
:101820000E948005A801012E000C660B770B2AE0B0
:1018300084ED93E00E943E061ACEE1E047CF88ECAB
:1018400092E00E94D30159CFDC2F85CFC12CD12C3F
:10185000760198CFC114D10419F469E472E099CFEC
:101860001C141D0444F482E0C81AD108A601DD0C42
:10187000660B770B36CF92E0C90ED11CD7FEF6CFA0
:101880006DE288EC92E00E942D020D2C000CEE0817
:10189000FF0844275527BA014C195D096E097F09D5
:1018A00020CF6170D8CE0E945E0CA59F900DB49F92
:1018B000900DA49F800D911D11240895A29FB00149
:1018C000B39FC001A39F700D811D1124911DB29F74
:1018D000700D811D1124911D0895A1E21A2EAA1BDD
:1018E000BB1BFD010DC0AA1FBB1FEE1FFF1FA217D0
:1018F000B307E407F50720F0A21BB30BE40BF50BCD
:10190000661F771F881F991F1A9469F76095709555
:10191000809590959B01AC01BD01CF010895EE0F1C
:10192000FF1F881F8BBF0790F691E02D1994F89444
:02193000FFCFE7
:101932002B2C2D2E2728292A3738392F3435362AB1
:101942003132332D63303D2B000000002D02970110
:10195200C4017A02F501D301E70100000000CC03C3
:101962008C035B030000000029069701E1048F0449
:0E1972004F444400444F4E45004556454E003C
:00000001FF
